:020000041008E2
:4000000000780408EB0208100D00000051030810510308105103081051030810000000000000000000000000000000004D0308104D030810000000004D0308104D030810DA
:400040004D0308104D0308104D0308104D0308104D0308104D0308104D0308104D0308104D0308104D0308104D0308104D0308104D0308104D0308104D0308104D03081000
:400080004D0308104D0308104D0308104D0308104D0308104D0308104D0308104D0308104D0308104D0308104D0308104D0308104D0308104D0308104D0308104D030810C0
:4000C0004D0308104D0308104D0308104D0308104D0308104D0308104D0308104D0308104D0308104D0308104D0308104D0308104D0308104D0308104D0308104D03081080
:400100004D0308104D0308104D0308104D0308104D0308104D0308104D0308104D0308104D0308104D0308104D0308104D0308104D0308104D0308104D0308104D0308103F
:400140004D0308104D0308104D0308104D0308104D0308104D0308104D0308104D0308104D0308104D0308104D0308104D0308104D0308104D0308104D0308104D030810FF
:400180004D0308104D0308104D0308104D0308104D0308104D0308104D0308104D0308104D0308104D0308104D0308104D0308104D0308104D0308104D0308104D030810BF
:4001C0004D0308104D0308104D0308104D0308104D0308104D0308104D0308104D0308104D0308104D0308104D0308104D0308104D0308104D0308104D0308104D0308107F
:400200004D0308104D0308104D0308104D0308104D0308104D0308104D0308104D0308104D0308104D0308104D0308104D0308104D0308104D0308104D0308104D0308103E
:400240004D0308104D0308104D0308104D0308104D0308104D0308104D0308104D0308104D0308104D0308104D0308104D0308104D0308104D0308104D0308104D030810FE
:400280004D0308104D0308104D03081010B5054C237833B9044B13B10448AFF300800123237010BD6072020800000000DC520810084B10B51BB108490848AFF3008008484B
:4002C000036803B910BD074B002BFBD0BDE81040184700BF0000000064720208DC52081018430208000000007047FFF7FDFF72B6104C114DAC4209DA21686268A368043B2B
:40030000A2BFC858D050FAE70C34F3E70B490C4A00209142BCBF41F8040BFAE709480A490860BFF34F8F00F083F900F05DF900F01DF8FEE7E0520810F85208106072020820
:40034000707502080040020808ED00E0FEE7FEE700B504207146084202D0EFF3098001E0EFF30880043003F00BF9FEE710B59AB062B600F0A9FB284800F054FB00F0F4F9EC
:4003800018B9264800F04EFB43E000F045FD18B9234800F047FB3CE000F002FB00F0B6FE204800F03FFB204CD4E9000100F04CFB1E4800F037FBD4E9020100F045FB1C4886
:4003C00000F030FBD4E9040100F03EFB194800F029FBD4E90C0100F037FB174800F022FBD4E90E0100F030FB144800F01BFBD4E9100100F029FB124A53681268114901A86B
:4004000003F0DEFD01A800F00DFB012003F084F8C2E700201AB010BDE848081000490810184908103049081078740208384908104049081048490810504908105849081067
:40044000707402086049081008B5012001F0BCFA08BD00BF704700BF5C4AD2F8803303F00F0303F1D00152F8212002F00702032A04D0042A05D092B9554914E0554A1168E2
:4004800011E003F1C002514951F8222002F01F02112A06D0132A04D04FF4FA4103E04E4901E04FF400418BBB484BD3F8902502F00100D3F88825C2F30172D3F8883513F067
:4004C000405F07D0414BD3F88835C3F30173012B02D102E0012300E0002303B108B9032A46D13A48D0F88025C2F31103D0F88425C2F30C02D0F88005C0F300600130B1FB5E
:40050000F2F202FB03F2B2FBF0F131E0012B2FD12E4BD3F8402602F00100D3F80026C2F30172D3F8003613F0405F07D0274BD3F80036C3F30173012B02D102E0012300E068
:40054000002303B108B9032A12D12048D0F8002602F07F02D0F80036C3F30423D0F80006C0F3044002FB01F2B2FBF3F2B2FBF0F1164BD3F88033C3F3011321FA03F2154943
:400580004A601648D0F89030C3F3072301330069000E0130B2FBF0F08860B2FBF3F3CB600B6103F5742202F23F220D48A0FB0202C2F387420A7503F2E7330A4AA2FB032356
:4005C0009B098B61DB03CB61704700BF0000264000127A008C42020800366E010000214083DE1B43D34D621008B50D4803F02CF8FFF730FFFFF730FF00221146042000F0CA
:40060000ABFF084801F03EF8074B1B6893F8513013B1064801F0A6F800F0E8FE08BD00BFEC5108107C720208687502087049081008B503F002F8074AD2F8883043F4700391
:40064000C2F88830BFF34F8FBFF36F8F02F0F9FF08BD00BF00ED00E000B583B08DF804008DF80510022201A9184801F009FA174AD2F80832C3F30803D2F80822C2F3C0329F
:40068000D342F4D1114AD2F80832C3F30803D2F80822C2F3C032D342F4D10C4B1B6A002B05DA0A4BD3F8003F03F4007304E0074BD3F8403F03F40063B3F5007FEDD140F22B
:4006C000DC5002F041FF03B05DF804FB0000624010B582B00C4600218DF804108DF8051040F08000FFF7B8FF022201A91D4801F09DF91C4B1B6A002B05DA1A4BD3F8003FDA
:4007000003F4007304E0174BD3F8403F03F40063B3F5007FEDD140F2DC5002F015FF022201A9104801F082F90E4B1B6A002B05DA0C4BD3F8003F03F4007304E0094BD3F8D4
:40074000403F03F40063B3F5007FEDD140F2DC5002F0FAFE9DF8043023709DF80530637002B010BD0000624000B597B000F042FD0A2002F0D1FE00238DF804308DF80530AD
:4007800081210620FFF768FF01A90620FFF7A0FF9DF80530412B15D19DF80420254902A803F00EFC02A800F03DF901210620FFF753FF01A90620FFF78BFF9DF80530012B1F
:4007C0002BD10AE09DF804201B4902A803F0F8FB02A800F027F9002029E09DF80420174902A803F0EDFB02A800F01CF9144B00200021C3E90A01C3E90801C3E90601C3E9CB
:400800001001C3E90E01C3E90C01C3E90401C3E90201C3E90001012009E09DF80420094902A803F0CDFB02A800F0FCF8002017B05DF804FBA4490810D4490810104A081037
:40084000787402083C4A08102DE9F04F83B007460E4600238DF804308DF8053001A92E20FFF736FF9DF805B001A92D20FFF730FF9DF805A001A93020FFF72AFF9DF805901F
:4008800001A92F20FFF724FF9DF8055001A93220FFF71EFF9DF8058001A93120FFF718FF9DF805404FEA0A2000B24BEA000003F023F80022384B03F085F8C7E900012802E9
:4008C00000B249EA000003F017F80022324B03F079F8C7E90201200200B248EA000003F00BF800222C4B03F06DF8C7E9040101A93420FFF7EDFE9DF805A001A93320FFF7AD
:40090000E7FE9DF8058001A93420FFF7E1FE9DF8059001A93320FFF7DBFE9DF8055001A93820FFF7D5FE9DF8057001A93720FFF7CFFE9DF805404FEA082000B24AEA00004B
:4009400002F0DAFF12A3D3E9002303F065F9C6E90001280200B249EA000002F0CDFF0CA3D3E9002303F058F9C6E90201200200B2384302F0C1FF06A3D3E9002303F04CF905
:40098000C6E9040103B0BDE8F08F00BFAFF3008000000000006050400000203F000000002DE9D0438CB0694606A8FFF74DFFDDE906011B4CC4E90001DDE90889C4E9028907
:4009C000DDE90A67C4E9046713A3D3E9002302F0F9FFC4E9060110A3D3E900234046494602F0F0FFC4E908010BA3D3E900233046394602F0E7FFC4E90A01DDE90023C4E98F
:400A00000C23DDE90223C4E90E23DDE90423C4E910230CB0BDE8D0831F85EB51B89E23407874020810B5044620B940F2A551044802F096FD2146034801F038F810BD00BF6E
:400A4000784A08100000664070B59CB004460D460022002303F028FA08B1174E00E0174E002200232046294603F01EFA18B1204605F1004101E02046294603F03DFA07EECB
:400A8000900ABDEEE77AF8EEC76A77EEE67ADFED0C6A67EEA67AFDEEE77ACDED007A17EE103A3246074903A803F08AFA03A8FFF7B9FF1CB070BD00BFB84A0810CC4C0810E9
:400AC00000401C46BC4A081010B5054C054A0649204602F011FB236843F00043236010BD00006640C0740208E44D081008B5264B984228D00DD8033B984215D002D80028BC
:400B00003FD039E0214B984213D00133984215D032E01F4B984220D01AD30133984221D00133984223D027E01A48FFF77BFF002008BD1948FFF776FF002008BD1748FFF77A
:400B400071FF002008BD1648FFF76CFF002008BD1448FFF767FF002008BD1348FFF762FF002008BD1148FFF75DFF002008BD1048FFF758FF002008BD0E48FFF753FF002070
:400B800008BD012008BD00BF0420AA000220AA000620AA00C84A0810084B0810404B0810544B08107C4B0810A84B0810D84B0810184C0810A84C081070B582B006460D46CF
:400BC000424B00934FF47A7300225721404801F0BDFDFFF78BFF08B1012400E000243B493B4801F0B1FDB0F5803FF8D0642002F0ABFC54B1354B0A223146354801F014FFDE
:400C0000FFF774FF18B1012402E0002400E000242E492F4801F098FDB0F5803FF8D0642002F092FC6CB1294B00934FF47A7301225721274801F002FEFFF758FF18B1012425
:400C400002E0002400E000242049214801F07CFDB0F5803FF8D0642002F076FC64B11B4B00930A232A460121194801F083FEFFF73DFF18B1012402E0002400E000241349F4
:400C8000134801F061FDB0F5803FF8D0642002F05BFC54B10D4A4FF47A710D4801F038FEFFF724FF18B1012402E0002400E000240649074801F048FDB0F5803FF8D06420F6
:400CC00002F042FC204602B070BD00BFF87402080000644070B582B006460D46334B00934FF47A7300225721314801F02FFDFFF7FDFE08B1012400E000242C492C4801F092
:400D000023FDB0F5803FF8D0642002F01DFC54B1264B0A223146264801F086FEFFF7E6FE18B1012402E0002400E000241F49204801F00AFDB0F5803FF8D0642002F004FCA0
:400D400054B11A4B0A222946194801F06DFEFFF7CDFE18B1012402E0002400E000241349134801F0F1FCB0F5803FF8D0642002F0EBFB54B10D4A4FF47A710D4801F0C8FD46
:400D8000FFF7B4FE18B1012402E0002400E000240649074801F0D8FCB0F5803FF8D0642002F0D2FB204602B070BD00BFF87402080000644070B582B005460E4614460DF155
:400DC0000701FFF7F9FE08B1012300E000239DF8071021408DF8071033B131432846FFF779FF18B1012002E0002000E0002002B070BD00BF10B500210420FFF76BFF044603
:400E000000210520FFF766FF2040C4B200210620FFF760FF204010BD10B582B000F0A4F90A2002F079FBBF2240210920FFF7C2FF0DF107010920FFF7BFFE9DF8073023B1BA
:400E40002D48FFF7EFFD002453E01F2240210820FFF7B0FF0446102211460820FFF7AAFF2040C4B2F82203210920FFF7A3FF04409F2220210A20FFF79DFF0440E3220C216E
:400E80000A20FFF797FF0440FC2203210A20FFF791FF04400A210C20FFF71CFF04401F210D20FFF717FF044000210E20FFF712FF04401F211020FFF70DFF0440F82201210D
:400EC0001120FFF777FF04408F2220211120FFF771FF0440FFF78EFF044003D10748FFF7A1FD02E00648FFF79DFD064B00221A605A60204602B010BDB84C0810D04C08102A
:400F0000F04C0810707402082DE9F04184B0064617460DF10F010620FFF74EFE04460DF10E010420FFF748FE204010F0FF0402D16F48FFF777FD9DF80F209DF80E309A4254
:400F400004D16C48FFF76EFD0024CDE06A4DDFF8B081CDF80080642300225721284601F0F5FBFFF7C3FD044043460A220721284601F05AFDFFF7BAFD0440CDF800806423F8
:400F800001225721284601F059FCFFF7AFFD044002D15A48FFF746FD9DF80E809DF80F30B8EB030801D508F1200800258DE0544B00930A230DF10D0200214F4801F0DAFC35
:400FC000FFF794FD04409DF80D30B3704C494A4801F0BAFBB0F5803FF8D0494B00930A230DF10D020021444801F0C4FCFFF77EFD04409DF80D30737041493F4801F0A4FB6E
:40100000B0F5803FF8D03E4B00930A230DF10D020021394801F0AEFCFFF768FD04409DF80D3033703649344801F08EFBB0F5803FF8D0334B00930A230DF10D0200212E485A
:4010400001F098FCFFF752FD04409DF80D30BB702B49294801F078FBB0F5803FF8D0284B00930A230DF10D020021234801F082FCFFF73CFD04409DF80D307B7020491E48B6
:4010800001F062FBB0F5803FF8D008F1FF311C4B00930A230DF10D028D4214BF00210121154801F067FCFFF721FD04409DF80D303B701349104801F047FBB0F5803FF8D0DB
:4010C00014B91048FFF7AEFC0135A8453FF76FAF0B4A6421084801F01BFCFFF707FD044002D10948FFF79EFC204604B0BDE8F081044D0810384D0810000064404C4D081005
:40110000F8740208844D0810A44D081000B585B001AA02A903A8FFF7F7FEB0B19DF80E209DF80D301B0243EA02439DF80C201A439DF806109DF805301B0243EA01439DF836
:4011400004100B4302490B604A6005B05DF804FB7074020808B50249024801F061FD08BDF87402080000644010B5144B1B788BB9134C144A1449204601F0F0F8134A144928
:40118000204601F0F9F91349134802F08BF901220A4B1A70104BB3F90030002B08DB590903F01F03012202FA03F30C4A42F82130034A136843F00043136010BDFC7302080E
:4011C00000006440F8740208244E081084D71700A086010055110810CC4D081000E100E008B50249024801F017FF08BD447502080000624010B5144B1B7883B9134C144A0F
:401200001449204601F0D4FD236A23F0406323621149124802F046F901220B4B1A700F4BB3F90030002B08DB590903F01F03012202FA03F30A4A42F82130044A136843F0CE
:401240000043136010BD00BFFD7302080000624044750208384E0810E1110810D44D081000E100E01F4B98422DD00CD840282ED003D8E8B1102828D02FE0802829D0B0F527
:40128000807F28D029E0184B984228D006D8B0F1204F0DD0154B984212D01EE0144B98420AD00133984209D0023B984215D101E0002070470F4870470F4870470F4870473B
:4012C0004FF4A0007047074870470D4870470D4870470D487047034870470C4870474FF4A400704706005200010000F0090000A0040000F00100520002005200030052009D
:40130000010050000200500005005200FF00520038B5124B1B6893F83130012B04D840F2C3110F4802F01CF90C4B1D682A6AB5F8B03013442C46D5F8B420D358002B0BDB9A
:40134000084B1868FFF78EFF6B6801229A6063689B68002BFBD138BD034838BD687502086C4E081000740208020050001A4B186128B102230370FF23437000234380174B38
:401380001B6893F850202AB300B583B0B3F93830ADF80030002301931149684602F082F8BDF90030002B08DB590903F01F03012202FA03F30B4A42F82130084B1B6893F815
:4013C000513023B102220849012000F077FA03B05DF804FB704700BF00740208687502088943020800E100E04144020808B50248FFF7BCFF08BD00BF1474020838B50B4B88
:401400001B68D3F8B4301B58002B0DDA0D4604460B0C1B0423B140F2D521054802F0A0F8A9B26160002038BD024838BD68750208AC4E081001008A0038B50368002B01DAFD
:40144000002300E0094B73B90D460446C2600B0C1B0423B140F2BB21054802F081F8A9B2A160002038BD014838BD00BF01008A00AC4E081038B504460D4619B999210848E9
:4014800002F06EF8074B1B68D3F8B4301B59002B03DAE3682B60002038BD034838BD00BFEC4E08106875020801008A00254B1B6893F8313083423AD900293AD00B6813F0C6
:4014C0001F0F38D170B50D4604461E4B1B6893F83130984204D340F2C3111B4802F040F8184B1B68186AB3F8B03004FB0304174E34602A68D2080021686802F058FD002120
:401500002046FFF77BFF346825B940F293310E4802F026F82A4600212046FFF78DFF60B900210A4B1868FFF769FF40B970BD084870470748704706487047064870BD054819
:4015400070BD00BF68750208AC4E08101874020803018A0001018A0010B504461346B2B9A9B9124B1B6893F83130984204D340F2C3110F4801F0F4FF0C4B1B681A6AB3F8DA
:40158000B03004FB03240B4B1C60002010BD43B149B1084A51609360111D2046FFF786FF10BD054810BD044810BD00BF68750208AC4E08101874020803018A002DE9F04150
:4015C0001B4B1B68DC68236883422CD90D464609A0EB4610012303FA00F819B902F02DF8074600E00027124B18680368002B01DA002300E00F4B83B9626852F8263018EA3D
:40160000030F05D023EA080342F82630002400E0094C0021FFF7F2FE00E0084C25B9384602F00FF800E0064C2046BDE8F08100BF1874020801008A0002018800030188008D
:4016400004018A000B4B1B68DB681A6882420CD94109A0EB4110012202FA00F05B6853F82130184203D004487047044870470448704700BF187402080101880004018A005C
:4016800000018800024B1B680BB9014B18607047247402082DE9F8430446884691461D46089F2C4B1B681BB9B5212B4801F058FF284B1B682C2000FB04F01C18EEB21E50D4
:4016C000C5F3072363602D0CA560244B1B6893F831309E4204D340F2C311214801F040FF1E4B1B68196AB3F8B02006FB02162661666893F832309E4204D340F2DF11184855
:4017000001F02EFF154B1B681D6A803605EB46156561A668330C1B0423B14FF4FF71104801F01EFF330C1B0423B140F2FF110C4801F016FFB3B243EA0646AE60C4F81C90DF
:40174000C4F820800023A36117B1B7F90030A381BDE8F883247402082C4F081068750208AC4E0810F0B58FB0044618B95221274801F0F6FEA369072B03D95621234801F019
:40178000EFFEE36A1BB95821204801F0E9FE236B1BB959211D4801F0E3FE07AD04F114060FCE0FC537682F6002AD26460FCE0FC533682B60164B1B68B3F93620079B1344DC
:4017C000ADF83030089B0D93A26AE16A0CAD00953B460A98FFF75EFF00210091069B0A460598FFF757FF216B284601F05BFEBDF93030002B08DB590903F01F03012202FAFC
:4018000003F3044A42F821300FB0F0BD2C4F08106875020800E100E0F8B506460F461D4614461AB9FD211F4801F09AFE1E4B1B681BB9FE211B4801F093FE1B4B1B682C214C
:4018400001FB063001FB07314B68012202FA03F31B04466802FA06F60269EAB18F69EFB91268002A01DA002200E0104AC2B92288134323600369DC6001238B614D62046922
:40188000330C1B0423B140F2BB21094801F068FEB2B2A2600020F8BD0648F8BD0648F8BD0548F8BD2C4F08102474020801008A00AC4E081004028A0007028A00F8B5054610
:4018C0000F4616460E4B1B6823B94FF4AF710D4801F046FE0A4B1B682C2404FB0534236A23B94FF4B171074801F03AFEE369B34204D9236A43F826700020F8BD0248F8BD9C
:40190000247402082C4F08100A028A0070B582B000230193044620B940F2D111284801F01FFE236923B94FF4E971254801F018FE636923B940F2D311214801F011FE236AEC
:4019400023B94FF4EA711E4801F00AFE6369DD682A0C20D012041A601B682069194B1B68D3F8B430C358002B15DA01A9FFF782FD60B9019803681E0CDBB2E269934206D205
:40198000226A52F8233013B1984700E0002631462069FFF733FDADB275B16369ADB21D601B68636A1BB198470023636202E0A36A03B198470023A36163691B6802B070BD48
:4019C0002C4F08106875020810B50446074B1B6823B940F2B111064801F0C2FD034B1B682C2000FB0430FFF791FF10BD247402082C4F081010B4D0F8003303F00F03072BF1
:401A000006D900230DE0D0F84043CC54013300E000239342F7D306E0D0F8404321F8134001339342F8D35DF8044B704710B51446D0F80833C3F308039A4200D31C4622464E
:401A4000FFF7D8FF204610BD10B4D0F8003203F00F03072B06D900230DE0CC5CC0F84042013300E000239342F7D306E031F81340C0F8404201339342F8D35DF8044B70477F
:401A800010B51446036813F4006F01D0802200E04022D0F80832C3F30803D31AA34200D81C462246FFF7D0FF204610BD30B4036813F4006F01D0802200E04022002408E0BC
:401AC000D0F80832C3F308039A42F9D0C0F8405201340D5D002DF3D130BC704702E0C0F84012013A002AFAD1704700BF10B51446036813F4006F01D0802200E04022D0F8F2
:401B00000832C3F30803D31AA34200D81C462246FFF7E4FF204610BD10B5546841F201039C4236D1D0F80833C3F30803DBB1137893B1136A43F040031362D0F8043343F4D0
:401B40008033C0F80433D0F8043323F48033C0F80433D0F8043306E029B9136A43F040031362D0F84033136A43F020031362136A23F010031362036E23F4204303660023CA
:401B8000C0F8C83F0123C0F8C03FD0F8C03F202121E0D0F80832C3F30801D0F80832C3F3C0330B44116BC91A5163116A11F0080F05D1D16A1944D162916ACB1A9362136A2E
:401BC00043F004031362136A23F0010313620023C0F8883F1021D0F84C4F40F201131C420DD0036823F00043036000238366C366036843F000430360036841F040014FF0BD
:401C000080535360536C0BB10846984710BD00BFD0F80C3F13F0020F1DD00222C0F8002FD0F8002FD0F8002F12F0040F02D04FF4001001E04FF480108A6802438A604A681C
:401C4000B2F5B81F07D00A7B12B14FF4C01201E04FF4B0124A6013F4807F03D08A6842F400028A6013F0010F03D08A6842F480028A6040F21112134202D04FF4C0134B607E
:401C8000704700BF0023C0F8C83FC0F8883F836E23B140F21713C0F8083F704740F21313C0F8083F182383664FF4B8134B60704738B5D0F80C4F036E23F480730366002374
:401CC000C0F8C83FC0F8883FC0F8083F40F21713C0F8003FD0F8003F8B6823F480338B604B7B13B18B69CB610BE08D69D0F80822C2F30802D0F80832C3F3C0331344EB1A62
:401D0000CB6140F201131C421BD0036E9B0F032B05D114F4827F14BF0123002300E001235BB1036823F00043036000238366C366036843F00043036003684FF080534B60D1
:401D40001BE00B7893B1D0F8043343F48033C0F80433D0F8043323F48033C0F80433D0F804330123C0F8C03FD0F8C03F0B7B0BB10B4B01E04FF080534B604A6C72B14B7B9B
:401D800013B14FF4802001E04FF400308B6813F0F87301D04FF400231843904738BD00BF000010100346002940DB11F0C00F06D0002181664FF0805050602F4844E011F4F0
:401DC000807F36D111F0010F0ED050682B49884232D1196E11F0804F0CBF012100214FF08050506026482FE011F0020F06D050682249884223D10021224825E011F0100FDB
:401E000005D04FF080515160002108461CE050681A49884216D1517B11B14FF4881101E04FF4A0115160002108460DE0012116480AE00121154807E00121114804E0002139
:401E4000134801E00021084679B1196821F00041196000219966D966196841F0004119601B684FF080535360704740F21712C3F8002FD3F8003F70470820AA00000013107C
:401E80000620AA000420AA000320AA000720AA000520AA00036853B110B50446012001F053FB2368013B23601BB1002010BD002070474FF0004010BD70B505460C4691F8C8
:401EC000243013F0FF0F0ED1CB6A63B94B6C0BB108209847E36AB3FA83F35B0984F824300123C5F8883F94F8243013F0FF0F16D063783BB12B6813F4006F01D0802202E08B
:401F0000402200E00122FF212846FFF7EFFD236B18442063236A43F00803236270BDE26A012A11D963780BB1013A00E00122A16A2846FFF7A5FD236B03442363E36A1B1ABE
:401F4000E362A36A1844A062D5F80832C3F30803802B23D0E36A012B20D101F06EFBA36A1B78C5F840324026C5F8806FD5F8803F01F067FB236B013323630023E362A36A0A
:401F80000133A362C5F8886F63783BB1236A43F002032362636C0BB10420984770BD00BF38B54B68B3F5A81F03D14FF4C0134B6038BD4B68B3F5A01F4DD10C4605464A6988
:401FC000012A11D94B780BB1013A00E0012221692846FFF755FDA3690344A36163691B1A6361236903442361D5F80832C3F30803802B14D06369012B11D101F01EFB236995
:402000001B78C5F840324023C5F8803FD5F8803F01F017FBA3690133A361002363616369CBB9237B33B14023C5F8883F4FF4A813636005E00023C5F8883F4FF4B013636076
:40204000637843B1A36843F40033A360636C13B14FF48030984738BD70B504460D468A6C82B3036813F4803F06D0D0F84C3F13F0400F03D0022002E0002000E00020236E9E
:4020800013F4006F06D1D4F84C3F13F0800300D001231843C0B190470123C4F8C03FD4F8C03F024648B91023C4F8403FD4F8403F40F2D113C4F8483F07E040F2C113C4F8B1
:4020C000483F02E0002200E00022D4F8043243F48033C4F80432D4F8043223F48033C4F80432D4F804320AB9012300E00223E366002A59D1666E06F010066B6C23B10EB1E2
:40210000012000E0022098477EB141F202036B602B6A43F001032B626B6B2B63002385F824300123C4F8883F70BD41F201036B602B6A43F010032B620123C4F8C83F2B78F2
:40214000BBB1EB6BBBB1236E43F400532366ED6B802D05D9A5F18003802B0ED8813D0DE0013D236E43F4004323660023C4F8C83F04E0002502E0002500E03F25236813F4B7
:40218000006F01D0802300E040239D4204D34FF42371064801F0E4F9D4F8043323F0FF03EDB21D43C4F8045370BD00BF6C4F081038B54B68B3F5881F03D0B3F5901F1AD064
:4021C00038BD0B69D0F840231A708B6901338B614B69013B4B612BB10B6901330B610423836638BD0B7B13B14FF4C01301E04FF4B0134B6038BD0C4605464A690969FFF77D
:4022000015FCA3690344A36163691B1A6361226910442061012B24D82B6E23F480732B666369012B16D12B6813F4006F01D0802300E0402323B94FF42371184801F090F989
:40224000D5F8043323F0FF03C5F804334FF48813636038BD0023C5F8C83F4FF4B013636038BD402B01D89C1E00E03F242B6813F4006F01D0802300E040239C4204D34FF41D
:402280002371064801F06CF9D5F8043323F0FF02E3B21343C5F8043338BD00BF6C4F081038B5CB6B002B50D00B78002B3FD00C460546D0F80423D2B20132896BFFF7B6FB5F
:4022C000236C03442364E36B1B1AE363A26B1044A063802B06D9A3F18002802A0FD8A3F181040DE02B6E43F400432B66E36B0BB15C1E00E000240023C5F8C83F00E03F24C7
:402300002B6813F4006F01D0802300E040239C4204D34FF42371104801F022F9D5F8043323F0FF02E3B21343C5F8043338BD0123C3668A6B0B6CD0F84003D0540B6C01336E
:402340000B64CB6B013BCB6338BD0223C3660023C0F8C83F38BD00BF6C4F0810F8B50B78012B03D00C7A1CB9002702E0002700E00127002800F0A780002900F0A680002A38
:4023800000F0A58016460C460546013BDBB2022B03D950214F4801F0E3F8637803B163791BB151214B4801F0DBF894F90330002B03DA5221474801F0D3F8237913F0010F34
:4023C00003D05321434801F0CBF82369102B03D95421404801F0C4F8E368102B03D955213C4801F0BDF8637913B14FF4803100E00021E27912B14FF4807300E000230B43CE
:4024000043F400632B60A37913B94FF4006300E000232269013A02F00F021A43E368013B1B01DBB21343227843EA82732B6617B140F2073301E040F20713C5F800330FB1DC
:40244000254B00E0254B2B6763780BB17F2300E00023C5F80433E3785B00DBB2227943EA0243C5F810331E4BC5F80032A3780BB1402300E00123C5F804320023C5F8C83E1B
:40248000C5F8883EC5F8C83FC5F8883FC5F8083F2378022B02D040F2D11300E00023C5F8483F63783370A37873704FF0805373600020B060B06130623064F0633063F06256
:4024C0007064B064F8BD0748F8BD0648F8BD0548F8BD00BFB04F081003002A0013102A00070101000120AA0038B505460C4621B94FF43171194801F033F82B6E9B0F012BDD
:4025000017D1174B2344174A93421ED9A4F5BD13A3F5D66302F5611202F56162934216D9A4F57104A4F533440F4B9C4211D80F4838BD84B1286EC0F303102B6E03F00F03E1
:4025400018440230B4FBF0F038BD094838BD094838BD002038BD002038BD00BFB04F081020AD88FF405B730040555C0440420F00801A0600A08601002DE9F84307468846A2
:40258000914622B940F21321624800F0E9FF08F1FF34614B9C4204D94FF405715D4800F0DFFF3B6E9B0F012B0DD149463846FFF79BFF0546D7F8003323F40073C7F80033FF
:4025C000564B3B67A2E0544B9C421FD8544B984509D8A9F5BD13A3F5D663524A934218D90021012328E0504B984507D84F4B4B444F4A934213D9002101231DE04D4B4B4414
:402600004D4A934212D90021012315E00021012312E0002141F288352E460B460CE000214FF461754FF4C8660B4605E001214FF4BE754FF41B760023002B66D13F4BB3FB06
:40264000F9F3B6FBF3F404FB03F2964200D90134102C00D910240F2C8CBF00220122B5FBF3F606FB03F39D4200D90136102E00D91026A519B9FBF5F50FE022B10F2C09D8E2
:402680000134002206E00F2E04D801360F2C8CBF00220122A519B9FBF5F5454502D9A3191F2BEAD941B1D7F8003343F40073C7F80033234B3B6707E0D7F8003323F4007325
:4026C000C7F80033154B3B67E31F092B04D940F28D511C4800F044FF3B6E23F0F003013C2401E4B223433B66731F0B2B04D940F2AA51144800F034FF3B6E23F00F03013E20
:4027000006F00F061E433E6600E000252846BDE8F88300BFB04F08103F420F0013102A00A0860100502D1900801A060020AD88FFA0432100807E25FFC02BAF0000CA9A3B33
:4027400003002A00F04F0810886870472DE9F04182B005460C4617469846089E11F0800F04D040F2C961314800F0FAFE304B984504D940F2CA612D4800F0F2FE012F04D922
:4027800040F2CB61294800F0EBFE0023C5F8483F7368B3F1805F41D14FF47A7303FB08F30193244B7360012F14BF00230123737340F21713C5F8003FD5F8003F0423C5F823
:4027C000C03FD5F8C03FD5F8043243F48033C5F80432D5F8043223F48033C5F80432D5F804326400E4B23C43C5F840420223AB66D5F8004F24F0F804E405E40DD5F8403F2B
:4028000003F0C0031C4301A8FFF744FB54EA0001EED032462846FFF7C5FA00E0064840F2D113C5F8483F02B0BDE8F081B04F081037894100000013100220AA002DE9F0416F
:4028400082B005460F4614469846089E11F0800F04D040F22A712A4800F082FE294B984504D940F22B71264800F07AFE012C04D940F22C71224800F073FE736813F4801F9E
:4028800039D04FF47A7303FB08F301931E4B7360012C14BF0023012373736B6E13F0200F01D0092300E00123AB666B6E13F0200F05D0002009E001A8FFF7ECFA00E000205E
:4028C00018B9AB6E13F0010FF5D170B97F00FFB23C43C5F84042D5F8000F40F20714044001A8FFF7D7FA2043F5D0324601462846FFF758FA00E0054802B0BDE8F08100BFD0
:40290000B04F081037894100000013100220AA0070B582B005460C461646134B994204D940F28D71114800F01BFE736813F4801F17D04FF47A7303FB04F401941823AB6629
:40294000D5F8004F24F0EE04E405E40D01A8FFF7A1FA54EA0001F3D032462846FFF722FA00E0034802B070BD37894100B04F08100220AA002DE9F04383B0074688461C4640
:402980000A9D914622B940F2D971244800F0E8FD234B9C4204D940F2DA71204800F0E0FDB8F1010F04D940F2DB711C4800F0D8FD6B68B3F5881F2BD14FF47A7303FB04F4A5
:4029C0000194D7F8C06F06F00406D7F8001F40F201140C4001A8FFF75DFA44EA00010EB90029EED046B1D7F8403389F800300523C7F8C03FD7F8C03F2A463846FFF7D2F9A3
:402A0000034630B9B8F1000F03D10422BA6600E0044B184603B0BDE8F08300BFB04F0810378941000220AA00F0B583B005460F4614461E46134B9A4204D940F63301124886
:402A400000F08EFD7368B3F5A01F17D14FF47A7303FB04F40194C5F84072D5F8004F24F0F804E405E40D01A8FFF714FA54EA0001F3D032462846FFF795F900E0034803B08A
:402A8000F0BD00BF37894100B04F08100220AA00F8B504460E46D0F88C3E13F0010F07D04FF480534B600123C0F8803ED0F8803ED4F84C5F40F201131D420FD0336A15F47D
:402AC000807F02D04FF4807200E08022134333620023C4F8C83F45F010050EE015F0100F0BD0D4F80833C3F3080333B1F36B23B10123C4F8C43FC4F8C83FD4F8CC3F13F0E8
:402B0000010F17D0236813F4803F07D0062000F01BFDD4F84C7FC7F3801700E0002757B931462046FFF7BCFB0123C4F8C03FD4F8C03F00E0002715F0100F0BD03246394618
:402B40002046FEF7E9FF1023C4F8403FD4F8403FD4F84C5F15F0C00F0DD031462046FFF77BFA0123C4F8803ED4F8803EC023C4F8403FD4F8403FD4F88C3F13F0410F08D096
:402B800031462046FFF798F90123C4F8803FD4F8803FF8BD70B506460D46D0F8004E14F0020F0AD0836E2BB1002383668B6843F080738B604FF4C0136B6014F0010F05D062
:402BC00029463046FFF724F824F0040414F0080F08D029463046FFF7EBFA0123C6F8C03FD6F8C03F14F0040F08D029463046FFF7D7F90123C6F8803FD6F8803F6B68B3F51E
:402C0000C01F03D129463046FFF752F86B68B3F5B01F03D129463046FFF734F870BD00BF08B54B6813F4801F02D0FFF7B3FF08BDFFF72EFF08BD00BF02E0D0F84033013958
:402C40000029FAD1704700BFF8B506460D46036813F4006F01D0802400E04024D6F80832C3F30803E41A6B699C4200D91C46AA692244AA611B1B6B612F6977B12246394623
:402C80003046FEF7E1FED6F8003203F00F03072B00D9640027442F6105E022464FF6FF713046FEF71BFF6B69BBB92B6843F002032B60D6F8883F23F0010423F4EE6323F00E
:402CC000030323B140F23641044800F049FCC6F8884FEB690BB101209847F8BD6C4F0810F8B506460D46D0F80843C4F308048B68A34200D21C46EA682244EA601B1BAB6032
:402D00006F6877B1224639463046FEF773FED6F8003303F00F03072B00D9640027446F6003E021463046FFF787FFAB6883B9D6F8C83F23F0010423F4366323F00D0323B103
:402D400040F2A631194800F00BFCC6F8C84FF8BD326A002A07DA326812F4006F01D0802209E0402207E0326812F4006F01D0802200E0402252089A4216D95C1E336813F408
:402D8000006F01D0802300E040239C4204D34FF42371064800F0E4FBD6F8043323F0FF02E3B21343C6F80433F8BD00BF6C4F0810002800F02481F8B50546002900F0218194
:402DC00017460C460B78012B03D93F218F4800F0C7FB6378012B07D9052B05D0022B03D040218A4800F0BCFBA378032B03D94121864800F0B5FB2378012B07D16368023B4E
:402E00000E2B03D94321814800F0AAFBA36933F00F0303D044217D4800F0A2FBA368043B0C2B03D94521794800F09AFBE368043B0C2B03D94621754800F092FB6378022BA1
:402E400007D0A268E3689A4203D047216F4800F087FB636A33F06D0303D049216B4800F07FFBE36A33F0730303D04A21674800F077FB236B33F4206303D04B21634800F0E5
:402E80006FFB6378A678052B07D8DFE803F0060305060603022600E00026A368082B04D8E368082B03D9002302E0002300E0012313B14FF4006200E00022237F13B14FF4E7
:402EC000807300E000231A436368013B03F00F03134343F080732B60226A2B6813F4006F01D0802300E040239A4203D35821474800F036FBA26A2B6813F4006F01D08023BC
:402F000000E040239A4203D35921404800F028FB237D0BB9012100E000216278052A01D1022300E000230B43E17C09B1102100E000210B43617C09B1202100E000210B43F1
:402F40002178012902D14FF0004100E000210B43B60006F00C063343A169090201F470610B43120602F0407213432B62237C13B14FF4807200E00022A37C13B14FF40073BD
:402F800000E000231A43A368013B03F00F031343C5F8003394F82030C5F80433237C13B14FF4807200E00022E368013B03F00F031343C5F8003294F82830C5F80432636A40
:402FC00003F06D03C5F8C83FE36A03F07303C5F8883F236B03F40073C5F8003F236B03F40063C5F8403F0023C5F8C83E5FB118463B60BB61FB60FB61054B3B62F8BD0548A7
:4030000070470448F8BD0020F8BD00BF30500810EFCDAB000140AA0038B504460D46D0F8CC3E13F0010F04D00123C0F8C03ED0F8C03ED4F84C3F13F4006F0BD02B6843F405
:4030400000632B604FF40063C4F8403FD4F8403F012300E00023D4F8CC2F12F0200F09D02B6843F020032B602023C4F8C03FD4F8C03F0123D4F88C2F12F0400F09D02B6899
:4030800043F040032B604023C4F8803FD4F8803F01231BB1EB690BB104209847D4F8CC3F13F0010F08D029462046FFF719FE0123C4F8C03FD4F8C03FD4F88C3F13F0010FAB
:4030C00008D029462046FFF7BFFD0123C4F8803FD4F8803F2B6813F0010F0BD0AB684BB96B693BB92B6823F001032B60EB690BB10220984738BD00BF002800F0A48170B58B
:403100000546002900F0A18116460C460B78022B03D93F21A24800F023FA637B023BDBB2062B03D940219E4800F01AFAA37B3BB1022B05D0032B03D04121994800F010FA2E
:4031400094F82130012B03D94221954800F008FA94F82830012B03D94321914800F000FA2378012B06D86368083B082B94BF0023012307E0A37F2BB16368013B062B94BF35
:40318000002301231BB14521854800F0E9F9A368053B042B03D94621814800F0E1F96369FF2B03D947217E4800F0DAF9A369FF2B03D948217A4800F0D3F9A37C6BB1237815
:4031C00033B9A368092B05D1A37B2BB1012304E0012302E0012300E000231BB14A21704800F0BEF9636B23F4366323F00D031BB14C216B4800F0B4F9E36B23F4EE6323F016
:4032000003031BB14D21664800F0AAF92378022B01D1A37F13B16268013A00E00022237F13B14FF4803100E00021A368082B02D84FF4006300E000230B4302F00F021343C3
:4032400043F000732B60226B2B6813F4006F01D0802300E040239A4203D36221504800F07FF9A26B2B6813F4006F01D0802300E040239A4203D36321494800F071F9626AE1
:403280002B6813F4006F01D0802300E040239A4203D36421424800F063F923781B0603F040732B64637F0BB1402200E00022A37C13B14FF4806300E000231343227C12B18B
:4032C0004FF4807200E000221343627C12B14FF4007200E000221A43E36A013B1B0403F470231343627B013A02F007021343A27B120102F030021343AB64237B13B14FF43D
:40330000807200E00022E37B23B92378022B03D1012302E0012300E0002313B14FF4007300E000231A43A368013B03F00F031343C5F80033227DA3691B0403F47F03134391
:40334000C5F81033E26AD5F8003303F00F0303339A4201D3102A03D97A21114800F000F9E37F23B12378012B03D0002302E0002300E0012313B14FF4807200E00022637B4E
:40338000013B03F007031A43A37B1B0103F0300313436B64237B2BB14FF4807203E000BFB05008100022A368013B03F00F0313432278012A02D14FF4803200E000221343E0
:4033C000C5F8003294F83030C5F8043394F8203013B14FF0007200E0002294F82130012B02D14FF0807300E00023134394F82820012A02D14FF4803200E00022134394F899
:40340000242013432B6594F83830C5F80432636B23F4926323F002031B051B0DC5F8C83FE36B23F08C035B055B0DC5F8883F76B1002070603060B060F0603062F0623063C3
:40344000044B736370BD04487047034870BD002070BD00BFEFCDAB000160AA0038B50D4B9A680D4B9A420FD10D46044621B940F237110A4800F074F804F11003064A52F865
:40348000230042F8235038BD1030054B53F8200038BD00BF00ED00E000400208F05008100000081048B338B504460D464368072B03D93221134800F053F8B4F90030626843
:4034C000002B08DB5201D2B203F1604303F5614383F8002305E003F00F035201D2B20A49CA540A4B9A680A4B9A4208D12946B4F90000FFF7B3FF002038BD06487047002085
:4035000038BD00BFF050081014ED00E000ED00E0004002080100560010B5044605E0084B186800F081F8A4F50044B4F5004FF6D8044B186800FB04F000F076F810BD00BFB5
:40354000A8420208A442020808B5034B1B7800FB03F000F069F808BDA042020801BEFEE738B50D46044C18220146204600F04CFDA5610020FFF7F2FFB8480208FEE700BFCA
:4035800008B50268254BDA6142681A6282685A62C2689A620269DA6242691A6382695A63C2699A631E4A916AD963D16A1964516A5964516B9964926BDA64F1EE103A13F0B9
:4035C000900F27D0026A154B1A65426A5A65826A9A65C26ADA65026B1A66426B5A66826B9A66C26BDA66026C1A67426C5A67826C9A67C26CDA67026DC3F88020426DC3F885
:403600008420826DC3F88820C26DC3F88C20026EC3F89020FFF7B2FF08BD00BFB848020800ED00E0000000000230800803D001300238FCD100BF00BF7047EFF3108072B68D
:40364000704780F310887047014B1860704700BF6875020881F0004102E000BF83F0004330B54FEA41044FEA430594EA050F08BF90EA020F1FBF54EA000C55EA020C7FEA01
:40368000645C7FEA655C00F0E2804FEA5454D4EB5555B8BF6D420CDD2C4480EA020281EA030382EA000083EA010180EA020281EA0303362D88BF30BD11F0004F4FEA01311A
:4036C0004FF4801C4CEA113102D0404261EB410113F0004F4FEA03334CEA133302D0524263EB430394EA050F00F0A780A4F10104D5F1200E0DDB02FA0EFC22FA05F280188A
:4037000041F1000103FA0EF2801843FA05F359410EE0A5F120050EF1200E012A03FA0EFC28BF4CF0020C43FA05F3C01851EBE37101F0004507D54FF0000EDCF1000C7EEB7B
:4037400000006EEB0101B1F5801F1BD3B1F5001F0CD349085FEA30004FEA3C0C04F101044FEA445212F5800F80F09A80BCF1004F08BF5FEA500C50F1000041EB045141EA8E
:40378000050130BD5FEA4C0C404141EB010111F4801FA4F10104E9D191F0000F04BF01460020B1FA81F308BF2033A3F10B03B3F120020CDA0C3208DD02F1140CC2F10C0296
:4037C00001FA0CF021FA02F10CE002F11402D8BFC2F1200C01FA02F120FA0CFCDCBF41EA0C019040E41AA2BF01EB0451294330BD6FEA04041F3C1CDA0C340EDC04F11404C4
:40380000C4F1200220FA04F001FA02F340EA030021FA04F345EA030130BDC4F10C04C4F1200220FA02F001FA04F340EA0300294630BD21FA04F0294630BD94F0000F83F4BC
:40384000801306BF81F480110134013D4EE77FEA645C18BF7FEA655C29D094EA050F08BF90EA020F05D054EA000C04BF1946104630BD91EA030F1EBF0021002030BD5FEAD6
:40388000545C05D14000494128BF41F0004130BD14F580043CBF01F5801130BD01F0004545F0FE4141F470014FF0000030BD7FEA645C1ABF194610467FEA655C1CBF0B46ED
:4038C000024650EA013406BF52EA033591EA030F41F4002130BD00BF90F0000F04BF0021704730B54FF4806404F132044FF000054FF0000150E700BF90F0000F04BF0021FB
:40390000704730B54FF4806404F1320410F0004548BF40424FF000013EE700BF42004FEAE2014FEA31014FEA02701FBF12F07F4393F07F4F81F06051704792F0000F14BF03
:4039400093F07F4F704730B54FF4607401F0004521F0004120E700BF50EA010208BF704730B54FF000050AE050EA010208BF704730B511F0004502D5404261EB41014FF417
:40398000806404F132045FEA915C3FF4DCAE4FF003025FEADC0C18BF03325FEADC0C18BF033202EBDC02C2F1200300FA03FC20FA02F001FA03FE40EA0E0021FA02F1144407
:4039C000C1E600BF70B54FF0FF0C4CF4E06C1CEA11541DBF1CEA135594EA0C0F95EA0C0F00F0DEF82C4481EA030621EA4C5123EA4C5350EA013518BF52EA033541F48011FF
:403A000043F4801338D0A0FB02CE4FF00005E1FB02E506F00042E0FB03E54FF00006E1FB03569CF0000F18BF4EF0010EA4F1FF04B6F5007F64F5407404D25FEA4E0E6D4116
:403A400046EB060642EAC62141EA55514FEAC52040EA5E504FEACE2EB4F1FD0C88BFBCF5E06F1ED8BEF1004F08BF5FEA500E50F1000041EB045170BD06F0004646EA010146
:403A800040EA020081EA0301B4EB5C04C2BFD4EB0C0541EA045170BD41F480114FF0000E013C00F3AB8014F1360FDEBF002001F0004170BDC4F10004203C35DA0C341BDC3F
:403AC00004F11404C4F1200500FA05F320FA04F001FA05F240EA020001F0004221F0004110EBD37021FA04F642EB06015EEA430E08BF20EAD37070BDC4F10C04C4F120053C
:403B000000FA04F320FA05F001FA04F240EA020001F0004110EBD37041F100015EEA430E08BF20EAD37070BDC4F1200500FA05F24EEA020E20FA04F301FA05F243EA0203A3
:403B400021FA04F001F0004121FA04F220EA020000EBD3705EEA430E08BF20EAD37070BD94F0000F0FD101F00046400041EB010111F4801F08BF013CF7D041EA060195F0A1
:403B8000000F18BF704703F00046520043EB030313F4801F08BF013DF7D043EA0603704794EA0C0F0CEA135518BF95EA0C0F0CD050EA410618BF52EA4306D1D181EA030118
:403BC00001F000414FF0000070BD50EA410606BF1046194652EA430619D094EA0C0F02D150EA013613D195EA0C0F05D152EA03361CBF104619460AD181EA030101F000410C
:403C000041F0FE4141F470014FF0000070BD41F0FE4141F4780170BD70B54FF0FF0C4CF4E06C1CEA11541DBF1CEA135594EA0C0F95EA0C0F00F0A7F8A4EB050481EA030E31
:403C400052EA03354FEA013100F088804FEA03334FF0805545EA131343EA12634FEA022245EA111545EA10654FEA00260EF000419D4208BF964244F1FD0404F5407402D2CA
:403C80005B084FEA3202B61A65EB03055B084FEA32024FF480104FF4002CB6EB020E75EB030E22BFB61A754640EA0C005B084FEA3202B6EB020E75EB030E22BFB61A7546D8
:403CC00040EA5C005B084FEA3202B6EB020E75EB030E22BFB61A754640EA9C005B084FEA3202B6EB020E75EB030E22BFB61A754640EADC0055EA060E18D04FEA051545EAF9
:403D000016754FEA06164FEAC30343EA52734FEAC2025FEA1C1CC0D111F4801F0BD141EA00014FF000004FF0004CB6E711F4801F04BF01430020B4F1FD0C88BFBCF5E06FD0
:403D40003FF6AFAEB5EB030C04BFB6EB020C5FEA500C50F1000041EB045170BD0EF0004E4EEA113114EB5C04C2BFD4EB0C0541EA045170BD41F480114FF0000E013C90E613
:403D800045EA060E8DE60CEA135594EA0C0F08BF95EA0C0F3FF43BAF94EA0C0F0AD150EA01347FF434AF95EA0C0F7FF425AF104619462CE795EA0C0F06D152EA03353FF4DE
:403DC000FDAE1046194622E750EA410618BF52EA43067FF4C5AE50EA41047FF40DAF52EA43057FF4EBAE12E74FF0FF3C06E000BF4FF0010C02E000BF4FF0010C4DF804CDF2
:403E00004FEA410C7FEA6C5C4FEA430C18BF7FEA6C5C1BD001B050EA410C0CBF52EA430C91EA030F02BF90EA020F0020704710F1000F91EA030F58BF994208BF90422CBFFF
:403E4000D8176FEAE37040F0010070474FEA410C7FEA6C5C02D150EA013C07D14FEA430C7FEA6C5CD6D152EA033CD3D05DF8040B704700BF8446104662468C4619466346EC
:403E800000E000BF01B5FFF7B7FF002848BF10F1000F01BD4DF808EDFFF7F4FF0CBF012000205DF808FB00BF4DF808EDFFF7EAFF34BF012000205DF808FB00BF4DF808ED20
:403EC000FFF7E0FF94BF012000205DF808FB00BF4DF808EDFFF7CEFF94BF012000205DF808FB00BF4DF808EDFFF7C4FF34BF012000205DF808FB00BF4FEA4102B2F1E0431A
:403F000024BFB3F5001CDCF1FE5C0DD901F0004C4FEAC0024CEA5070B2F1004F40EB830008BF20F00100704711F0804F21D113F13872BCBF01F00040704741F480114FEA9E
:403F40005252C2F11802C2F1200C10FA0CF320FA02F018BF40F001004FEAC1234FEAD32303FA0CFC40EA0C0023FA02F34FEA4303CCE77FEA625307D150EA01331EBF4FF089
:403F8000FE4040F44000704701F0004040F0FE4040F40000704700BF10B5431E0A44914204D011F8014B03F8014FF8E710BD02440346934202D003F8011BFAE77047000003
:403FC0000EB400B59CB04FF402711DABADF81410029006906FF000410A48049107914FF6FF7153F8042BADF816100068019302A900F076F8029B00221A701CB05DF804EB18
:4040000003B070470C43020810B5034642B111F8014B03F8014B013A002CF7D11A4400E010BD934202D003F8014BFAE710BD2DE9F0478E689E4282460C46914698463ED842
:404040008A8912F4906F3AD0256809696F1A6569022305EB450595FBF3F57B1C43449D4238BF1D4653050FD5294600F083FB064698B13A462169FFF78FFFA38923F4906328
:4040800043F08003A38113E02A4600F0D1FB064670B92169504600F01FFB0C23CAF80030A38943F04003A3814FF0FF30BDE8F087266165613E44ED1B2660A560464646457E
:4040C00028BF464632464946206800F0E9FAA3689B1BA36023681E4426600020BDE8F0872DE9F04F9DB0804603938B891C060D4616460DD50B695BB9402100F03BFB28601C
:40410000286118B90C23C8F80030CDE040236B610023099320238DF82930DFF89CB130238DF82A3037463C4614F8013B1BB9B7EB060910D003E0252BF9D02746F3E74B4674
:40414000324629464046FFF772FF013000F0A780099B4B4409933B78002B00F0A08000234FF0FF3204930793059206938DF853301A930126052221784E4800F041FA671C92
:40418000049B38B14B4A801A06FA00F0184304903C46EFE7D90644BF20228DF853201A0744BF2B228DF8532022782A2A03D0079A00210A200BE0039A111D12680391002AF1
:4041C00010DA524243F00200079204900BE0274601343B78303B092B03D800FB02320121F5E701B107923B782E2B1ED17B782A2B0AD1039B1A1D1B680392002BB8BF4FF0C1
:40420000FF330237059310E000230593781C19460A24074601303A78303A092A03D804FB01210123F5E703B1059103223978224800F0E6F940B14023CBEB000003FA00F096
:40424000049B18430490013739781C488DF8281006227E1C00F0D4F988B1194B33B9039B073323F007030833039314E003AB00932A46144B04A94046AFF3008007E003ABEA
:4042800000932A460F4B04A9404600F093F8B0F1FF3F824603D0099B5344099342E7AB895B0601D4099801E04FF0FF301DB0BDE8F08F00BFA6520810AC520810B05208102F
:4042C000000000002F4008102DE9F04791461F460A698B68DDF820809342B8BF1346C9F8003091F8432006460C4612B10133C9F800302368990642BFD9F800300233C9F8A9
:404300000030256815F0060510D104F1190A07E00123524639463046C04701301AD00135E368D9F800209B1A9D42F1DB94F843302268003318BF012392060FD5E1185A1C89
:40434000302081F84300224494F8451082F84310023303E04FF0FF30BDE8F08704F1430239463046C0470130F4D02268D9F80050E36802F00602042A08BF5D1B2269A3685D
:404380000CBF25EAE57500259342C4BF9B1AED184FF000091A344D4509D00123224639463046C0470130D5D009F10109F3E70020BDE8F0872DE9F04317460A7E85B06E2A1E
:4043C000984606460C460C9B01F1430E00F0AE8011D8632A22D009D8002A00F0BB80582A40F0CA8081F84520834955E0642A1ED0692A1CD0C0E0732A00F0B08009D86F2AEE
:404400002ED0702A40F0B8800A6842F020020A603EE0752A24D0782A3AD0ADE01A6801F14205111D1960136884F84230A8E021681A6811F0800F02D0111D196008E011F012
:40444000400F02F10401196002D0B2F9003000E01368002B3CDA2D225B4284F8432037E021681A6811F0800F02D0111D196007E011F0400F02F10401196001D0138800E049
:404480001368227E5C496F2A14BF0A2208221BE078225A4984F845202268186812F0800F00F104051D6003D1550601D5038800E00368D00744BF42F0200222601BB9226866
:4044C00022F0200222601022002084F8430001E049490A226568A560002D08DB206820F0040020602BB9002D7DD175460CE0002B79D07546B3FBF2F002FB1033CB5C05F82F
:40450000013D03460028F5D1082A0BD12368DA0708D5236962689A42DEBF302305F8013C05F1FF35C5EB0E0323612EE008681A68496910F0800F03D0101D1860136808E0C8
:4045400010F0400F02F104001860136801D0198000E0196000232361754616E01A68111D1960156862680021284600F049F808B1401B6060636804E004F1420584F842201A
:4045800001232361002384F84330CDF800803B4603AA21463046FFF797FE013002D14FF0FF3026E023692A4639463046C0470130F5D023689B0710D5002504F1190907E0CB
:4045C00001234A4639463046C0470130E7D00135E368039A9B1A9D42F2DBE068039B9842B8BF184605E00B7884F8423004F142058AE705B0BDE8F083B7520810C8520810EC
:4046000001F0FF01102A2BDB10F0070F08D010F8013B013A8B422DD010F0070F42B3F6D1F0B441EA012141EA014122F007047FF000070023F0E80256083C85EA010586EAD3
:40464000010685FA47F5A3FA87F586FA47F6A5FA87F68EB9EED1F0BC01F0FF0102F0070232B110F8013B013A83EA010313B1F8D10020704701387047002D06BF3546033819
:40468000073815F0010F07D1013015F4807F02BF013015F4C03F0130F0BC0138704700BF884210B501EB020301D8421E0BE09842FBD28118D21AD34204D013F8014D01F804
:4046C000014DF8E710BD994204D011F8014B02F8014FF8E710BD000038B50546002946D051F8043C0C1F002BB8BFE41800F0D6F81F4A1368114613B96360146032E0A3420A
:404700000ED92268A018834204BF18685B68636004BF121822600C6024E0A24203D813465A68002AF9D118681918A1420BD12168014458188242196014D1106852685A6059
:40474000014419600EE002D90C232B600AE021686018824204BF10685268626004BF091821605C602846BDE8384000F098B838BD6874020870B5CD1C25F0030508350C2D2A
:4047800038BF0C25002D064601DBA94202D90C23336046E000F082F8234B1C681A462146A1B10B685B1B0ED40B2B03D90B60CC18CD501EE08C420DBF63684B6863601360C4
:4047C00018BF0C4615E00C464968E9E7174C23681BB9304600F052F820602946304600F04DF8431C18D0C41C24F00304A0420DD12560304600F053F804F10B00231D20F034
:404800000700C31A0ED05A42E25070BD211A304600F034F80130EBD10C233360304600F03EF8002070BD00BF6874020864740208F8B5074615460E4621B91146BDE8F84018
:40484000FFF798BF1AB9FFF747FF2846F8BD00F027F885420ED929463846FFF78BFF044650B131462A46FFF797FB31463846FFF733FF01E03046F8BD2046F8BD38B5064C52
:40488000002305460846236000F014F8431C02D1236803B12B6038BD6C7502087047704751F8040C0028BEBF091851F8043CC01804387047044A05491368002B08BF0B46A6
:4048C00018441060184670476C74020870750208F8B500BFF8BC08BC9E467047F8B500BFF8BC08BC9E46704748656C6C6F20576F726C642C204D61737465720A0D00000015
:404900004661696C656420746F20737461727420494D550A0D0000004661696C656420746F207374617274205050470A0D000000416363583A0000002C416363593A0000AC
:404940002C4163635A3A00002C4779726F583A002C4779726F593A002C4779726F5A3A002C49523A25752C5265643A25750A0D00030000000100000001000000000000007E
:4049800005036000040000000100000000000000010000000604600008000000DC730208490408105375636365737366756C6C7920726573657420646174612C2072783AE7
:4049C00020307825303258203078253032580A0A0D00000052657365742064617461206661696C65642C20657870656374656420307834312C20676F742072783A20307899
:404A000025303258203078253032580A0A0D00005375636365737366756C6C792073657420646174612C2072783A20307825303258203078253032580A0A0D004661696C49
:404A4000656420746F2073657420646174612C20657870656374656420307830312C20676F742072783A20307825303258203078253032580A0A0D0047656E657261746509
:404A8000645F536F757263655C50536F43365C70646C5C647269766572732F7065726970686572616C2F7363622F63795F7363625F756172742E68002D0000002573256481
:404AC0002E253034640000004F6E65206F72206D6F726520696E76616C696420706172616D657465727320776572652070617373656420746F207468652066756E637469CA
:404B00006F6E2E0A0D000000546865206D6173746572206973206E6F7420726561647920746F2073746172742061206E6577207472616E73616374696F6E2E0A0D0000009D
:404B40004D61737465722074696D656F75740A0D00000000536C61766520646964206E6F742061636B6E6F776C656467652074686520616464726573730A0D00536C617616
:404B80006520646964206E6F742061636B6E6F776C6564676520746865206461746120627974650A0D0000004D6173746572206C6F7374206172626974726174696F6E2EE9
:404BC000205472616E73616374696F6E2061626F727465640A0D00004D617374657220646574656374656420657272656E6F7573207374617274206F722073746F702E2013
:404C00005472616E73616374696F6E2061626F727465640A0D000000546865206D6173746572207472616E73616374696F6E207761732061626F7274656420616E642074F0
:404C4000686520736C617665207472616E73616374696F6E206973206F6E2D676F696E6720626563617573652074686520736C61766520776173206164647265737365645E
:404C8000206265666F726520746865206D61737465722067656E65726174656420612073746172742E0A0D00556E6B6E6F776E206572726F720A0D00526573657420756E1A
:404CC0007375636365737366756C0A0D00000000416E206572726F72206F63637572656420647572696E672073657475700D0A005365747570207375636365737366756CDD
:404D00000D0A00004572726F722072656164696E672066726F6D204649464F20524541442F575249544520505452207265676973746572730A0D00004E6F206E657720736B
:404D4000616D706C65730A0D000000004572726F7220696E697469616C697A696E6720636F6E6E656374696F6E20746F204649464F20444154412072656769737465720A05
:404D80000D0000004572726F722072656164696E672066726F6D204649464F20444154410A0D00004572726F722073746F7070696E67207472616E73616374696F6E0A0DFE
:404DC000000000002E000000070000002C000000070000002A000000070000001800000007000000000000000C0000000800000000020000000000000000000000000000E5
:404E0000000000000000000000000000000000000B000000000000000000000000000000000000000200000000000000000000000000000000000000010003001000000051
:404E4000080000000800000001000000000000000000000000000000000000000000000000000000000000000000000047656E6572617465645F536F757263655C50536F54
:404E800043365C70646C5C647269766572732F7065726970686572616C2F6970632F63795F6970635F6472762E68000047656E6572617465645F536F757263655C50536F08
:404EC00043365C70646C5C647269766572735C7065726970686572616C5C6970635C63795F6970635F6472762E68000047656E6572617465645F536F757263655C50536F41
:404F000043365C70646C5C647269766572735C7065726970686572616C5C6970635C63795F6970635F6472762E63000047656E6572617465645F536F757263655C50536F05
:404F400043365C70646C5C647269766572735C7065726970686572616C5C6970635C63795F6970635F706970652E630047656E6572617465645F536F757263655C50536F63
:404F800043365C70646C5C647269766572735C7065726970686572616C5C7363625C63795F7363625F636F6D6D6F6E2E6800000047656E6572617465645F536F75726365B9
:404FC0005C50536F43365C70646C5C647269766572735C7065726970686572616C5C7363625C63795F7363625F6932632E63000047656E6572617465645F536F757263659B
:405000005C50536F43365C70646C5C647269766572735C7065726970686572616C5C7363625C63795F7363625F6932632E68000047656E6572617465645F536F7572636555
:405040005C50536F43365C70646C5C647269766572735C7065726970686572616C5C7363625C63795F7363625F7370692E63000047656E6572617465645F536F75726365CC
:405080005C50536F43365C70646C5C647269766572735C7065726970686572616C5C7363625C63795F7363625F756172742E680047656E6572617465645F536F7572636517
:4050C0005C50536F43365C70646C5C647269766572735C7065726970686572616C5C7363625C63795F7363625F756172742E630047656E6572617465645F536F75726365DC
:405100005C50536F43365C70646C5C647269766572735C7065726970686572616C5C737973696E745C63795F737973696E742E63000000000000204000002440000000402D
:405140000000000000002340000030400000314000009F40000022400000104002020202020202020210101D800017007500FF030602063604102000000000007FC0000046
:4051800000040000000000000019324B647D00804000080B100000000000FF012002001F00800004FF081018001000140018001C4044484C500000000810000008000000BD
:4051C00004000000041000000012000004210000002100000016000040114002C41300138013A013200000001C00000000002140000025400000014000003440000024404B
:40520000000031400000324000001F410000234000001140010101010101010101101010800019005500F0000501053B04101C01010000000FC00000000400000101010111
:40524000011D3A57789600082000101208000000001F00000010000F002000023F06080E00080009000A000B24282C30340000001000000090000000880000000800000032
:405280008000000004F0000000F00000400200002005A000D00100018001A00120000000100000004300232D302B2000686C4C006566674546470030313233343536373859
:4052C000394142434445460030313233343536373839616263646566000000000000000000000810004002088C020000005308108C4202082C06000060720208100300002A
:405300000048E80100127A0000093D0000127A0000127A0008000000401F00000000A00F00000000000000000000000000000000000000000000000000000000000000003C
:40534000A45208100000000000000000000000000000000000000000000000000000000000000000000000000000000000000000000000000000000000000000000000001F
:40538000AC420208B10208108D0208100000000080B2C10050B3164B1B681A6AB3F8B030C3EBC303D358002BF5DA3E22114B1A6041F61E7204331A60A3F584730622C3F8E1
:4053C000182521F07F41C3F81C15D3F81C35084B1A68116AB2F8B030C3EBC3030B4400225A60054BD3F81C35002BFADA704700BF687502080401264000002640F8B5274B66
:405400001B6893F83130052B04D840F2C311244800F06CFA214F3A68166AB2F8B03003EB83031E4452684FF26003D458A4B200F065FA05463B681968D3F890208A58013CFF
:40544000032C27D8032A0CD1164A127812F0FF0F07D10822B2601968D3F890208A58032AF9D01968D3F884208B588858C0F307221B0E581C02FB00000B4B03FB00F00B4B4F
:405480001B680B4AA2FB03239B09B0FBF3F08230FFF77EFF284600F011FAF8BD687502086C4E08100B00001640420F0090420208D34D62104378FF2B23D110B500F01EFA5D
:4054C0000446104B1B6893F83130042B04D840F2C3110D4800F00AFA0A4B1A68136AB2F8B02003EB8203DB685A68136843F001031360136813F0010FFBD1204600F0DEF94C
:4055000010BD7047687502086C4E08102DE9F04707468846554B1B6893F83130012B04D840F2C311524800F0E1F9504B1B681C6AB3F8B0201444D3F8B420161993F85030F5
:40554000002B79D04B4B1B7813F0FF0F02D04FF0000901E04FF00109B9F1000F38D0434B1B6893F83130052B04D840F2C311404800F0BCF93D4B1A68116AB2F8B03003EB3F
:4055800083030B44D2F8B420D358002B22DB002000F0BCF9384B98421ED00023374A12690121184600F082F918B1354D17E0013500E00025002000F0A9F92F4B984202D0B6
:4055C000304B9D42F3D92F4B9D4207D92C4D06E0002504E02A4D02E0294D00E00025002D41D100F08BF98246274BD3F81C35002B10DA224A0121204600F090F960B94046E6
:40560000FFF7C6FE57B13368002BFCDB00F066F9054604E01A4D02E0194D00E01B4DB9F1000F05D00121002000F050F90028F9D1504600F043F916E000F060F980460F4A7B
:405640000121204600F06AF938B947B13368002BFCDB00F043F9054602E0094D00E00B4D404600F02BF92846BDE8F087687502086C4E08100B0000160101880000740208DC
:4056800005005200EF4902000000264001005000F0B47F4B1A6855684FF0B0535B7813F0FF0F04D04FF0B0535B78DBB200E02123212B55D1116AB2F8B030C3EBC303CC1866
:4056C000CB58002BF6DAE36843F00103E360146AB2F8B030C3EBC3031C44E36813F0020F2DD0E3689EB21368D2F884105958090A090401F47F01D2F88870DB591B0A41EA8F
:4057000003633343E3601168D2F884208B5823F47F4343F410638B505D4A13681C68D3F88810635823F47F4343F41063635013681A68D3F884105158D3F88830D358544BD6
:405740001A68116AB2F8B030C3EBC3030B4400215960116AB2F8B030C3EBC3030B445B684B4B19680C68D1F894301C44494A136943F004031361012801D030BF07E020BF96
:40578000454B1B7803B120BF0122434B1A70236803F00303022BE9D00A6AB1F8B030C3EBC303D018D358002BF6DA4FF0B0535B7813F0FF0F04D04FF0B0535B78DBB200E093
:4057C0002123212B30D1C36813F0020F1FD00C68D1F88410635823F47F42C3681B0C1B0203F47F4313436350294B19680C68D1F88800235823F47F420D6AB1F8B030C3EB9A
:40580000C3032B44DB681B0E42EA03232350204B1A68136AB2F8B020C2EBC2021344DA6822F00102DA6026E0D5F80C311BBB1B490E681B4BD3F818451A4A106841F61E77CF
:405840000F600621C3F818153E2111604422C3F81C25134BD3F81C35002BFADA4FF0AA33C5F80C310D4B1E60A3F58473C3F8184503F582731860064B1A68116AB2F8B0302F
:40588000C3EBC3030B4400225A60F0BC704700BF6875020800ED00E0287402080801264000002640040126400000000001B40248844601BC604700BF1918081001B4024859
:4058C000844601BC604700BF4336081001B40248844601BC604700BFBD15081001B40248844601BC604700BF1113081001B40248844601BC604700BF6135081001B4024893
:40590000844601BC604700BF3B36081001B40248844601BC604700BF4516081001B40248844601BC604700BF39140810000000000000000000000000000000000000000041
:405940000000000000000000000000000000000000000000000000000000000000000000000000000000000000000000000000000000000000000000000000000000000027
:4059800000000000000000000000000000000000000000000000000000000000000000000000000000000000000000000000000000000000000000000000000000000000E7
:4059C00000000000000000000000000000000000000000000000000000000000000000000000000000000000000000000000000000000000000000000000000000000000A7
:020000041400E6
:4000000000000000000000000000000000000000000000000000000000000000000000000000000000000000000000000000000000000000000000000000000000000000C0
:401080000000000000000000000000000000000000000000000000000100F400000100F400000100F400000100F400000100F400000100F400000100F400000100F4000088
:4010C0000100F400000100F400000100F400000100F400000100F400000100F400000100F400000100F400000100F40411000000000000000000000000000000000000003E
:4011000000000000000000000000000000000000000000000000000000000000000000000000000000000000000000000000000000000000000000000000000000000000AF
:40114000000000000000000000000000000000000000000000000000000000000000000000000000000000000000000000000000000000000000000000000000000000006F
:40118000000000000000000000000000000000000000000000000000000000000000000000000000000000000000000000000000000000000000000000000000000000002F
:4011C00000000000000000000000000000000000000000000000000000000000000000000000000000000000000000000000000000000000000000000000000000000000EF
:0200000490303A
:020000003B586B
:0200000490501A
:0C0000000005E20721002101E2285C5805
:00000001FF