:020000041000EA
:4000000000400208230100100D00000085010010000000000000000000000000000000000000000000000000000000008101001000000000000000008101001081010010E9
:400040008101001081010010810100108101001081010010810100108101001081010010810100108101001081010010810100108101001081010010810100108101001060
:400080008101001081010010810100108101001081010010810100108101001081010010810100108101001081010010810100108101001081010010810100108101001020
:4000C00010B5064C2378002B07D1054B002B02D0044800E000BF0123237010BD3C0600080000000028220010084B10B5002B03D00749084800E000BF07480368002B00D1E0
:4001000010BD064B002BFBD09847F9E7000000004006000828220010E8000008000000007047FFF7FDFF72B60F4C104DAC4209DA21686268A368043B02DBC858D050FAE75F
:400140000C34F3E70A490B4A0020521A02DD043A8850FCDC084809490860BFF34F8F00F005F900F01DF8FEE72C220010442200103C060008140800080000000808ED00E0D3
:40018000FEE7FEE700B504207146084202D0EFF3098001E0EFF30880043001F005FAFEE710B562B6014800F067F9FEE70000081010B5002000F074FF10BDC04670B56249AC
:4001C000E0239B00CB580F2213401A00D0329200525807210A40032A05D0042A06D0002A12D15A4814E05A4A106811E01A00C0329200554952581F210A40112A06D0132A7C
:4002000004D0FA20C00103E0524801E080200002002B36D14C4BB222D2009A5801211140B125ED005A59120F032422405B591B0F1C4207D0444C63591B0F03242340012BDC
:4002400002D102E0012300E00023002B01D0002901D1032A4BD13C4BB022D2009D58AD03AD0B3D495958C904C90C9C58240E01231C40013401F0A0FC6843210001F09CFC44
:4002800035E0012B33D1304BC822D2009A5801251540C024E4001A59120F03210A401B591B0F194207D028490B591B0F03210B40012B02D102E0012300E00023002B01D049
:4002C000002D01D1032A12D11F4DC022D200AB587F210B40A958090A1F263140AC58240C3440584301F068FC210001F065FCE0239B00154AD3581B0903221340D840144CD0
:400300006060164B1D692D0AFC32154001351969090E013101F050FCA060290001F04CFC0500E06020610E4BC0180E4901F044FC20750D4BE818FA21890001F03DFCA06181
:40034000C003E06170BDC0460000264000127A00C000000800366E0184050000000021403F420F0040420F00E703000010B5284801F01CFC274CB022D200A3585B005B08E4
:40038000A350E0218900635830208343635080235B04A350204A214BE250A02292010433E250FF221E4BE25001F0EEFBC0225200A35801218B43A35000F0BEF9FFF7FEFE40
:4003C000B0235B055B78002B04D0B0235B055B78DBB200E02123212B03D1124B0022DA605A60114C22008021042000F0FFFB2000103000F093FC0D4B1A685123D35C002BF9
:4004000002D00B4800F000FD00F0C8FA10BDC046702100100000264001000200840500008C050000E00023405806000810080008201D00108023024AD3580320184070479F
:400440000000214010B501F040F9084980228C58074B2340074C23438B508823034AD358DB06FAD501F035F910BDC04600002140FCFF00000100FA0570B50500830504D065
:40048000E821FF310F4801F061F801F01EF90400FFF7D0FF032801D1FFF7D4FF0A4AB0239B00D55080215058084B03400848034353508823044AD358DB06FAD5200001F0E7
:4004C00008F970BD541D001000002140FCFF00000300FA05FEE7C04630B587B08649A022D2008B58032083438B50844A116808688823CB58C31818688149084018601368F9
:40050000186884241B59C01803681B021B0A80256D042B430360106805680359EB1818680140196013683E229A5C002A06D07248E02189004258753CA24342503E229A5C08
:40054000002A06D06C48E021890042583024A24342503E229B5C002B07D06749E02292008B588020000603438B500021012000F0C9FD0021022000F0C5FD0021032000F070
:40058000C1FD0021042000F0BDFD0021002000F0B9FD01A85B4903000A0032CA32C312CA12C300F0DDFD002802D00420FFF792FF5149554A8B588020000603438B505348BE
:4005C00000F08AFE002802D00420FFF783FF4A4C4F4BE1584F4A0A40E250E1584E4A0A40E250E25880252D062A43E250043BE1584A4A0A40E250E158494A0A4080218901A8
:400600000A43E250E258802109020A43E250454A1168454B0B40802149000B431360002001F094FA414BE2581543E550E158012291430A43E2506421002000F0CDFF2F4BCC
:400640001B683F229A5C032A03D90021384A986881509A6874215B5AD2181168284B0B40F82149010B431360244B1B687322995C703A8A40110070229A5C7220185C824041
:400680000A43802109060A438021C900986842509A6852583F229A5C052A06D970229A5C01210A402349986842509A6874215B5AD2185168124B0B408C2189010B43536022
:4006C0000E4B1A687323D35C032199407023D35C7220105C1C0084402143012003400B43802109060B438021C9009068435093685B5807B030BDC0460000264010080008D6
:40070000FF00FFFF6C1D0010087F0000400D030004050000FEFCFFFFFFFF00FFFFF0FFFFFF8FFFFF00002740FFFCFFFF0C0500000C0C0000140C000070B58AB096210020F6
:4007400000F04AFF00F020FF002814D100F00CFFC0235B002E4AD358DB0705D411002D4A8B585B005B088B5029492A4A8B588020000603438B50012001F080F9264A516C41
:40078000264B0B40E82189010B435364536C1B0AFF2213403A2B07D11F4A516C204B0B40E82189010B435364FFF796FE0F221D4B1A601D4A1D4B1A6001AD1D4C2A00230092
:4007C000143343CB43C243CB43C243CB43C22900184800F0EBF82A002300383343CB43C243CB43C243CB43C22900134800F0DEF82A0023005C3313CB13C213CB13C213CBC2
:4008000013C229000D4800F0D1F80AB070BDC046000026400C05000000002740FF00FFFFFFC5FFDF0000644007010100000264406C1D0010800232400003324080053240F6
:40084000214B984230D00ED8402831D004D800281FD010282AD031E080282BD080235B00984229D02AE0194B984229D007D8A0231B0698420DD0164B984212D01EE0154B03
:4008800098420AD0144B984209D0144B984215D101E0002016E0124814E0124812E0124810E0A020C0030DE007480BE00F4809E00F4807E00F4805E0034803E00E4801E0AF
:4008C000A420C0037047C04606005200010000F0090000A0040000F0050000F0030000F0010052000200520003005200010050000200500005005200FF00520070B5124B1D
:400900001A683123D35C002B04D1C421FF310F4800F01CFE0C4B1D682C00B423EB582A6A944663441B68002B0BDB094B1868FFF787FF6B6801229A6063689B68002BFBD16C
:4009400000E0044870BDC04610080008EC1D0010E80700080200500010B50D4B1861002805D002230370FD33437000234380094B1B6850229A5C002A08D051229B5C002BCC
:4009800004D04F3A0449002000F0F8FA10BDC046E8070008100800086101000810B502481430FFF7D9FF10BDE807000870B505000C0000285DD000295DD0FF230A689A4300
:4009C00003D099212D4800F0C1FDFF2322699A4303D09A21294800F0B9FDA3685B0D03D09B21264800F0B2FD63685B0A03D09C21224800F0ABFDE3695B0F03D09D211F4899
:400A000000F0A4FD236A5B0F03D09E211B4800F09DFD1B4A11688B69EB1ADB0949691B01CB18216829607D211068415C6918E06808607E211068415C6918206908607F2187
:400A40001068415C6918606908607C211068415C6918A06808606168A961116880228A5CAD18A2692A60E2691A60226A5A60002002E0044800E0034870BDC0462C1E0010CD
:400A80001008000801005A0070B504000D000A4B1A68B423D3581B181B68002B0ADA0B0C03D00649064800F051FD2D042D0C6560002000E0034870BD10080008D502000084
:400AC000AC1E001001008A0070B505000C000368002B01DA002300E0084B002B0BD1EA60230C03D00649074800F030FD2404240CAC60002000E0014870BDC04601008A001B
:400B0000BB020000AC1E001070B505000C1E03D19921084800F01AFD074B1A68B423D3585B191B68002B03DAEB682360002000E0024870BDEC1E00101008000801008A00FE
:400B400070B504000D00234B1A683123D35C834236D9002936D00B68DB0635D13123D35C984204D3C421FF311B4800F0EFFC194B1B681A6AB0215B5A5C431419174E346032
:400B80002B68DA080021686801F0A2F800212000FFF77AFF3468002D03D111490E4800F0D5FC2A0000212000FFF78EFF00280DD10A4B18680021FFF767FF002808D108E057
:400BC000084806E0074804E0064802E0064800E0054870BD10080008AC1E0010000800089303000003018A0001018A0010B50400002A17D1002915D1124B1A683123D35CAE
:400C0000984204D3C421FF310F4800F09FFC0D4B1B681A6AB0215B5A5C4314190B4B1C6000200EE0002A09D0002909D0074B59609A60191D2000FFF783FF02E0044800E095
:400C4000034810BD10080008AC1E00100008000803018A00F0B583B00D001C4B1B68DC68236883422DD947097B01C01A012383401E00002903D100F028FD019001E0002309
:400C80000193124B18680368002B01DA002300E00F4B002B0ED16368BF00DF193B68334203D0B3433B60002400E00A4C0021FFF7EBFE00E0084C002D04D1019800F009FDCE
:400CC00000E0064C200003B0F0BDC0460008000801008A00020188000301880004018A000A4B1B68DA68136883420BD943095901401A0121814052689B009B580B4203D072
:400D0000034802E0034800E003487047000800080101880004018A0000018800034B1B68002B01D1014B18607047C0460C080008F0B5474680B404000F0090461E002D4B57
:400D40001B68002B03D1B5212B4800F0FFFB294B1B682C2060431C18FF22150035402560330A13406360360CA660244B1A683123D35C9D4204D3C421FF31214800F0E6FB60
:400D80001E4B1A68B023D35A6B43116A8C466344236166683223D35C9E4204D3E021FF31174800F0D3FB154B1B681D6A80367601AD196561A668330C04D0FF2149001048C6
:400DC00000F0C4FB330C03D00E490D4800F0BEFB3604330C1E43AE604346E36127620023A361069B002B02D000229B5EA38104BC9046F0BD0C0800082C1F001010080008C1
:400E0000AC1E0010FF010000F0B58FB0041E03D15221294800F09AFB6368032B03D95421254800F093FBE36A002B03D15821224800F08CFB236B002B03D159211E4800F05D
:400E400085FB07AA1300210061C961C321C921C302AD290023001433C1CBC1C141CB41C10821535E0CAE3380144B1B6836215B5E07998C466344B370089B0D930B9B0A9893
:400E80000096A26AE16AFFF753FF2B69E868002200920021FFF74CFF216B300000F0E8FA0023F25E002A05DB1F231A401E3B9340034A13600FB0F0BD2C1F00101008000889
:400EC00000E100E0F8B505000F0016001C00002A03D1FD21224800F039FB224B1B68002B03D1FE211E4800F031FB1E4B1B682C2128004843181879435918012213004D68D0
:400F0000AB401B044568AA4015000269002A20D08F69002F1FD11268002A01DA002200E0114A002A19D132681204120C134333600369DE6001238B614C6204692B0C03D0D9
:400F40000A490B4800F002FB2A04120CA260002004E0084802E0084800E00748F8BDC0462C1F00100C08000801008A00BB020000AC1E001004028A0007028A0070B504003B
:400F80000D0016000F4B1B68002B04D1AF2149000D4800F0DBFA0B4B1B682C2060431C18236A002B04D1B1214900074800F0CEFAE369B34204D9236AB6009D51002000E004
:400FC000024870BD0C0800082C1F00100A028A0070B582B0040000230193002804D1D221FF312D4800F0B2FA2369002B04D1E9214900294800F0AAFA6369002B04D1D42185
:40100000FF31254800F0A2FA236A002B04D1EA214900214800F09AFA6269D5682B0C24D01B041360136820691C4B1A68B423D358C3181B68002B18DA01A9FFF765FD002860
:401040000ED1019803681E0CFF221340E269934207D29B00226AD358002B02D0984700E0002631002069FFF70FFD2D042D0C0FD063691D601B68636A002B03D09847002324
:40108000636203E0A36A002B00D098470023A36163691B6802B070BD2C1F00101008000810B50400084B1B68002B04D1B221FF31064800F04BFA044B1B682C2060431818BB
:4010C000FFF786FF10BDC0460C0800082C1F001010B50400094B1B689B6CC340DB0703D4BE21074800F032FA044B1B681B691034A402E3580F20184010BDC0461008000889
:401100006C1F0010134B1A683C23D35C83421DD9042904D94B1EFF3B9BB2132B18D8FF290CD91F2319400C4A0300C0339B009950D03080000423835000200AE00723194044
:40114000D0308000044BC150002002E0034800E002487047100800080000264001004A0070B5041E03D14A494A4800F0EFF9B023DB00494AD358002B00DA87E0474B226884
:401180009A4203D94649434800F0E0F923689B039B0BE279002A02D08022520400E000221343B022D2003C498B50A2883D4B9A4204D98C218900374800F0C8F922893A4B19
:4011C0009A4203D93949334800F0C0F9A388DB04D90C23891B04364A13400B43354A2E498B50A37A0F2B04D98E218900294800F0ADF9E37A0F2B03D92F49264800F0A6F98A
:40120000A289284B9A4203D92C49224800F09EF9A37A0F211940E27A1201FF2313400B43A289120226490A401343A27B1207C02189050A401343B122D20017498B50A3798B
:40124000042B03D91F49134800F080F9228A164B9A4204D9912189000E4800F077F90E4819494558194B1D40A3791B02E022D20013402B4343504558154B1D40238A1B04E3
:401280000B4A13402B434350002000E0114870BD1F020000AC1F001000002640FFFF030029020000FF1F0000FF010000310200000000FF0184050000390200003A02000020
:4012C00000FF1F00430200008C050000FFF8FFFFFFFF00FE03004A0070B505003149324A8B588020000603438B502C0003E0012000F020F9013CB223DB002A4AD3585B07CB
:4013000001D4002CF3D12749B122D2008858274B03408020800503438B50002D01D0002C0CD02049B022D2008B588020000603438B5003E0012000F0FDF8013CB223DB0065
:40134000184AD358DB0701D4002CF3D1002D01D0002C08D01349B122D2008B58C020800503438B5013E00F4BB121C90058580F4A02408020800502435A5008395A58520041
:4013800052085A5008495A58520052085A50002D03D0002C03D0002002E0002000E0044870BDC046000026408C050000FFFFFFCF02004A0070B505000C001A4B1B682822D9
:4013C0009A5C012A15D1820807211000884327D19200AD1AED00FF20A8401B6820339A181168AC4023004B40184004004C40146016E03A229B5EDBB2994203D176210A48AD
:4014000000F0A4F8074B1B681B68072215408022120615438022920194466444A400E55070BDC046100800083420001070B504000D000B4B9A680B4B9A420CD1002904D156
:401440003821FF31084800F081F81034054BA400E058E55003E01034A400044BE05870BD00ED00E0000000083420001000000010F0B5474680B482B0061E01914AD04368AA
:40148000032B03D93221264800F060F80023F05E002804DBB178FFF78DFF002400E0214C0023F15E7368002912DB88081E4FC0308000C55903221140C900FC3290468A408A
:4014C00095439A01434613408B402B43C35116E089B20F220A40083A92080632920013481018476803221140C900FF252A008A4097439A012B0013408B403B4343600B4B40
:401500009A680B4B9A4206D10023F05E0199FFF78DFF00E0034C200002B004BC9046F0BD342000100100560000E100E000ED00E00000000810B5034B1B78584300F0BCF899
:4015400010BDC046D400000801BEFEE770B50D00044C18220100200000F0C2FBA5610020FFF7F2FF00060008054B802212069A649B6C002B01DB002000E002487047C04656
:401580000000274003004600054B8022120198585B68FF221A4202D08023DB021843704700002640FEE7C04610B50A4B0268DA6142681A6282685A62C2689A620269DA6239
:4015C00042691A6382695A63C2699A63FFF7EAFF10BDC04600060008F0B5474680B4002801D0192300E064238B429B415B42304D2C682268A826A45BA41822680327BA4316
:401600003B401A4322602C682268A45BA2181668284CA046264016602C682668AA229446A25A96193268BA43134333602A6813686546525BD3181A68444614401C6000287E
:4016400005D010291BD921291BD8012024E0184B1B6855229A5C914215D956229A5C914213D957229A5C914211D958229A5C91420FD959229B5C99420DD804200CE000200C
:401680000AE0022008E0002006E0012004E0022002E0032000E00520054A1268526813680F218B430343136004BC9046F0BDC04610080008FFFCFFFF0230800803D001302A
:4016C0000238FCD1C046C0467047EFF3108072B6704780F31088704710B5B0235B059B899BB2002B04D0B0235B059B899BB201E080235B0080225200934215D1184C236884
:401700001968683A9B58C9180B680F208343963A13430B6021680C689C23CB58E318196881430A431A6019E00D4C2368196898229B58C918B02040050A4BC2580A4B1340BB
:401740000A681343C022920013430B60226811689C23D358CB18054A82581A6010BDC0461008000848180000FFFCFFFF4418000030B5B0235B059B899BB2002B04D0B023F6
:401780005B059B899BB201E080235B0080225200934215D1184C23681968683A9B58C9180B680F208343953A13430B6021680C689C23CB58E318196881430A431A6019E00D
:4017C0000D4D2B68196898229B58C918B0246405C12040012258094B13400A681343C022920013430B602A6811689C23D358CB1822581A6030BDC04610080008FFFCFFFF98
:40180000B0235B059B899BB2002B04D0B0235B059B899BB201E080235B008022520093420DD1104B1B681A6898215B58D21811680D4B0B40C021C9010B43136011E0094B58
:401840001B68196898229B58C918084BB0225205D258074B13400A681343C022920013430B60704710080008FF8FFFFF18180000FFFCFFFF30B5B0235B059B899BB2002B4E
:4018800004D0B0235B059B899BB201E080235B008022520093420DD1134B1B681A6898215B58D2181168114B0B408021C9010B43136018E00C4D2B68196898229B58C91832
:4018C000B02464050A4822580A4B13400A681343C022920013430B602A6811689C23D358CB1822581A6030BD10080008FF8FFFFF4C180000FFFCFFFF10B5B0235B059B895C
:401900009BB2002B04D0B0235B059B899BB201E080235B0080225200934217D10020FFF7D7FBB0235B055B78002B04D0B0235B055B78DBB200E02123222B03D8002803D15F
:40194000013004E0012002E0002000E0012010BDF8B50700012803D93D493E48FFF7F6FDB0235B055B78002B04D0B0235B055B78DBB200E021239DB2B0235B059B899BB204
:40198000002B04D0B0235B059E89B6B201E0802676000020FFF79CFB002814D180235B009E4212D1222D12D82B4B1B685C682B4821582B4B19403B068022520413400B4363
:4019C0002350002404E0274C02E0264C00E0254C80235B009E4201D1222D03D880235B009E4232D01C4B1A683123D35C002B04D1C421FF311C48FFF7A9FD174B1B681D6AAD
:401A000080235B009E4203D1002F05D0174A06E0002F03D0164A02E0164A00E0164A01212800FFF751F800280FD10B4B1A68B423D3585B191B68002BF7DBEB681B0E1B06C9
:401A4000A0221206934200D100242000F8BDC0464C0A0000782000101008000818F00000FFFFFFFE04004200EC1D0010010100300300000C010000300100000CF8B5050036
:401A8000012804D9822109012948FFF75FFDFFF733FF002849D0FFF718FE0700002D11D10021244B244AD150E823DB00B0225205D65CF6B20120FFF74BFF041E19D1FFF7BA
:401AC0000BFE16E0B02252051C4BD0581A4B194958501B49565CF6B21A481A581F218A4314390A431A500320FFF724FDFFF7C2FE0024002C15D11049124A8B581F2083435A
:401B000006401E438E50002D02D1FFF779FE08E00720FFF70FFDFFF72BFE0020FFF718FF04003800FFF7D5FD00E0074C2000F8BD78200010307F0000000026401018000065
:401B4000410700001CFF000003004200042805D10B4A116804230B4313600FE0094B1A681168A023D358CB180006C022920410401860034A136804218B4313607047C046C5
:401B800010E000E0100800080749C02252008B589B009B088020C00503438B508B588020000603438B50704700002640014B18607047C04610080008002243088B4274D321
:401BC00003098B425FD3030A8B4244D3030B8B4228D3030C8B420DD3FF22090212BA030C8B4202D31212090265D0030B8B4219D300E0090AC30B8B4201D3CB03C01A5241E6
:401C0000830B8B4201D38B03C01A5241430B8B4201D34B03C01A5241030B8B4201D30B03C01A5241C30A8B4201D3CB02C01A5241830A8B4201D38B02C01A5241430A8B42BC
:401C400001D34B02C01A5241030A8B4201D30B02C01A5241CDD2C3098B4201D3CB01C01A524183098B4201D38B01C01A524143098B4201D34B01C01A524103098B4201D3F0
:401C80000B01C01A5241C3088B4201D3CB00C01A524183088B4201D38B00C01A524143088B4201D34B00C01A5241411A00D20146524110467047FFE701B5002000F006F881
:401CC00002BDC0460029F7D076E770477047C04603008218934202D019700133FAE77047030030B5002A0DD00C7801335D1E013A2C700131002CF5D19A189A4202D01C70BC
:401D00000133FAE730BD0000F8B5C046F8BC08BC9E467047F8B5C046F8BC08BC9E4670470300000001000000010000000000000005036000040000000100000000000000A3
:401D4000010000000604600008000000C8070008B101001073797374656D5F70736F63365F636D30706C75732E630000F4010000140004010A000905080000006301000022
:401D8000030000000000000000000000680000000000000000000000000000001212000000000000030000000000000000000000CC0000BA0000000000000000000000000B
:401DC0001313000000001D1DC0000000000000000000000000000066000000000000000000000000000000000000000047656E6572617465645F536F757263655C50536F90
:401E000043365C70646C5C647269766572732F7065726970686572616C2F6970632F63795F6970635F6472762E68000047656E6572617465645F536F757263655C50536FB8
:401E400043365C70646C5C647269766572735C7065726970686572616C5C6770696F5C63795F6770696F2E630000000047656E6572617465645F536F757263655C50536FBB
:401E800043365C70646C5C647269766572735C7065726970686572616C5C6770696F5C63795F6770696F2E680000000047656E6572617465645F536F757263655C50536F76
:401EC00043365C70646C5C647269766572735C7065726970686572616C5C6970635C63795F6970635F6472762E68000047656E6572617465645F536F757263655C50536F71
:401F000043365C70646C5C647269766572735C7065726970686572616C5C6970635C63795F6970635F6472762E63000047656E6572617465645F536F757263655C50536F35
:401F400043365C70646C5C647269766572735C7065726970686572616C5C6970635C63795F6970635F706970652E630047656E6572617465645F536F757263655C50536F93
:401F800043365C70646C5C647269766572735C7065726970686572616C5C70726F745C63795F70726F742E630000000047656E6572617465645F536F757263655C50536F4E
:401FC00043365C70646C5C647269766572735C7065726970686572616C5C737973636C6B5C63795F737973636C6B2E630000000047656E6572617465645F536F75726365D4
:402000005C50536F43365C70646C5C647269766572735C7065726970686572616C5C737973636C6B5C63795F737973636C6B2E680000000047656E6572617465645F536FCF
:40204000757263655C50536F43365C70646C5C647269766572735C7065726970686572616C5C737973696E745C63795F737973696E742E630000000047656E657261746548
:40208000645F536F757263655C50536F43365C70646C5C647269766572735C7065726970686572616C5C737973706D5C63795F737973706D2E6300000000204000002440C6
:4020C000000000400000000000002340000030400000314000009F40000022400000104002020202020202020210101D800017007500FF03060206360410200000000000F6
:402100007FC0000000040000000000000019324B647D00804000080B100000000000FF012002001F00800004FF081018001000140018001C4044484C500000000810000036
:402140000800000004000000041000000012000004210000002100000016000040114002C41300138013A013200000001C0000000000214000002540000001400000344057
:4021800000002440000031400000324000001F410000234000001140010101010101010101101010800019005500F0000501053B04101C01010000000FC000000004000062
:4021C00001010101011D3A57789600082000101208000000001F00000010000F002000023F06080E00080009000A000B24282C3034000000100000009000000088000000E7
:40220000080000008000000004F0000000F00000400200002005A000D00100018001A0012000000010000000000000000000001000000008C00000004C220010C0000008E9
:40224000400500003C060008D80100000048E80100127A0000093D0000093D0000093D0004000000A00F00000000D007E9000010C10000100000000010B50004400B27D008
:40228000144B1A68146AB023D15ACA00531AE3181B68002BF4DA3E220F4B1A600F4A104B1A60104B0621A322D20099500E4A98509B58084B1A68106AB023D15ACA00531AF8
:4022C000C31800225A60084B064AD358002BFADA10BDC04610080008040126401E1F000008012640000026401C05000010B54378FF2B20D100F00AFA04000F4B1A68312306
:40230000D35C042B04D8C421FF310C4800F0F6F9094B1A68116AB023D35A9B00CB18DB685A68116801230B4313601368DB07FCD4200000F013FA10BD10080008EC1D001099
:40234000F0B585B001900291544B1A683123D35C002B04D1C421FF31514800F0CFF94F4B1B681E6AB4229A58971950229B5C002B77D000F0E3F9050003283CD1474B1A6840
:402380003123D35C062B04D8C421FF31444800F0B5F9424B1968B023CB5A5A00D21853000A6A94466344B4228A58D3181B68002B23DB002000F0E2F93A4B98421FD03A4BAF
:4023C0001A6900230021012000F0A8F9002803D0364C17E0013400E00024002000F0CEF9304B984202D0324B9C42F3D9304B9C4207D92E4C06E0002404E02C4C02E02B4C20
:4024000000E00024002C46D100F080F90390294B294AD358002B13DA234A0121300000F0A5F900280ED10298FFF726FF019B002B0AD03B68002BFCDB00F078F9040004E097
:402440001A4C02E0194C00E01C4C032D05D10121002000F07BF90028F9D1039800F07EF919E000F053F905000F4A0121300000F07DF9002809D1019B002B08D03B68002B0D
:40248000FCDB00F053F9040002E0084C00E00B4C280000F063F9200005B0F0BD10080008EC1D001001018800E807000805005200EF4902001C05000000002640010050007F
:4024C000F0B54F464646C0B4824B1A685468B0235B055B78002B04D0B0235B055B78DBB200E02123212B67D1B023D15ACB005B1A116A8C46634419680029F5DADD68022144
:402500002943D960B023D15ACB005B1A116A8C466344D968C9073ED5D9680904090C8C4684271168D559A84641440968090A0904FF26360431400D00882611688946915958
:402540008846C14449460968090A0906294365462943D9601168D359C9180A685E4B98461A4090252D012A430A605A4B99461A6813689C46925962441368414619400B00BD
:402580002B4313604B461A681568D15969180B689359EB181B684F4B1A68B021555AEB005B1B156AAC46634400255D60156A515ACA00531AEB185B68484A116904230B437B
:4025C0001361012801D030BF00E020BF414B1A68B023D15ACB005B1A116A8C46634419680029F3DAB02149054978002904D0B02149054978C9B200E02121212932D1D96820
:40260000C90722D510688421525880180468324A1440DB681B0C1B02FF2109020B40234303602C4B19688823C8580B689C46604403681A400D6AB023CC5AE1000B1BEB1877
:40264000DB681B0E1B021A430260224B1A68106AB023D15ACA00531AC318DA6802218A43DA6028E086235B00E358002B23D11C4807681C4BA321C9005E581B4A9046156892
:402680001A4A0260062058503E21424611600631174A9950164B134AD358002BFADA154A86235B00E2500E4B1F60A323DB000D4AD6500D4B1D60074B1A68106AB023D15A19
:4026C000CA00531AC31800225A600CBC90469946F0BDC04610080008FF00FFFF00ED00E00801264000002640040126401E1F00001C050000AAAAAAAA0000000001B402488D
:40270000844601BC604700BF4D15001001B40248844601BC604700BFCB16001001B40248844601BC604700BFC50E001001B40248844601BC604700BFFD08001001B402488E
:40274000844601BC604700BF3504001001B40248844601BC604700BF550C001001B40248844601BC604700BFD316001001B40248844601BC604700BFC90A001001B4024813
:40278000844601BC604700BFE10C0010000000000000000000000000000000000000000000000000000000000000000000000000000000000000000000000000000000002F
:4027C00000000000000000000000000000000000000000000000000000000000000000000000000000000000000000000000000000000000000000000000000000000000D9
:020000041008E2
:4000000000780408EB0208100D00000051030810510308105103081051030810000000000000000000000000000000004D0308104D030810000000004D0308104D030810DA
:400040004D0308104D0308104D0308104D0308104D0308104D0308104D0308104D0308104D0308104D0308104D0308104D0308104D0308104D0308104D0308104D03081000
:400080004D0308104D0308104D0308104D0308104D0308104D0308104D0308104D0308104D0308104D0308104D0308104D0308104D0308104D0308104D0308104D030810C0
:4000C0004D0308104D0308104D0308104D0308104D0308104D0308104D0308104D0308104D0308104D0308104D0308104D0308104D0308104D0308104D0308104D03081080
:400100004D0308104D0308104D0308104D0308104D0308104D0308104D0308104D0308104D0308104D0308104D0308104D0308104D0308104D0308104D0308104D0308103F
:400140004D0308104D0308104D0308104D0308104D0308104D0308104D0308104D0308104D0308104D0308104D0308104D0308104D0308104D0308104D0308104D030810FF
:400180004D0308104D0308104D0308104D0308104D0308104D0308104D0308104D0308104D0308104D0308104D0308104D0308104D0308104D0308104D0308104D030810BF
:4001C0004D0308104D0308104D0308104D0308104D0308104D0308104D0308104D0308104D0308104D0308104D0308104D0308104D0308104D0308104D0308104D0308107F
:400200004D0308104D0308104D0308104D0308104D0308104D0308104D0308104D0308104D0308104D0308104D0308104D0308104D0308104D0308104D0308104D0308103E
:400240004D0308104D0308104D0308104D0308104D0308104D0308104D0308104D0308104D0308104D0308104D0308104D0308104D0308104D0308104D0308104D030810FE
:400280004D0308104D0308104D03081010B5054C237833B9044B13B10448AFF300800123237010BD4C490208000000004C3D0810084B10B51BB108490848AFF3008008482D
:4002C000036803B910BD074B002BFBD0BDE81040184700BF00000000504902084C3D081018430208000000007047FFF7FDFF72B6104C114DAC4209DA21686268A368043B0D
:40030000A2BFC858D050FAE70C34F3E70B490C4A00209142BCBF41F8040BFAE709480A490860BFF34F8F00F063FC00F03DFC00F023FBFEE7503D0810683D08104C490208D8
:40034000E84B02080040020808ED00E0FEE7FEE700B504207146084202D0EFF3098001E0EFF30880043002F0B3FBFEE710B5044620B940F2A551044802F09AFB21460348A7
:4003800001F0B4F810BD00BFFC3408100000664010B5054C054A0649204602F06DF9236843F00043236010BD000066405C4B0208C838081008B5264B984228D00DD8033BD1
:4003C000984215D002D800283FD039E0214B984213D00133984215D032E01F4B984220D01AD30133984221D00133984223D027E01A48FFF7BBFF002008BD1948FFF7B6FFBB
:40040000002008BD1748FFF7B1FF002008BD1648FFF7ACFF002008BD1448FFF7A7FF002008BD1348FFF7A2FF002008BD1148FFF79DFF002008BD1048FFF798FF002008BDBB
:400440000E48FFF793FF002008BD012008BD00BF0420AA000220AA000620AA004C3508108C350810C4350810D8350810003608102C3608105C3608109C3608102C3708102B
:4004800070B582B006460D46394B0093642300225721384801F07AFEFFF78CFF08B1012400E000243249334801F06EFEB0F5803FF8D054B12E4B0A2231462E4801F0D4FFE8
:4004C000FFF778FF18B1012402E0002400E000242749284801F058FEB0F5803FF8D064B1234B0093642301225721224801F0C6FEFFF760FF18B1012402E0002400E00024A0
:400500001B491C4801F040FEB0F5803FF8D064B1174B00930A232A460121164801F04AFFFFF748FF18B1012402E0002400E000240F49104801F028FEB0F5803FF8D04CB112
:400540000B4A64210B4801F003FFFFF733FF18B1012402E0002400E000240549054801F013FEB0F5803FF8D0204602B070BD00BF944B02080000644070B582B006460D46EB
:400580002C4B00936423002257212B4801F0FEFDFFF710FF08B1012400E000242549264801F0F2FDB0F5803FF8D054B1214B0A223146214801F058FFFFF7FCFE18B101243F
:4005C00002E0002400E000241A491B4801F0DCFDB0F5803FF8D054B1164B0A222946164801F042FFFFF7E6FE18B1012402E0002400E000240F49104801F0C6FDB0F5803F0A
:40060000F8D04CB10B4A64210B4801F0A1FEFFF7D1FE18B1012402E0002400E000240549054801F0B1FDB0F5803FF8D0204602B070BD00BF944B02080000644070B582B02D
:4006400005460E4614460DF10701FFF719FF08B1012300E000239DF8071021408DF8071033B131432846FFF787FF18B1012002E0002000E0002002B070BD00BF10B5002132
:400680000420FFF779FF044600210520FFF774FF2040C4B200210620FFF76EFF204010BD10B582B0BF2240210920FFF7C7FF0DF107010920FFF7E4FE9DF8073013B92A48D3
:4006C000FFF754FE1F2240210820FFF7B7FF0446102211460820FFF7B1FF2040C4B2F82203210920FFF7AAFF04409F2220210A20FFF7A4FF0440E3220C210A20FFF79EFF83
:400700000440FC2203210A20FFF798FF04400A210C20FFF731FF04401F210D20FFF72CFF044000210E20FFF727FF04401F211020FFF722FF0440F82201211120FFF77EFF4B
:4007400004408F2220211120FFF778FF0440FFF795FF04B118B90548FFF708FE02E00448FFF704FE02B010BD3C37081050370810703708102DE9F04184B0064617460DF158
:400780000F010620FFF77CFE04460DF10E010420FFF776FE204010F0FF0402D16F48FFF7E5FD9DF80F209DF80E309A4204D16C48FFF7DCFD0024CDE06A4DDFF8B081CDF8C9
:4007C0000080642300225721284601F0DFFCFFF7F1FD044043460A220721284601F044FEFFF7E8FD0440CDF80080642301225721284601F043FDFFF7DDFD044002D15A48CA
:40080000FFF7B4FD9DF80E809DF80F30B8EB030801D508F1200800258DE0544B00930A230DF10D0200214F4801F0C4FDFFF7C2FD04409DF80D30B3704C494A4801F0A4FC67
:40084000B0F5803FF8D0494B00930A230DF10D020021444801F0AEFDFFF7ACFD04409DF80D30737041493F4801F08EFCB0F5803FF8D03E4B00930A230DF10D02002139485A
:4008800001F098FDFFF796FD04409DF80D3033703649344801F078FCB0F5803FF8D0334B00930A230DF10D0200212E4801F082FDFFF780FD04409DF80D30BB702B492948F9
:4008C00001F062FCB0F5803FF8D0284B00930A230DF10D020021234801F06CFDFFF76AFD04409DF80D307B7020491E4801F04CFCB0F5803FF8D008F1FF311C4B00930A2375
:400900000DF10D028D4214BF00210121154801F051FDFFF74FFD04409DF80D303B701349104801F031FCB0F5803FF8D014B91048FFF71CFD0135A8453FF76FAF0B4A6421A3
:40094000084801F005FDFFF735FD044002D10948FFF70CFD204604B0BDE8F081A0370810D437081000006440E8370810944B0208203808104038081000B5C5B080221F4B69
:400980005A6062B6FFF704FD00F050F91C48FFF7EDFCFFF785FE194B1B6913F0400F03D04022164B5A6002E04022144B9A6041AA42A943A8FFF7DEFED0B19DF80E219DF8E5
:4009C0000D311B0243EA02439DF80C019DF806119DF80521120242EA01429DF8041103430A43084901A802F0E5F801A8FFF7BEFC4FF47A7002F050F8CDE700BF800532406E
:400A0000603808107438081008B5012000F0FCFC08BD00BF704700BF5C4AD2F8803303F00F0303F1D00152F8212002F00702032A04D0042A05D092B9554914E0554A116816
:400A400011E003F1C002514951F8222002F01F02112A06D0132A04D04FF4FA4103E04E4901E04FF400418BBB484BD3F8902502F00100D3F88825C2F30172D3F8883513F0A1
:400A8000405F07D0414BD3F88835C3F30173012B02D102E0012300E0002303B108B9032A46D13A48D0F88025C2F31103D0F88425C2F30C02D0F88005C0F300600130B1FB98
:400AC000F2F202FB03F2B2FBF0F131E0012B2FD12E4BD3F8402602F00100D3F80026C2F30172D3F8003613F0405F07D0274BD3F80036C3F30173012B02D102E0012300E0A3
:400B0000002303B108B9032A12D12048D0F8002602F07F02D0F80036C3F30423D0F80006C0F3044002FB01F2B2FBF3F2B2FBF0F1164BD3F88033C3F3011321FA03F215497D
:400B40004A601648D0F89030C3F3072301330069000E0130B2FBF0F08860B2FBF3F3CB600B6103F5742202F23F220D48A0FB0202C2F387420A7503F2E7330A4AA2FB032390
:400B80009B098B61DB03CB61704700BF0000264000127A008C42020800366E010000214083DE1B43D34D621008B50D4801F0F4FFFFF730FFFFF730FF00221146042000F037
:400BC000EBF9084800F07EFA074B1B6893F8513013B1064800F0E6FA00F028F908BD00BF5C3C081068490208E04B02088438081008B501F0CAFF074AD2F8883043F4700399
:400C0000C2F88830BFF34F8FBFF36F8F01F0C1FF08BD00BF00ED00E008B50249024801F01FFD08BD944B02080000644010B5144B1B788BB9134C144A1449204601F0AEF83D
:400C4000134A1449204601F0B7F91349134801F0E9FE01220A4B1A70104BB3F90030002B08DB590903F01F03012202FA03F30C4A42F82130034A136843F00043136010BDF2
:400C8000E84A020800006440944B02080839081084D71700A0860100190C0810C038081000E100E01F4B98422DD00CD840282ED003D8E8B1102828D02FE0802829D0B0F5E7
:400CC000807F28D029E0184B984228D006D8B0F1204F0DD0154B984212D01EE0144B98420AD00133984209D0023B984215D101E0002070470F4870470F4870470F48704701
:400D00004FF4A0007047074870470D4870470D4870470D487047034870470C4870474FF4A400704706005200010000F0090000A0040000F001005200020052000300520062
:400D4000010050000200500005005200FF00520038B5124B1B6893F83130012B04D840F2C3110F4801F0A4FE0C4B1D682A6AB5F8B03013442C46D5F8B420D358002B0BDBD4
:400D8000084B1868FFF78EFF6B6801229A6063689B68002BFBD138BD034838BDE04B02081C390810EC4A0208020050001A4B186128B102230370FF23437000234380174B53
:400DC0001B6893F850202AB300B583B0B3F93830ADF80030002301931149684601F022FEBDF90030002B08DB590903F01F03012202FA03F30B4A42F82130084B1B6893F836
:400E0000513023B102220849012000F077FA03B05DF804FB704700BFEC4A0208E04B02088943020800E100E04144020808B50248FFF7BCFF08BD00BF004B020838B50B4B7A
:400E40001B68D3F8B4301B58002B0DDA0D4604460B0C1B0423B140F2D521054801F028FEA9B26160002038BD024838BDE04B02085C39081001008A0038B50368002B01DA4D
:400E8000002300E0094B73B90D460446C2600B0C1B0423B140F2BB21054801F009FEA9B2A160002038BD014838BD00BF01008A005C39081038B504460D4619B99921084887
:400EC00001F0F6FD074B1B68D3F8B4301B59002B03DAE3682B60002038BD034838BD00BF9C390810E04B020801008A00254B1B6893F8313083423AD900293AD00B6813F017
:400F00001F0F38D170B50D4604461E4B1B6893F83130984204D340F2C3111B4801F0C8FD184B1B68186AB3F8B03004FB0304174E34602A68D2080021686801F033FE00217E
:400F40002046FFF77BFF346825B940F293310E4801F0AEFD2A4600212046FFF78DFF60B900210A4B1868FFF769FF40B970BD084870470748704706487047064870BD054853
:400F800070BD00BFE04B02085C390810044B020803018A0001018A0010B504461346B2B9A9B9124B1B6893F83130984204D340F2C3110F4801F07CFD0C4B1B681A6AB3F86E
:400FC000B03004FB03240B4B1C60002010BD43B149B1084A51609360111D2046FFF786FF10BD054810BD044810BD00BFE04B02085C390810044B020803018A002DE9F0416A
:401000001B4B1B68DC68236883422CD90D464609A0EB4610012303FA00F819B901F0B5FD074600E00027124B18680368002B01DA002300E00F4B83B9626852F8263018EA76
:40104000030F05D023EA080342F82630002400E0094C0021FFF7F2FE00E0084C25B9384601F097FD00E0064C2046BDE8F08100BF044B020801008A00020188000301880004
:4010800004018A000B4B1B68DB681A6882420CD94109A0EB4110012202FA00F05B6853F82130184203D004487047044870470448704700BF044B02080101880004018A005F
:4010C00000018800024B1B680BB9014B18607047104B02082DE9F8430446884691461D46089F2C4B1B681BB9B5212B4801F0E0FC284B1B682C2000FB04F01C18EEB21E5052
:40110000C5F3072363602D0CA560244B1B6893F831309E4204D340F2C311214801F0C8FC1E4B1B68196AB3F8B02006FB02162661666893F832309E4204D340F2DF11184895
:4011400001F0B6FC154B1B681D6A803605EB46156561A668330C1B0423B14FF4FF71104801F0A6FC330C1B0423B140F2FF110C4801F09EFCB3B243EA0646AE60C4F81C9016
:40118000C4F820800023A36117B1B7F90030A381BDE8F883104B0208DC390810E04B02085C390810F0B58FB0044618B95221274801F07EFCA369072B03D95621234801F013
:4011C00077FCE36A1BB95821204801F071FC236B1BB959211D4801F06BFC07AD04F114060FCE0FC537682F6002AD26460FCE0FC533682B60164B1B68B3F93620079B134410
:40120000ADF83030089B0D93A26AE16A0CAD00953B460A98FFF75EFF00210091069B0A460598FFF757FF216B284601F0FBFBBDF93030002B08DB590903F01F03012202FA24
:4012400003F3044A42F821300FB0F0BDDC390810E04B020800E100E0F8B506460F461D4614461AB9FD211F4801F022FC1E4B1B681BB9FE211B4801F01BFC1B4B1B682C211E
:4012800001FB063001FB07314B68012202FA03F31B04466802FA06F60269EAB18F69EFB91268002A01DA002200E0104AC2B92288134323600369DC6001238B614D620469E8
:4012C000330C1B0423B140F2BB21094801F0F0FBB2B2A2600020F8BD0648F8BD0648F8BD0548F8BDDC390810104B020801008A005C39081004028A0007028A00F8B5054659
:401300000F4616460E4B1B6823B94FF4AF710D4801F0CEFB0A4B1B682C2404FB0534236A23B94FF4B171074801F0C2FBE369B34204D9236A43F826700020F8BD0248F8BD57
:40134000104B0208DC3908100A028A0070B582B000230193044620B940F2D111284801F0A7FB236923B94FF4E971254801F0A0FB636923B940F2D311214801F099FB236AC6
:4013800023B94FF4EA711E4801F092FB6369DD682A0C20D012041A601B682069194B1B68D3F8B430C358002B15DA01A9FFF782FD60B9019803681E0CDBB2E269934206D246
:4013C000226A52F8233013B1984700E0002631462069FFF733FDADB275B16369ADB21D601B68636A1BB198470023636202E0A36A03B198470023A36163691B6802B070BD0E
:40140000DC390810E04B020810B50446074B1B6823B940F2B111064801F04AFB034B1B682C2000FB0430FFF791FF10BD104B0208DC39081010B4D0F8003303F00F03072BEB
:4014400006D900230DE0D0F84043CC54013300E000239342F7D306E0D0F8404321F8134001339342F8D35DF8044B704710B51446D0F80833C3F308039A4200D31C46224614
:40148000FFF7D8FF204610BD10B4D0F8003203F00F03072B06D900230DE0CC5CC0F84042013300E000239342F7D306E031F81340C0F8404201339342F8D35DF8044B704745
:4014C00010B51446036813F4006F01D0802200E04022D0F80832C3F30803D31AA34200D81C462246FFF7D0FF204610BD30B4036813F4006F01D0802200E04022002408E082
:40150000D0F80832C3F308039A42F9D0C0F8405201340D5D002DF3D130BC704702E0C0F84012013A002AFAD1704700BF10B51446036813F4006F01D0802200E04022D0F8B7
:401540000832C3F30803D31AA34200D81C462246FFF7E4FF204610BD10B5546841F201039C4236D1D0F80833C3F30803DBB1137893B1136A43F040031362D0F8043343F496
:401580008033C0F80433D0F8043323F48033C0F80433D0F8043306E029B9136A43F040031362D0F84033136A43F020031362136A23F010031362036E23F420430366002390
:4015C000C0F8C83F0123C0F8C03FD0F8C03F202121E0D0F80832C3F30801D0F80832C3F3C0330B44116BC91A5163116A11F0080F05D1D16A1944D162916ACB1A9362136AF4
:4016000043F004031362136A23F0010313620023C0F8883F1021D0F84C4F40F201131C420DD0036823F00043036000238366C366036843F000430360036841F040014FF082
:4016400080535360536C0BB10846984710BD00BFD0F80C3F13F0020F1DD00222C0F8002FD0F8002FD0F8002F12F0040F02D04FF4001001E04FF480108A6802438A604A68E2
:40168000B2F5B81F07D00A7B12B14FF4C01201E04FF4B0124A6013F4807F03D08A6842F400028A6013F0010F03D08A6842F480028A6040F21112134202D04FF4C0134B6044
:4016C000704700BF0023C0F8C83FC0F8883F836E23B140F21713C0F8083F704740F21313C0F8083F182383664FF4B8134B60704738B5D0F80C4F036E23F48073036600233A
:40170000C0F8C83FC0F8883FC0F8083F40F21713C0F8003FD0F8003F8B6823F480338B604B7B13B18B69CB610BE08D69D0F80822C2F30802D0F80832C3F3C0331344EB1A27
:40174000CB6140F201131C421BD0036E9B0F032B05D114F4827F14BF0123002300E001235BB1036823F00043036000238366C366036843F00043036003684FF080534B6097
:401780001BE00B7893B1D0F8043343F48033C0F80433D0F8043323F48033C0F80433D0F804330123C0F8C03FD0F8C03F0B7B0BB10B4B01E04FF080534B604A6C72B14B7B61
:4017C00013B14FF4802001E04FF400308B6813F0F87301D04FF400231843904738BD00BF000010100346002940DB11F0C00F06D0002181664FF0805050602F4844E011F4B6
:40180000807F36D111F0010F0ED050682B49884232D1196E11F0804F0CBF012100214FF08050506026482FE011F0020F06D050682249884223D10021224825E011F0100FA0
:4018400005D04FF080515160002108461CE050681A49884216D1517B11B14FF4881101E04FF4A0115160002108460DE0012116480AE00121154807E00121114804E00021FF
:40188000134801E00021084679B1196821F00041196000219966D966196841F0004119601B684FF080535360704740F21712C3F8002FD3F8003F70470820AA000000131042
:4018C0000620AA000420AA000320AA000720AA000520AA00036853B110B50446012001F0DBF82368013B23601BB1002010BD002070474FF0004010BD70B505460C4691F809
:40190000243013F0FF0F0ED1CB6A63B94B6C0BB108209847E36AB3FA83F35B0984F824300123C5F8883F94F8243013F0FF0F16D063783BB12B6813F4006F01D0802202E050
:40194000402200E00122FF212846FFF7EFFD236B18442063236A43F00803236270BDE26A012A11D963780BB1013A00E00122A16A2846FFF7A5FD236B03442363E36A1B1A84
:40198000E362A36A1844A062D5F80832C3F30803802B23D0E36A012B20D101F0F6F8A36A1B78C5F840324026C5F8806FD5F8803F01F0EFF8236B013323630023E362A36AC6
:4019C0000133A362C5F8886F63783BB1236A43F002032362636C0BB10420984770BD00BF38B54B68B3F5A81F03D14FF4C0134B6038BD4B68B3F5A01F4DD10C4605464A694E
:401A0000012A11D94B780BB1013A00E0012221692846FFF755FDA3690344A36163691B1A6361236903442361D5F80832C3F30803802B14D06369012B11D101F0A6F82369D5
:401A40001B78C5F840324023C5F8803FD5F8803F01F09FF8A3690133A361002363616369CBB9237B33B14023C5F8883F4FF4A813636005E00023C5F8883F4FF4B0136360B7
:401A8000637843B1A36843F40033A360636C13B14FF48030984738BD70B504460D468A6C82B3036813F4803F06D0D0F84C3F13F0400F03D0022002E0002000E00020236E64
:401AC00013F4006F06D1D4F84C3F13F0800300D001231843C0B190470123C4F8C03FD4F8C03F024648B91023C4F8403FD4F8403F40F2D113C4F8483F07E040F2C113C4F877
:401B0000483F02E0002200E00022D4F8043243F48033C4F80432D4F8043223F48033C4F80432D4F804320AB9012300E00223E366002A59D1666E06F010066B6C23B10EB1A7
:401B4000012000E0022098477EB141F202036B602B6A43F001032B626B6B2B63002385F824300123C4F8883F70BD41F201036B602B6A43F010032B620123C4F8C83F2B78B8
:401B8000BBB1EB6BBBB1236E43F400532366ED6B802D05D9A5F18003802B0ED8813D0DE0013D236E43F4004323660023C4F8C83F04E0002502E0002500E03F25236813F47D
:401BC000006F01D0802300E040239D4204D34FF42371064800F06CFFD4F8043323F0FF03EDB21D43C4F8045370BD00BF1C3A081038B54B68B3F5881F03D0B3F5901F1AD002
:401C000038BD0B69D0F840231A708B6901338B614B69013B4B612BB10B6901330B610423836638BD0B7B13B14FF4C01301E04FF4B0134B6038BD0C4605464A690969FFF742
:401C400015FCA3690344A36163691B1A6361226910442061012B24D82B6E23F480732B666369012B16D12B6813F4006F01D0802300E0402323B94FF42371184800F018FFC2
:401C8000D5F8043323F0FF03C5F804334FF48813636038BD0023C5F8C83F4FF4B013636038BD402B01D89C1E00E03F242B6813F4006F01D0802300E040239C4204D34FF4E3
:401CC0002371064800F0F4FED5F8043323F0FF02E3B21343C5F8043338BD00BF1C3A081038B5CB6B002B50D00B78002B3FD00C460546D0F80423D2B20132896BFFF7B6FBFE
:401D0000236C03442364E36B1B1AE363A26B1044A063802B06D9A3F18002802A0FD8A3F181040DE02B6E43F400432B66E36B0BB15C1E00E000240023C5F8C83F00E03F248C
:401D40002B6813F4006F01D0802300E040239C4204D34FF42371104800F0AAFED5F8043323F0FF02E3B21343C5F8043338BD0123C3668A6B0B6CD0F84003D0540B6C0133A8
:401D80000B64CB6B013BCB6338BD0223C3660023C0F8C83F38BD00BF1C3A0810F8B50B78012B03D00C7A1CB9002702E0002700E00127002800F0A780002900F0A680002A63
:401DC00000F0A58016460C460546013BDBB2022B03D950214F4800F06BFE637803B163791BB151214B4800F063FE94F90330002B03DA5221474800F05BFE237913F0010F53
:401E000003D05321434800F053FE2369102B03D95421404800F04CFEE368102B03D955213C4800F045FE637913B14FF4803100E00021E27912B14FF4807300E000230B43EC
:401E400043F400632B60A37913B94FF4006300E000232269013A02F00F021A43E368013B1B01DBB21343227843EA82732B6617B140F2073301E040F20713C5F800330FB1A2
:401E8000254B00E0254B2B6763780BB17F2300E00023C5F80433E3785B00DBB2227943EA0243C5F810331E4BC5F80032A3780BB1402300E00123C5F804320023C5F8C83EE1
:401EC000C5F8883EC5F8C83FC5F8883FC5F8083F2378022B02D040F2D11300E00023C5F8483F63783370A37873704FF0805373600020B060B06130623064F0633063F0621C
:401F00007064B064F8BD0748F8BD0648F8BD0548F8BD00BF603A081003002A0013102A00070101000120AA0038B505460C4621B94FF43171194800F0BBFD2B6E9B0F012B7B
:401F400017D1174B2344174A93421ED9A4F5BD13A3F5D66302F5611202F56162934216D9A4F57104A4F533440F4B9C4211D80F4838BD84B1286EC0F303102B6E03F00F03A7
:401F800018440230B4FBF0F038BD094838BD094838BD002038BD002038BD00BF603A081020AD88FF405B730040555C0440420F00801A0600A08601002DE9F84307468846CD
:401FC000914622B940F21321624800F071FD08F1FF34614B9C4204D94FF405715D4800F067FD3B6E9B0F012B0DD149463846FFF79BFF0546D7F8003323F40073C7F80033B9
:40200000564B3B67A2E0544B9C421FD8544B984509D8A9F5BD13A3F5D663524A934218D90021012328E0504B984507D84F4B4B444F4A934213D9002101231DE04D4B4B44D9
:402040004D4A934212D90021012315E00021012312E0002141F288352E460B460CE000214FF461754FF4C8660B4605E001214FF4BE754FF41B760023002B66D13F4BB3FBCC
:40208000F9F3B6FBF3F404FB03F2964200D90134102C00D910240F2C8CBF00220122B5FBF3F606FB03F39D4200D90136102E00D91026A519B9FBF5F50FE022B10F2C09D8A8
:4020C0000134002206E00F2E04D801360F2C8CBF00220122A519B9FBF5F5454502D9A3191F2BEAD941B1D7F8003343F40073C7F80033234B3B6707E0D7F8003323F40073EB
:40210000C7F80033154B3B67E31F092B04D940F28D511C4800F0CCFC3B6E23F0F003013C2401E4B223433B66731F0B2B04D940F2AA51144800F0BCFC3B6E23F00F03013EDB
:4021400006F00F061E433E6600E000252846BDE8F88300BF603A08103F420F0013102A00A0860100502D1900801A060020AD88FFA0432100807E25FFC02BAF0000CA9A3B5E
:4021800003002A00A03A0810886870472DE9F04182B005460C4617469846089E11F0800F04D040F2C961314800F082FC304B984504D940F2CA612D4800F07AFC012F04D941
:4021C00040F2CB61294800F073FC0023C5F8483F7368B3F1805F41D14FF47A7303FB08F30193244B7360012F14BF00230123737340F21713C5F8003FD5F8003F0423C5F863
:40220000C03FD5F8C03FD5F8043243F48033C5F80432D5F8043223F48033C5F80432D5F804326400E4B23C43C5F840420223AB66D5F8004F24F0F804E405E40DD5F8403FF0
:4022400003F0C0031C4301A8FFF744FB54EA0001EED032462846FFF7C5FA00E0064840F2D113C5F8483F02B0BDE8F081603A081037894100000013100220AA002DE9F0419A
:4022800082B005460F4614469846089E11F0800F04D040F22A712A4800F00AFC294B984504D940F22B71264800F002FC012C04D940F22C71224800F0FBFB736813F4801FD3
:4022C00039D04FF47A7303FB08F301931E4B7360012C14BF0023012373736B6E13F0200F01D0092300E00123AB666B6E13F0200F05D0002009E001A8FFF7ECFA00E0002024
:4023000018B9AB6E13F0010FF5D170B97F00FFB23C43C5F84042D5F8000F40F20714044001A8FFF7D7FA2043F5D0324601462846FFF758FA00E0054802B0BDE8F08100BF95
:40234000603A081037894100000013100220AA0070B582B005460C461646134B994204D940F28D71114800F0A3FB736813F4801F17D04FF47A7303FB04F401941823AB66CF
:40238000D5F8004F24F0EE04E405E40D01A8FFF7A1FA54EA0001F3D032462846FFF722FA00E0034802B070BD37894100603A08100220AA002DE9F04383B0074688461C466B
:4023C0000A9D914622B940F2D971244800F070FB234B9C4204D940F2DA71204800F068FBB8F1010F04D940F2DB711C4800F060FB6B68B3F5881F2BD14FF47A7303FB04F4D9
:402400000194D7F8C06F06F00406D7F8001F40F201140C4001A8FFF75DFA44EA00010EB90029EED046B1D7F8403389F800300523C7F8C03FD7F8C03F2A463846FFF7D2F968
:40244000034630B9B8F1000F03D10422BA6600E0044B184603B0BDE8F08300BF603A0810378941000220AA00F0B583B005460F4614461E46134B9A4204D940F633011248B1
:4024800000F016FB7368B3F5A01F17D14FF47A7303FB04F40194C5F84072D5F8004F24F0F804E405E40D01A8FFF714FA54EA0001F3D032462846FFF795F900E0034803B0CA
:4024C000F0BD00BF37894100603A08100220AA00F8B504460E46D0F88C3E13F0010F07D04FF480534B600123C0F8803ED0F8803ED4F84C5F40F201131D420FD0336A15F4A8
:40250000807F02D04FF4807200E08022134333620023C4F8C83F45F010050EE015F0100F0BD0D4F80833C3F3080333B1F36B23B10123C4F8C43FC4F8C83FD4F8CC3F13F0AD
:40254000010F17D0236813F4803F07D0062000F0A3FAD4F84C7FC7F3801700E0002757B931462046FFF7BCFB0123C4F8C03FD4F8C03F00E0002715F0100F0BD03246394659
:402580002046FEF7E9FF1023C4F8403FD4F8403FD4F84C5F15F0C00F0DD031462046FFF77BFA0123C4F8803ED4F8803EC023C4F8403FD4F8403FD4F88C3F13F0410F08D05C
:4025C00031462046FFF798F90123C4F8803FD4F8803FF8BD70B506460D46D0F8004E14F0020F0AD0836E2BB1002383668B6843F080738B604FF4C0136B6014F0010F05D028
:4026000029463046FFF724F824F0040414F0080F08D029463046FFF7EBFA0123C6F8C03FD6F8C03F14F0040F08D029463046FFF7D7F90123C6F8803FD6F8803F6B68B3F5E3
:40264000C01F03D129463046FFF752F86B68B3F5B01F03D129463046FFF734F870BD00BF08B54B6813F4801F02D0FFF7B3FF08BDFFF72EFF08BD00BF002800F0A48170B513
:402680000546002900F0A18116460C460B78022B03D93F21A24800F00BFA637B023BDBB2062B03D940219E4800F002FAA37B3BB1022B05D0032B03D04121994800F0F8F902
:4026C00094F82130012B03D94221954800F0F0F994F82830012B03D94321914800F0E8F92378012B06D86368083B082B94BF0023012307E0A37F2BB16368013B062B94BFF2
:40270000002301231BB14521854800F0D1F9A368053B042B03D94621814800F0C9F96369FF2B03D947217E4800F0C2F9A369FF2B03D948217A4800F0BBF9A37C6BB12378FF
:4027400033B9A368092B05D1A37B2BB1012304E0012302E0012300E000231BB14A21704800F0A6F9636B23F4366323F00D031BB14C216B4800F09CF9E36B23F4EE6323F0D0
:4027800003031BB14D21664800F092F92378022B01D1A37F13B16268013A00E00022237F13B14FF4803100E00021A368082B02D84FF4006300E000230B4302F00F02134366
:4027C00043F000732B60226B2B6813F4006F01D0802300E040239A4203D36221504800F067F9A26B2B6813F4006F01D0802300E040239A4203D36321494800F059F9626A9C
:402800002B6813F4006F01D0802300E040239A4203D36421424800F04BF923781B0603F040732B64637F0BB1402200E00022A37C13B14FF4806300E000231343227C12B12D
:402840004FF4807200E000221343627C12B14FF4007200E000221A43E36A013B1B0403F470231343627B013A02F007021343A27B120102F030021343AB64237B13B14FF4C7
:40288000807200E00022E37B23B92378022B03D1012302E0012300E0002313B14FF4007300E000231A43A368013B03F00F031343C5F80033227DA3691B0403F47F0313431C
:4028C000C5F81033E26AD5F8003303F00F0303339A4201D3102A03D97A21114800F0E8F8E37F23B12378012B03D0002302E0002300E0012313B14FF4807200E00022637BF2
:40290000013B03F007031A43A37B1B0103F0300313436B64237B2BB14FF4807203E000BF203B08100022A368013B03F00F0313432278012A02D14FF4803200E0002213430F
:40294000C5F8003294F83030C5F8043394F8203013B14FF0007200E0002294F82130012B02D14FF0807300E00023134394F82820012A02D14FF4803200E00022134394F823
:40298000242013432B6594F83830C5F80432636B23F4926323F002031B051B0DC5F8C83FE36B23F08C035B055B0DC5F8883F76B1002070603060B060F0603062F06230634E
:4029C000044B736370BD04487047034870BD002070BD00BFEFCDAB000160AA0038B50D4B9A680D4B9A420FD10D46044621B940F237110A4800F05CF804F11003064A52F808
:402A0000230042F8235038BD1030054B53F8200038BD00BF00ED00E000400208603B08100000081048B338B504460D464368072B03D93221134800F03BF8B4F9003062688A
:402A4000002B08DB5201D2B203F1604303F5614383F8002305E003F00F035201D2B20A49CA540A4B9A680A4B9A4208D12946B4F90000FFF7B3FF002038BD0648704700200F
:402A800038BD00BF603B081014ED00E000ED00E0004002080100560008B5034B1B7800FB03F000F069F808BDA042020801BEFEE738B50D46044C18220146204600F09EF831
:402AC000A5610020FFF7F2FFB8480208FEE700BF08B50268254BDA6142681A6282685A62C2689A620269DA6242691A6382695A63C2699A631E4A916AD963D16A1964516AA6
:402B00005964516B9964926BDA64F1EE103A13F0900F27D0026A154B1A65426A5A65826A9A65C26ADA65026B1A66426B5A66826B9A66C26BDA66026C1A67426C5A67826C16
:402B40009A67C26CDA67026DC3F88020426DC3F88420826DC3F88820C26DC3F88C20026EC3F89020FFF7B2FF08BD00BFB848020800ED00E0000000000230800803D001308A
:402B80000238FCD100BF00BF7047EFF3108072B6704780F310887047014B1860704700BFE04B020802440346934202D003F8011BFAE770470EB400B59CB04FF402711DAB31
:402BC000ADF81410029006906FF000410A48049107914FF6FF7153F8042BADF816100068019302A900F076F8029B00221A701CB05DF804EB03B070470C43020810B503469C
:402C000042B111F8014B03F8014B013A002CF7D11A4400E010BD934202D003F8014BFAE710BD2DE9F0478E689E4282460C46914698463ED88A8912F4906F3AD02568096906
:402C40006F1A6569022305EB450595FBF3F57B1C43449D4238BF1D4653050FD5294600F093FB064698B13A46216900F019FBA38923F4906343F08003A38113E02A4600F0A0
:402C8000E1FB064670B92169504600F02FFB0C23CAF80030A38943F04003A3814FF0FF30BDE8F087266165613E44ED1B2660A5604646464528BF464632464946206800F0AD
:402CC000FAFAA3689B1BA36023681E4426600020BDE8F0872DE9F04F9DB0804603938B891C060D4616460DD50B695BB9402100F04BFB2860286118B90C23C8F80030CDE0DB
:402D000040236B610023099320238DF82930DFF89CB130238DF82A3037463C4614F8013B1BB9B7EB060910D003E0252BF9D02746F3E74B46324629464046FFF772FF0130A9
:402D400000F0A780099B4B4409933B78002B00F0A08000234FF0FF3204930793059206938DF853301A930126052221784E4800F047FA671C049B38B14B4A801A06FA00F0FE
:402D8000184304903C46EFE7D90644BF20228DF853201A0744BF2B228DF8532022782A2A03D0079A00210A200BE0039A111D12680391002A10DA524243F0020007920490CC
:402DC0000BE0274601343B78303B092B03D800FB02320121F5E701B107923B782E2B1ED17B782A2B0AD1039B1A1D1B680392002BB8BF4FF0FF330237059310E00023059307
:402E0000781C19460A24074601303A78303A092A03D804FB01210123F5E703B1059103223978224800F0ECF940B14023CBEB000003FA00F0049B18430490013739781C4877
:402E40008DF8281006227E1C00F0DAF988B1194B33B9039B073323F007030833039314E003AB00932A46144B04A94046AFF3008007E003AB00932A460F4B04A9404600F053
:402E800093F8B0F1FF3F824603D0099B5344099342E7AB895B0601D4099801E04FF0FF301DB0BDE8F08F00BF163D08101C3D0810203D081000000000232C08102DE9F047FE
:402EC00091461F460A698B68DDF820809342B8BF1346C9F8003091F8432006460C4612B10133C9F800302368990642BFD9F800300233C9F80030256815F0060510D104F1EE
:402F0000190A07E00123524639463046C04701301AD00135E368D9F800209B1A9D42F1DB94F843302268003318BF012392060FD5E1185A1C302081F84300224494F84510ED
:402F400082F84310023303E04FF0FF30BDE8F08704F1430239463046C0470130F4D02268D9F80050E36802F00602042A08BF5D1B2269A3680CBF25EAE57500259342C4BF13
:402F80009B1AED184FF000091A344D4509D00123224639463046C0470130D5D009F10109F3E70020BDE8F0872DE9F04317460A7E85B06E2A984606460C460C9B01F1430E7D
:402FC00000F0AE8011D8632A22D009D8002A00F0BB80582A40F0CA8081F84520834955E0642A1ED0692A1CD0C0E0732A00F0B08009D86F2A2ED0702A40F0B8800A6842F0C4
:4030000020020A603EE0752A24D0782A3AD0ADE01A6801F14205111D1960136884F84230A8E021681A6811F0800F02D0111D196008E011F0400F02F10401196002D0B2F98D
:40304000003000E01368002B3CDA2D225B4284F8432037E021681A6811F0800F02D0111D196007E011F0400F02F10401196001D0138800E01368227E5C496F2A14BF0A2242
:4030800008221BE078225A4984F845202268186812F0800F00F104051D6003D1550601D5038800E00368D00744BF42F0200222601BB9226822F0200222601022002084F84E
:4030C000430001E049490A226568A560002D08DB206820F0040020602BB9002D7DD175460CE0002B79D07546B3FBF2F002FB1033CB5C05F8013D03460028F5D1082A0BD144
:403100002368DA0708D5236962689A42DEBF302305F8013C05F1FF35C5EB0E0323612EE008681A68496910F0800F03D0101D1860136808E010F0400F02F104001860136826
:4031400001D0198000E0196000232361754616E01A68111D1960156862680021284600F04FF808B1401B6060636804E004F1420584F8422001232361002384F84330CDF8E2
:4031800000803B4603AA21463046FFF797FE013002D14FF0FF3026E023692A4639463046C0470130F5D023689B0710D5002504F1190907E001234A4639463046C04701307D
:4031C000E7D00135E368039A9B1A9D42F2DBE068039B9842B8BF184605E00B7884F8423004F142058AE705B0BDE8F083273D0810383D08100000000000000000000000002B
:4032000001F0FF01102A2BDB10F0070F08D010F8013B013A8B422DD010F0070F42B3F6D1F0B441EA012141EA014122F007047FF000070023F0E80256083C85EA010586EAE7
:40324000010685FA47F5A3FA87F586FA47F6A5FA87F68EB9EED1F0BC01F0FF0102F0070232B110F8013B013A83EA010313B1F8D10020704701387047002D06BF354603382D
:40328000073815F0010F07D1013015F4807F02BF013015F4C03F0130F0BC0138704700BF10B5431E0A44914204D011F8014B03F8014FF8E710BD884210B501EB020301D863
:4032C000421E0BE09842FBD28118D21AD34204D013F8014D01F8014DF8E710BD994204D011F8014B02F8014FF8E710BD38B50546002946D051F8043C0C1F002BB8BFE4185F
:4033000000F0D6F81F4A1368114613B96360146032E0A3420ED92268A018834204BF18685B68636004BF121822600C6024E0A24203D813465A68002AF9D118681918A142A2
:403340000BD12168014458188242196014D1106852685A60014419600EE002D90C232B600AE021686018824204BF10685268626004BF091821605C602846BDE8384000F0E2
:4033800098B838BD544B020870B5CD1C25F0030508350C2D38BF0C25002D064601DBA94202D90C23336046E000F082F8234B1C681A462146A1B10B685B1B0ED40B2B03D901
:4033C0000B60CC18CD501EE08C420DBF63684B686360136018BF0C4615E00C464968E9E7174C23681BB9304600F052F820602946304600F04DF8431C18D0C41C24F00304D6
:40340000A0420DD12560304600F053F804F10B00231D20F00700C31A0ED05A42E25070BD211A304600F034F80130EBD10C233360304600F03EF8002070BD00BF544B0208BC
:40344000504B0208F8B5074615460E4621B91146BDE8F840FFF798BF1AB9FFF747FF2846F8BD00F027F885420ED929463846FFF78BFF044650B131462A46FFF711FF314698
:403480003846FFF733FF01E03046F8BD2046F8BD38B5064C002305460846236000F014F8431C02D1236803B12B6038BDE44B02087047704751F8040C0028BEBF091851F8C5
:4034C000043CC01804387047044A05491368002B08BF0B461844106018467047584B0208E84B0208F8B500BFF8BC08BC9E467047F8B500BFF8BC08BC9E46704747656E651F
:4035000072617465645F536F757263655C50536F43365C70646C5C647269766572732F7065726970686572616C2F7363622F63795F7363625F756172742E68002D0000008B
:40354000257325642E253034640000004F6E65206F72206D6F726520696E76616C696420706172616D657465727320776572652070617373656420746F20746865206675EC
:403580006E6374696F6E2E0A0D000000546865206D6173746572206973206E6F7420726561647920746F2073746172742061206E6577207472616E73616374696F6E2E0A92
:4035C0000D0000004D61737465722074696D656F75740A0D00000000536C61766520646964206E6F742061636B6E6F776C656467652074686520616464726573730A0D0035
:40360000536C61766520646964206E6F742061636B6E6F776C6564676520746865206461746120627974650A0D0000004D6173746572206C6F73742061726269747261745C
:40364000696F6E2E205472616E73616374696F6E2061626F727465640A0D00004D617374657220646574656374656420657272656E6F7573207374617274206F7220737461
:403680006F702E205472616E73616374696F6E2061626F727465640A0D000000546865206D6173746572207472616E73616374696F6E207761732061626F727465642061BF
:4036C0006E642074686520736C617665207472616E73616374696F6E206973206F6E2D676F696E6720626563617573652074686520736C617665207761732061646472653D
:4037000073736564206265666F726520746865206D61737465722067656E65726174656420612073746172742E0A0D00556E6B6E6F776E206572726F720A0D005265736577
:4037400074207375636365737366756C0A0D0000416E206572726F72206F63637572656420647572696E672073657475700D0A005365747570207375636365737366756CDE
:403780000D0A00004572726F7220696E2072656164696E672066726F6D205050470A0D004572726F722072656164696E672066726F6D204649464F20524541442F5752498C
:4037C000544520505452207265676973746572730A0D00004E6F206E65772073616D706C65730A0D000000004572726F7220696E697469616C697A696E6720636F6E6E6550
:403800006374696F6E20746F204649464F20444154412072656769737465720A0D0000004572726F722072656164696E672066726F6D204649464F20444154410A0D0000E1
:403840004572726F722073746F7070696E67207472616E73616374696F6E0A0D0000000048656C6C6F20576F726C642C205050470A0D000049523A25642C205265643A2543
:40388000640A0D000300000001000000010000000000000005036000040000000100000000000000010000000604600008000000C84A0208090A08102E000000070000002C
:4038C0002C00000007000000000000000C0000000800000000020000000000000000000000000000000000000000000000000000000000000B000000000000000000000074
:403900000000000000000000020000000000000000000000000000000000000047656E6572617465645F536F757263655C50536F43365C70646C5C647269766572732F70A9
:4039400065726970686572616C2F6970632F63795F6970635F6472762E68000047656E6572617465645F536F757263655C50536F43365C70646C5C647269766572735C7030
:4039800065726970686572616C5C6970635C63795F6970635F6472762E68000047656E6572617465645F536F757263655C50536F43365C70646C5C647269766572735C7096
:4039C00065726970686572616C5C6970635C63795F6970635F6472762E63000047656E6572617465645F536F757263655C50536F43365C70646C5C647269766572735C705B
:403A000065726970686572616C5C6970635C63795F6970635F706970652E630047656E6572617465645F536F757263655C50536F43365C70646C5C647269766572735C70B8
:403A400065726970686572616C5C7363625C63795F7363625F636F6D6D6F6E2E6800000047656E6572617465645F536F757263655C50536F43365C70646C5C647269766551
:403A800072735C7065726970686572616C5C7363625C63795F7363625F6932632E63000047656E6572617465645F536F757263655C50536F43365C70646C5C6472697665F0
:403AC00072735C7065726970686572616C5C7363625C63795F7363625F6932632E68000047656E6572617465645F536F757263655C50536F43365C70646C5C6472697665AB
:403B000072735C7065726970686572616C5C7363625C63795F7363625F756172742E680047656E6572617465645F536F757263655C50536F43365C70646C5C6472697665AC
:403B400072735C7065726970686572616C5C7363625C63795F7363625F756172742E630047656E6572617465645F536F757263655C50536F43365C70646C5C647269766571
:403B800072735C7065726970686572616C5C737973696E745C63795F737973696E742E63000000000000204000002440000000400000000000002340000030400000314078
:403BC00000009F40000022400000104002020202020202020210101D800017007500FF030602063604102000000000007FC0000000040000000000000019324B647D008025
:403C00004000080B100000000000FF012002001F00800004FF081018001000140018001C4044484C50000000081000000800000004000000041000000012000004210000FE
:403C4000002100000016000040114002C41300138013A013200000001C0000000000214000002540000001400000344000002440000031400000324000001F410000234089
:403C800000001140010101010101010101101010800019005500F0000501053B04101C01010000000FC000000004000001010101011D3A577896000820001012080000003E
:403CC000001F00000010000F002000023F06080E00080009000A000B24282C3034000000100000009000000088000000080000008000000004F0000000F000004002000031
:403D00002005A000D00100018001A00120000000100000004300232D302B2000686C4C0065666745464700303132333435363738394142434445460030313233343536372A
:403D40003839616263646566000000000000000000000810004002088C020000703D08108C4202082C0600004C4902089C0200000048E80100127A0000093D0000127A00F2
:403D800000127A0008000000401F00000000A00F0000000000000000000000000000000000000000000000000000000000000000143D0810000000000000000000000000F8
:403DC000000000000000000000000000000000000000000000000000000000000000000000000000000000000000000000000000AC420208B10208108D0208100000000059
:403E000080B2C10050B3164B1B681A6AB3F8B030C3EBC303D358002BF5DA3E22114B1A6041F61E7204331A60A3F584730622C3F8182521F07F41C3F81C15D3F81C35084B77
:403E40001A68116AB2F8B030C3EBC3030B4400225A60054BD3F81C35002BFADA704700BFE04B02080401264000002640F8B5274B1B6893F83130052B04D840F2C311244829
:403E800000F074FA214F3A68166AB2F8B03003EB83031E4452684FF26003D458A4B200F055FA05463B681968D3F890208A58013C032C27D8032A0CD1164A127812F0FF0F58
:403EC00007D10822B2601968D3F890208A58032AF9D01968D3F884208B588858C0F307221B0E581C02FB00000B4B03FB00F00B4B1B680B4AA2FB03239B09B0FBF3F0823098
:403F0000FFF77EFF284600F041FAF8BDE04B02081C3908100B00001640420F0090420208D34D62104378FF2B23D110B500F00EFA0446104B1B6893F83130042B04D840F217
:403F4000C3110D4800F012FA0A4B1A68136AB2F8B02003EB8203DB685A68136843F001031360136813F0010FFBD1204600F00EFA10BD7047E04B02081C3908102DE9F04786
:403F800007468846554B1B6893F83130012B04D840F2C311524800F0E9F9504B1B681C6AB3F8B0201444D3F8B420161993F85030002B79D04B4B1B7813F0FF0F02D04FF04E
:403FC000000901E04FF00109B9F1000F38D0434B1B6893F83130052B04D840F2C311404800F0C4F93D4B1A68116AB2F8B03003EB83030B44D2F8B420D358002B22DB0020A6
:4040000000F0ACF9384B98421ED00023374A12690121184600F0B2F918B1354D17E0013500E00025002000F099F92F4B984202D0304B9D42F3D92F4B9D4207D92C4D06E063
:40404000002504E02A4D02E0294D00E00025002D41D100F07BF98246274BD3F81C35002B10DA224A0121204600F068F960B94046FFF7C6FE57B13368002BFCDB00F04EF9DB
:40408000054604E01A4D02E0194D00E01B4DB9F1000F05D00121002000F048F90028F9D1504600F073F916E000F050F980460F4A0121204600F042F938B947B13368002B45
:4040C000FCDB00F02BF9054602E0094D00E00B4D404600F05BF92846BDE8F087E04B02081C3908100B00001601018800EC4A020805005200EF4902000000264001005000F1
:40410000F0B47F4B1A6855684FF0B0535B7813F0FF0F04D04FF0B0535B78DBB200E02123212B55D1116AB2F8B030C3EBC303CC18CB58002BF6DAE36843F00103E360146AE2
:40414000B2F8B030C3EBC3031C44E36813F0020F2DD0E3689EB21368D2F884105958090A090401F47F01D2F88870DB591B0A41EA03633343E3601168D2F884208B5823F485
:404180007F4343F410638B505D4A13681C68D3F88810635823F47F4343F41063635013681A68D3F884105158D3F88830D358544B1A68116AB2F8B030C3EBC3030B44002101
:4041C0005960116AB2F8B030C3EBC3030B445B684B4B19680C68D1F894301C44494A136943F004031361012801D030BF07E020BF454B1B7803B120BF0122434B1A7023681B
:4042000003F00303022BE9D00A6AB1F8B030C3EBC303D018D358002BF6DA4FF0B0535B7813F0FF0F04D04FF0B0535B78DBB200E02123212B30D1C36813F0020F1FD00C6871
:40424000D1F88410635823F47F42C3681B0C1B0203F47F4313436350294B19680C68D1F88800235823F47F420D6AB1F8B030C3EBC3032B44DB681B0E42EA03232350204B91
:404280001A68136AB2F8B020C2EBC2021344DA6822F00102DA6026E0D5F80C311BBB1B490E681B4BD3F818451A4A106841F61E770F600621C3F818153E2111604422C3F8C7
:4042C0001C25134BD3F81C35002BFADA4FF0AA33C5F80C310D4B1E60A3F58473C3F8184503F582731860064B1A68116AB2F8B030C3EBC3030B4400225A60F0BC704700BF73
:40430000E04B020800ED00E0144B02080801264000002640040126400000000001B40248844601BC604700BF510D081001B40248844601BC604700BFFD0F081001B4024861
:40434000844601BC604700BF790E081001B40248844601BC604700BF8B2B081001B40248844601BC604700BF8510081001B40248844601BC604700BFB12A081001B4024880
:40438000844601BC604700BF5912081001B40248844601BC604700BF932B0810000000000000000000000000000000000000000000000000000000000000000000000000CB
:4043C00000000000000000000000000000000000000000000000000000000000000000000000000000000000000000000000000000000000000000000000000000000000BD
:0200000490303A
:02000000C22A12
:0200000490501A
:0C0000000005E20721002101E22BE32AA9
:00000001FF