:020000041000EA
:4000000000400208230100100D00000085010010000000000000000000000000000000000000000000000000000000008101001000000000000000008101001081010010E9
:400040008101001081010010810100108101001081010010810100108101001081010010810100108101001081010010810100108101001081010010810100108101001060
:400080008101001081010010810100108101001081010010810100108101001081010010810100108101001081010010810100108101001081010010810100108101001020
:4000C00010B5064C2378002B07D1054B002B02D0044800E000BF0123237010BD3C0600080000000010220010084B10B5002B03D00749084800E000BF07480368002B00D1F8
:4001000010BD064B002BFBD09847F9E7000000004006000810220010E8000008000000007047FFF7FDFF72B60F4C104DAC4209DA21686268A368043B02DBC858D050FAE777
:400140000C34F3E70A490B4A0020521A02DD043A8850FCDC084809490860BFF34F8F00F005F900F01DF8FEE7142200102C2200103C060008140800080000000808ED00E003
:40018000FEE7FEE700B504207146084202D0EFF3098001E0EFF30880043001F0F9F9FEE710B562B6014800F067F9FEE70000081010B5002000F068FF10BDC04670B56249C5
:4001C000E0239B00CB580F2213401A00D0329200525807210A40032A05D0042A06D0002A12D15A4814E05A4A106811E01A00C0329200554952581F210A40112A06D0132A7C
:4002000004D0FA20C00103E0524801E080200002002B36D14C4BB222D2009A5801211140B125ED005A59120F032422405B591B0F1C4207D0444C63591B0F03242340012BDC
:4002400002D102E0012300E00023002B01D0002901D1032A4BD13C4BB022D2009D58AD03AD0B3D495958C904C90C9C58240E01231C40013401F094FC6843210001F090FC5C
:4002800035E0012B33D1304BC822D2009A5801251540C024E4001A59120F03210A401B591B0F194207D028490B591B0F03210B40012B02D102E0012300E00023002B01D049
:4002C000002D01D1032A12D11F4DC022D200AB587F210B40A958090A1F263140AC58240C3440584301F05CFC210001F059FCE0239B00154AD3581B0903221340D840144CE8
:400300006060164B1D692D0AFC32154001351969090E013101F044FCA060290001F040FC0500E06020610E4BC0180E4901F038FC20750D4BE818FA21890001F031FCA061B1
:40034000C003E06170BDC0460000264000127A00C000000800366E0184050000000021403F420F0040420F00E703000010B5284801F010FC274CB022D200A3585B005B08F0
:40038000A350E0218900635830208343635080235B04A350204A214BE250A02292010433E250FF221E4BE25001F0E2FBC0225200A35801218B43A35000F0BEF9FFF7FEFE4C
:4003C000B0235B055B78002B04D0B0235B055B78DBB200E02123212B03D1124B0022DA605A60114C22008021042000F0F3FB2000103000F087FC0D4B1A685123D35C002B11
:4004000002D00B4800F0F4FC00F0BCFA10BDC046582100100000264001000200840500008C050000E00023405806000810080008081D00108023024AD358032018407047E8
:400440000000214010B501F034F9084980228C58074B2340074C23438B508823034AD358DB06FAD501F029F910BDC04600002140FCFF00000100FA0570B50500830504D07D
:40048000E821FF310F4801F055F801F012F90400FFF7D0FF032801D1FFF7D4FF0A4AB0239B00D55080215058084B03400848034353508823044AD358DB06FAD5200001F0FF
:4004C000FCF870BD3C1D001000002140FCFF00000300FA05FEE7C04630B587B08649A022D2008B58032083438B50844A116808688823CB58C318186881490840186013681E
:40050000186884241B59C01803681B021B0A80256D042B430360106805680359EB1818680140196013683E229A5C002A06D07248E02189004258753CA24342503E229A5C08
:40054000002A06D06C48E021890042583024A24342503E229B5C002B07D06749E02292008B588020000603438B500021012000F0BDFD0021022000F0B9FD0021032000F088
:40058000B5FD0021042000F0B1FD0021002000F0ADFD01A85B4903000A0032CA32C312CA12C300F0D1FD002802D00420FFF792FF5149554A8B588020000603438B505348EE
:4005C00000F07EFE002802D00420FFF783FF4A4C4F4BE1584F4A0A40E250E1584E4A0A40E250E25880252D062A43E250043BE1584A4A0A40E250E158494A0A4080218901B4
:400600000A43E250E258802109020A43E250454A1168454B0B40802149000B431360002001F088FA414BE2581543E550E158012291430A43E2506421002000F0C1FF2F4BE4
:400640001B683F229A5C012A03D90021384A986881509A6874215B5AD2181168284B0B40E021C9000B431360244B1B687322995C703A8A40110070229A5C7220185C8240DC
:400680000A43802109060A438021C900986842509A6852583F229A5C052A06D970229A5C01210A402349986842509A6874215B5AD2185168124B0B408C2189010B43536022
:4006C0000E4B1A687323D35C032199407023D35C7220105C1C0084402143012003400B43802109060B438021C9009068435093685B5807B030BDC0460000264010080008D6
:40070000FF00FFFF541D0010087F0000400D030004050000FEFCFFFFFFFF00FFFFF0FFFFFF8FFFFF00002740FFFCFFFF0C050000040C0000140C000070B58AB09621002016
:4007400000F03EFF00F014FF002814D100F000FFC0235B002B4AD358DB0705D411002A4A8B585B005B088B502649274A8B588020000603438B50012001F074F9234A516C80
:40078000234B0B40E82189010B435364536C1B0AFF2213403A2B07D11C4A516C1D4B0B40E82189010B435364FFF796FE01AD1A4C2A002300143343CB43C243CB43C243CB7F
:4007C00043C22900154800F0E5F82A002300383343CB43C243CB43C243CB43C22900104800F0D8F82A0023005C3313CB13C213CB13C213CB13C229000A4800F0CBF80AB092
:4008000070BDC046000026400C05000000002740FF00FFFFFFC5FFDF541D0010800232400003324000053240214B984230D00ED8402831D004D800281FD010282AD031E0DC
:4008400080282BD080235B00984229D02AE0194B984229D007D8A0231B0698420DD0164B984212D01EE0154B98420AD0144B984209D0144B984215D101E0002016E0124898
:4008800014E0124812E0124810E0A020C0030DE007480BE00F4809E00F4807E00F4805E0034803E00E4801E0A420C0037047C04606005200010000F0090000A0040000F0BB
:4008C000050000F0030000F0010052000200520003005200010050000200500005005200FF00520070B5124B1A683123D35C002B04D1C421FF310F4800F01CFE0C4B1D68F0
:400900002C00B423EB582A6A944663441B68002B0BDB094B1868FFF787FF6B6801229A6063689B68002BFBD100E0044870BDC04610080008D41D0010E807000802005000FA
:4009400010B50D4B1861002805D002230370FD33437000234380094B1B6850229A5C002A08D051229B5C002B04D04F3A0449002000F0F8FA10BDC046E80700081008000817
:400980006101000810B502481430FFF7D9FF10BDE807000870B505000C0000285DD000295DD0FF230A689A4303D099212D4800F0C1FDFF2322699A4303D09A21294800F06D
:4009C000B9FDA3685B0D03D09B21264800F0B2FD63685B0A03D09C21224800F0ABFDE3695B0F03D09D211F4800F0A4FD236A5B0F03D09E211B4800F09DFD1B4A11688B69E9
:400A0000EB1ADB0949691B01CB18216829607D211068415C6918E06808607E211068415C6918206908607F211068415C6918606908607C211068415C6918A068086061682D
:400A4000A961116880228A5CAD18A2692A60E2691A60226A5A60002002E0044800E0034870BDC046141E00101008000801005A0070B504000D000A4B1A68B423D3581B185B
:400A80001B68002B0ADA0B0C03D00649064800F051FD2D042D0C6560002000E0034870BD10080008D5020000941E001001008A0070B505000C000368002B01DA002300E04A
:400AC000084B002B0BD1EA60230C03D00649074800F030FD2404240CAC60002000E0014870BDC04601008A00BB020000941E001070B505000C1E03D19921084800F01AFD72
:400B0000074B1A68B423D3585B191B68002B03DAEB682360002000E0024870BDD41E00101008000801008A0070B504000D00234B1A683123D35C834236D9002936D00B68C7
:400B4000DB0635D13123D35C984204D3C421FF311B4800F0EFFC194B1B681A6AB0215B5A5C431419174E34602B68DA080021686801F0A2F800212000FFF77AFF3468002DE7
:400B800003D111490E4800F0D5FC2A0000212000FFF78EFF00280DD10A4B18680021FFF767FF002808D108E0084806E0074804E0064802E0064800E0054870BD1008000860
:400BC000941E0010000800089303000003018A0001018A0010B50400002A17D1002915D1124B1A683123D35C984204D3C421FF310F4800F09FFC0D4B1B681A6AB0215B5A9A
:400C00005C4314190B4B1C6000200EE0002A09D0002909D0074B59609A60191D2000FFF783FF02E0044800E0034810BD10080008941E00100008000803018A00F0B583B0B2
:400C40000D001C4B1B68DC68236883422DD947097B01C01A012383401E00002903D100F028FD019001E000230193124B18680368002B01DA002300E00F4B002B0ED163687D
:400C8000BF00DF193B68334203D0B3433B60002400E00A4C0021FFF7EBFE00E0084C002D04D1019800F009FD00E0064C200003B0F0BDC0460008000801008A000201880004
:400CC0000301880004018A000A4B1B68DA68136883420BD943095901401A0121814052689B009B580B4203D0034802E0034800E003487047000800080101880004018A00CD
:400D000000018800034B1B68002B01D1014B18607047C0460C080008F0B5474680B404000F0090461E002D4B1B68002B03D1B5212B4800F0FFFB294B1B682C2060431C180B
:400D4000FF22150035402560330A13406360360CA660244B1A683123D35C9D4204D3C421FF31214800F0E6FB1E4B1A68B023D35A6B43116A8C466344236166683223D35CCC
:400D80009E4204D3E021FF31174800F0D3FB154B1B681D6A80367601AD196561A668330C04D0FF214900104800F0C4FB330C03D00E490D4800F0BEFB3604330C1E43AE602B
:400DC0004346E36127620023A361069B002B02D000229B5EA38104BC9046F0BD0C080008141F001010080008941E0010FF010000F0B58FB0041E03D15221294800F09AFBD2
:400E00006368032B03D95421254800F093FBE36A002B03D15821224800F08CFB236B002B03D159211E4800F085FB07AA1300210061C961C321C921C302AD290023001433B7
:400E4000C1CBC1C141CB41C10821535E0CAE3380144B1B6836215B5E07998C466344B370089B0D930B9B0A980096A26AE16AFFF753FF2B69E868002200920021FFF74CFF27
:400E8000216B300000F0E8FA0023F25E002A05DB1F231A401E3B9340034A13600FB0F0BD141F00101008000800E100E0F8B505000F0016001C00002A03D1FD21224800F0A6
:400EC00039FB224B1B68002B03D1FE211E4800F031FB1E4B1B682C2128004843181879435918012213004D68AB401B044568AA4015000269002A20D08F69002F1FD112682E
:400F0000002A01DA002200E0114A002A19D132681204120C134333600369DE6001238B614C6204692B0C03D00A490B4800F002FB2A04120CA260002004E0084802E008483E
:400F400000E00748F8BDC046141F00100C08000801008A00BB020000941E001004028A0007028A0070B504000D0016000F4B1B68002B04D1AF2149000D4800F0DBFA0B4B49
:400F80001B682C2060431C18236A002B04D1B1214900074800F0CEFAE369B34204D9236AB6009D51002000E0024870BD0C080008141F00100A028A0070B582B004000023A3
:400FC0000193002804D1D221FF312D4800F0B2FA2369002B04D1E9214900294800F0AAFA6369002B04D1D421FF31254800F0A2FA236A002B04D1EA214900214800F09AFA90
:401000006269D5682B0C24D01B041360136820691C4B1A68B423D358C3181B68002B18DA01A9FFF765FD00280ED1019803681E0CFF221340E269934207D29B00226AD3588B
:40104000002B02D0984700E0002631002069FFF70FFD2D042D0C0FD063691D601B68636A002B03D098470023636203E0A36A002B00D098470023A36163691B6802B070BD0C
:40108000141F00101008000810B50400084B1B68002B04D1B221FF31064800F04BFA044B1B682C2060431818FFF786FF10BDC0460C080008141F001010B50400094B1B686A
:4010C0009B6CC340DB0703D4BE21074800F032FA044B1B681B691034A402E3580F20184010BDC04610080008541F0010134B1A683C23D35C83421DD9042904D94B1EFF3B95
:401100009BB2132B18D8FF290CD91F2319400C4A0300C0339B009950D03080000423835000200AE007231940D0308000044BC150002002E0034800E0024870471008000887
:401140000000264001004A0070B5041E03D14A494A4800F0EFF9B023DB00494AD358002B00DA87E0474B22689A4203D94649434800F0E0F923689B039B0BE279002A02D0F1
:401180008022520400E000221343B022D2003C498B50A2883D4B9A4204D98C218900374800F0C8F922893A4B9A4203D93949334800F0C0F9A388DB04D90C23891B04364A42
:4011C00013400B43354A2E498B50A37A0F2B04D98E218900294800F0ADF9E37A0F2B03D92F49264800F0A6F9A289284B9A4203D92C49224800F09EF9A37A0F211940E27A64
:401200001201FF2313400B43A289120226490A401343A27B1207C02189050A401343B122D20017498B50A379042B03D91F49134800F080F9228A164B9A4204D99121890011
:401240000E4800F077F90E4819494558194B1D40A3791B02E022D20013402B4343504558154B1D40238A1B040B4A13402B434350002000E0114870BD1F020000941F001008
:4012800000002640FFFF030029020000FF1F0000FF010000310200000000FF0184050000390200003A02000000FF1F00430200008C050000FFF8FFFFFFFF00FE03004A0019
:4012C00070B505003149324A8B588020000603438B502C0003E0012000F020F9013CB223DB002A4AD3585B0701D4002CF3D12749B122D2008858274B034080208005034323
:401300008B50002D01D0002C0CD02049B022D2008B588020000603438B5003E0012000F0FDF8013CB223DB00184AD358DB0701D4002CF3D1002D01D0002C08D01349B122DA
:40134000D2008B58C020800503438B5013E00F4BB121C90058580F4A02408020800502435A5008395A58520052085A5008495A58520052085A50002D03D0002C03D000202A
:4013800002E0002000E0044870BDC046000026408C050000FFFFFFCF02004A0070B505000C001A4B1B6828229A5C012A15D1820807211000884327D19200AD1AED00FF2064
:4013C000A8401B6820339A181168AC4023004B40184004004C40146016E03A229B5EDBB2994203D176210A4800F0A4F8074B1B681B680722154080221206154380229201F5
:4014000094466444A400E55070BDC046100800081C20001070B504000D000B4B9A680B4B9A420CD1002904D13821FF31084800F081F81034054BA400E058E55003E0103409
:40144000A400044BE05870BD00ED00E0000000081C20001000000010F0B5474680B482B0061E01914AD04368032B03D93221264800F060F80023F05E002804DBB178FFF726
:401480008DFF002400E0214C0023F15E7368002912DB88081E4FC0308000C55903221140C900FC3290468A4095439A01434613408B402B43C35116E089B20F220A40083AAA
:4014C00092080632920013481018476803221140C900FF252A008A4097439A012B0013408B403B4343600B4B9A680B4B9A4206D10023F05E0199FFF78DFF00E0034C2000E3
:4015000002B004BC9046F0BD1C2000100100560000E100E000ED00E00000000810B5034B1B78584300F0BCF810BDC046D400000801BEFEE770B50D00044C18220100200068
:4015400000F0C2FBA5610020FFF7F2FF00060008054B802212069A649B6C002B01DB002000E002487047C0460000274003004600054B8022120198585B68FF221A4202D0CF
:401580008023DB021843704700002640FEE7C04610B50A4B0268DA6142681A6282685A62C2689A620269DA6242691A6382695A63C2699A63FFF7EAFF10BDC0460006000838
:4015C000F0B5474680B4002801D0192300E064238B429B415B42304D2C682268A826A45BA41822680327BA433B401A4322602C682268A45BA2181668284CA04626401660E9
:401600002C682668AA229446A25A96193268BA43134333602A6813686546525BD3181A68444614401C60002805D010291BD921291BD8012024E0184B1B6855229A5C9142D9
:4016400015D956229A5C914213D957229A5C914211D958229A5C91420FD959229B5C99420DD804200CE000200AE0022008E0002006E0012004E0022002E0032000E005206B
:40168000054A1268526813680F218B430343136004BC9046F0BDC04610080008FFFCFFFF0230800803D001300238FCD1C046C0467047EFF3108072B6704780F31088704778
:4016C00010B5B0235B059B899BB2002B04D0B0235B059B899BB201E080235B0080225200934215D1184C23681968683A9B58C9180B680F208343963A13430B6021680C6874
:401700009C23CB58E318196881430A431A6019E00D4C2368196898229B58C918B02040050A4BC2580A4B13400A681343C022920013430B60226811689C23D358CB18054A8C
:4017400082581A6010BDC0461008000848180000FFFCFFFF4418000030B5B0235B059B899BB2002B04D0B0235B059B899BB201E080235B0080225200934215D1184C2368C4
:401780001968683A9B58C9180B680F208343953A13430B6021680C689C23CB58E318196881430A431A6019E00D4D2B68196898229B58C918B0246405C12040012258094B32
:4017C00013400A681343C022920013430B602A6811689C23D358CB1822581A6030BDC04610080008FFFCFFFFB0235B059B899BB2002B04D0B0235B059B899BB201E08023F6
:401800005B008022520093420DD1104B1B681A6898215B58D21811680D4B0B40C021C9010B43136011E0094B1B68196898229B58C918084BB0225205D258074B13400A68D4
:401840001343C022920013430B60704710080008FF8FFFFF18180000FFFCFFFF30B5B0235B059B899BB2002B04D0B0235B059B899BB201E080235B008022520093420DD19F
:40188000134B1B681A6898215B58D2181168114B0B408021C9010B43136018E00C4D2B68196898229B58C918B02464050A4822580A4B13400A681343C022920013430B6082
:4018C0002A6811689C23D358CB1822581A6030BD10080008FF8FFFFF4C180000FFFCFFFF10B5B0235B059B899BB2002B04D0B0235B059B899BB201E080235B008022520047
:40190000934217D10020FFF7D7FBB0235B055B78002B04D0B0235B055B78DBB200E02123222B03D8002803D1013004E0012002E0002000E0012010BDF8B50700012803D963
:401940003D493E48FFF7F6FDB0235B055B78002B04D0B0235B055B78DBB200E021239DB2B0235B059B899BB2002B04D0B0235B059E89B6B201E0802676000020FFF79CFB58
:40198000002814D180235B009E4212D1222D12D82B4B1B685C682B4821582B4B19403B068022520413400B432350002404E0274C02E0264C00E0254C80235B009E4201D18B
:4019C000222D03D880235B009E4232D01C4B1A683123D35C002B04D1C421FF311C48FFF7A9FD174B1B681D6A80235B009E4203D1002F05D0174A06E0002F03D0164A02E0AF
:401A0000164A00E0164A01212800FFF751F800280FD10B4B1A68B423D3585B191B68002BF7DBEB681B0E1B06A0221206934200D100242000F8BDC0464C0A000060200010A5
:401A40001008000818F00000FFFFFFFE04004200D41D0010010100300300000C010000300100000CF8B50500012804D9822109012948FFF75FFDFFF733FF002849D0FFF7F6
:401A800018FE0700002D11D10021244B244AD150E823DB00B0225205D65CF6B20120FFF74BFF041E19D1FFF70BFE16E0B02252051C4BD0581A4B194958501B49565CF6B2AB
:401AC0001A481A581F218A4314390A431A500320FFF724FDFFF7C2FE0024002C15D11049124A8B581F20834306401E438E50002D02D1FFF779FE08E00720FFF70FFDFFF745
:401B00002BFE0020FFF718FF04003800FFF7D5FD00E0074C2000F8BD60200010307F00000000264010180000410700001CFF000003004200042805D10B4A116804230B4389
:401B400013600FE0094B1A681168A023D358CB180006C022920410401860034A136804218B4313607047C04610E000E0100800080749C02252008B589B009B088020C005B8
:401B800003438B508B588020000603438B50704700002640014B18607047C04610080008002243088B4274D303098B425FD3030A8B4244D3030B8B4228D3030C8B420DD38D
:401BC000FF22090212BA030C8B4202D31212090265D0030B8B4219D300E0090AC30B8B4201D3CB03C01A5241830B8B4201D38B03C01A5241430B8B4201D34B03C01A5241A0
:401C0000030B8B4201D30B03C01A5241C30A8B4201D3CB02C01A5241830A8B4201D38B02C01A5241430A8B4201D34B02C01A5241030A8B4201D30B02C01A5241CDD2C3096F
:401C40008B4201D3CB01C01A524183098B4201D38B01C01A524143098B4201D34B01C01A524103098B4201D30B01C01A5241C3088B4201D3CB00C01A524183088B4201D3C8
:401C80008B00C01A524143088B4201D34B00C01A5241411A00D20146524110467047FFE701B5002000F006F802BDC0460029F7D076E770477047C04603008218934202D000
:401CC00019700133FAE77047030030B5002A0DD00C7801335D1E013A2C700131002CF5D19A189A4202D01C700133FAE730BD0000F8B5C046F8BC08BC9E467047F8B5C0460B
:401D0000F8BC08BC9E4670470300000001000000010000000000000005036000040000000100000000000000010000000604600008000000C8070008B1010010737973743F
:401D4000656D5F70736F63365F636D30706C75732E630000F4010000140004010A000905080000006301000003000000000000000000000068000000000000000000000096
:401D8000000000001212000000000000000000000000000000000000000000BA0000000000000000000000000000000000001D1D0F00000000000000000000008666000010
:401DC000000000000000000000000000141414140000000047656E6572617465645F536F757263655C50536F43365C70646C5C647269766572732F70657269706865726167
:401E00006C2F6970632F63795F6970635F6472762E68000047656E6572617465645F536F757263655C50536F43365C70646C5C647269766572735C7065726970686572618B
:401E40006C5C6770696F5C63795F6770696F2E630000000047656E6572617465645F536F757263655C50536F43365C70646C5C647269766572735C706572697068657261BB
:401E80006C5C6770696F5C63795F6770696F2E680000000047656E6572617465645F536F757263655C50536F43365C70646C5C647269766572735C70657269706865726176
:401EC0006C5C6970635C63795F6970635F6472762E68000047656E6572617465645F536F757263655C50536F43365C70646C5C647269766572735C70657269706865726171
:401F00006C5C6970635C63795F6970635F6472762E63000047656E6572617465645F536F757263655C50536F43365C70646C5C647269766572735C70657269706865726135
:401F40006C5C6970635C63795F6970635F706970652E630047656E6572617465645F536F757263655C50536F43365C70646C5C647269766572735C70657269706865726193
:401F80006C5C70726F745C63795F70726F742E630000000047656E6572617465645F536F757263655C50536F43365C70646C5C647269766572735C7065726970686572614E
:401FC0006C5C737973636C6B5C63795F737973636C6B2E630000000047656E6572617465645F536F757263655C50536F43365C70646C5C647269766572735C706572697006
:40200000686572616C5C737973636C6B5C63795F737973636C6B2E680000000047656E6572617465645F536F757263655C50536F43365C70646C5C647269766572735C70D0
:4020400065726970686572616C5C737973696E745C63795F737973696E742E630000000047656E6572617465645F536F757263655C50536F43365C70646C5C647269766574
:4020800072735C7065726970686572616C5C737973706D5C63795F737973706D2E6300000000204000002440000000400000000000002340000030400000314000009F4090
:4020C000000022400000104002020202020202020210101D800017007500FF030602063604102000000000007FC0000000040000000000000019324B647D00804000080BCC
:40210000100000000000FF012002001F00800004FF081018001000140018001C4044484C50000000081000000800000004000000041000000012000004210000002100004B
:402140000016000040114002C41300138013A013200000001C0000000000214000002540000001400000344000002440000031400000324000001F41000023400000114074
:40218000010101010101010101101010800019005500F0000501053B04101C01010000000FC000000004000001010101011D3A57789600082000101208000000001F00008B
:4021C0000010000F002000023F06080E00080009000A000B24282C3034000000100000009000000088000000080000008000000004F0000000F00000400200002005A000A6
:40220000D00100018001A0012000000010000000000000000000001000000008C000000034220010C0000008400500003C060008D80100000048E80100127A0000093D0009
:4022400000093D0000093D0004000000A00F00000000D007E9000010C10000100000000010B50004400B27D0144B1A68146AB023D15ACA00531AE3181B68002BF4DA3E2208
:402280000F4B1A600F4A104B1A60104B0621A322D20099500E4A98509B58084B1A68106AB023D15ACA00531AC31800225A60084B064AD358002BFADA10BDC04610080008EC
:4022C000040126401E1F000008012640000026401C05000010B54378FF2B20D100F01AFA04000F4B1A683123D35C042B04D8C421FF310C4800F026FA094B1A68116AB02396
:40230000D35A9B00CB18DB685A68116801230B4313601368DB07FCD4200000F0EBF910BD10080008D41D0010F0B585B001900291544B1A683123D35C002B04D1C421FF31C9
:40234000514800F0FFF94F4B1B681E6AB4229A58971950229B5C002B77D000F0C3F9050003283CD1474B1A683123D35C062B04D8C421FF31444800F0E5F9424B1968B02307
:40238000CB5A5A00D21853000A6A94466344B4228A58D3181B68002B23DB002000F0C2F93A4B98421FD03A4B1A6900230021012000F0D8F9002803D0364C17E0013400E04D
:4023C0000024002000F0AEF9304B984202D0324B9C42F3D9304B9C4207D92E4C06E0002404E02C4C02E02B4C00E00024002C46D100F090F90390294B294AD358002B13DAC5
:40240000234A0121300000F095F900280ED10298FFF726FF019B002B0AD03B68002BFCDB00F098F9040004E01A4C02E0194C00E01C4C032D05D10121002000F063F9002843
:40244000F9D1039800F056F919E000F063F905000F4A0121300000F06DF9002809D1019B002B08D03B68002BFCDB00F073F9040002E0084C00E00B4C280000F03BF92000EE
:4024800005B0F0BD10080008D41D001001018800E807000805005200EF4902001C0500000000264001005000F0B54F464646C0B4824B1A685468B0235B055B78002B04D065
:4024C000B0235B055B78DBB200E02123212B67D1B023D15ACB005B1A116A8C46634419680029F5DADD6802212943D960B023D15ACB005B1A116A8C466344D968C9073ED593
:40250000D9680904090C8C4684271168D559A84641440968090A0904FF26360431400D0088261168894691598846C14449460968090A0906294365462943D9601168D359FD
:40254000C9180A685E4B98461A4090252D012A430A605A4B99461A6813689C46925962441368414619400B002B4313604B461A681568D15969180B689359EB181B684F4B78
:402580001A68B021555AEB005B1B156AAC46634400255D60156A515ACA00531AEB185B68484A116904230B431361012801D030BF00E020BF414B1A68B023D15ACB005B1AAE
:4025C000116A8C46634419680029F3DAB02149054978002904D0B02149054978C9B200E02121212932D1D968C90722D510688421525880180468324A1440DB681B0C1B029F
:40260000FF2109020B40234303602C4B19688823C8580B689C46604403681A400D6AB023CC5AE1000B1BEB18DB681B0E1B021A430260224B1A68106AB023D15ACA00531A7A
:40264000C318DA6802218A43DA6028E086235B00E358002B23D11C4807681C4BA321C9005E581B4A904615681A4A0260062058503E21424611600631174A9950164B134A4D
:40268000D358002BFADA154A86235B00E2500E4B1F60A323DB000D4AD6500D4B1D60074B1A68106AB023D15ACA00531AC31800225A600CBC90469946F0BDC0461008000806
:4026C000FF00FFFF00ED00E00801264000002640040126401E1F00001C050000AAAAAAAA0000000001B40248844601BC604700BF3504001001B40248844601BC604700BFA9
:40270000BB16001001B40248844601BC604700BF3D0C001001B40248844601BC604700BFB316001001B40248844601BC604700BFC90C001001B40248844601BC604700BFF1
:40274000B10A001001B40248844601BC604700BF3515001001B40248844601BC604700BFE508001001B40248844601BC604700BFAD0E0010000000000000000000000000A8
:402780000000000000000000000000000000000000000000000000000000000000000000000000000000000000000000000000000000000000000000000000000000000019
:4027C00000000000000000000000000000000000000000000000000000000000000000000000000000000000000000000000000000000000000000000000000000000000D9
:020000041008E2
:4000000000780408EB0208100D00000051030810510308105103081051030810000000000000000000000000000000004D0308104D030810000000004D0308104D030810DA
:400040004D0308104D0308104D0308104D0308104D0308104D0308104D0308104D0308104D0308104D0308104D0308104D0308104D0308104D0308104D0308104D03081000
:400080004D0308104D0308104D0308104D0308104D0308104D0308104D0308104D0308104D0308104D0308104D0308104D0308104D0308104D0308104D0308104D030810C0
:4000C0004D0308104D0308104D0308104D0308104D0308104D0308104D0308104D0308104D0308104D0308104D0308104D0308104D0308104D0308104D0308104D03081080
:400100004D0308104D0308104D0308104D0308104D0308104D0308104D0308104D0308104D0308104D0308104D0308104D0308104D0308104D0308104D0308104D0308103F
:400140004D0308104D0308104D0308104D0308104D0308104D0308104D0308104D0308104D0308104D0308104D0308104D0308104D0308104D0308104D0308104D030810FF
:400180004D0308104D0308104D0308104D0308104D0308104D0308104D0308104D0308104D0308104D0308104D0308104D0308104D0308104D0308104D0308104D030810BF
:4001C0004D0308104D0308104D0308104D0308104D0308104D0308104D0308104D0308104D0308104D0308104D0308104D0308104D0308104D0308104D0308104D0308107F
:400200004D0308104D0308104D0308104D0308104D0308104D0308104D0308104D0308104D0308104D0308104D0308104D0308104D0308104D0308104D0308104D0308103E
:400240004D0308104D0308104D0308104D0308104D0308104D0308104D0308104D0308104D0308104D0308104D0308104D0308104D0308104D0308104D0308104D030810FE
:400280004D0308104D0308104D03081010B5054C237833B9044B13B10448AFF300800123237010BD4C49020800000000F4350810084B10B51BB108490848AFF3008008488D
:4002C000036803B910BD074B002BFBD0BDE81040184700BF0000000050490208F435081018430208000000007047FFF7FDFF72B6104C114DAC4209DA21686268A368043B6D
:40030000A2BFC858D050FAE70C34F3E70B490C4A00209142BCBF41F8040BFAE709480A490860BFF34F8F00F05FFB00F039FB00F009FAFEE7F8350810103608104C490208BC
:40034000C04B02080040020808ED00E0FEE7FEE700B504207146084202D0EFF3098001E0EFF30880043001F023FCFEE710B5044620B940F2A551044801F00AFC21460348EF
:4003800000F06AFF10BD00BF9C2F08100000664070B59CB004460D460022002302F0DEF808B1174E00E0174E002200232046294602F0D4F818B1204605F1004101E02046CC
:4003C000294602F0F3F807EE900ABDEEE77AF8EEC76A77EEE67ADFED0C6A67EEA67AFDEEE77ACDED007A17EE103A3246074903A802F034F903A8FFF7B9FF1CB070BD00BF11
:40040000DC2F08101831081000401C46E02F081010B5054C054A0649204601F09DF9236843F00043236010BD000066405C4B02089031081000B583B08DF804008DF8051042
:40044000022201A9184800F0F1FE174AD2F80832C3F30803D2F80822C2F3C032D342F4D1114AD2F80832C3F30803D2F80822C2F3C032D342F4D10C4B1B6A002B05DA0A4B04
:40048000D3F8003F03F4007304E0074BD3F8403F03F40063B3F5007FEDD140F2DC5001F06BFB03B05DF804FB0000624010B582B00C4600218DF804108DF8051040F080005E
:4004C000FFF7B8FF022201A91D4800F085FE1C4B1B6A002B05DA1A4BD3F8003F03F4007304E0174BD3F8403F03F40063B3F5007FEDD140F2DC5001F03FFB022201A910485C
:4005000000F06AFE0E4B1B6A002B05DA0C4BD3F8003F03F4007304E0094BD3F8403F03F40063B3F5007FEDD140F2DC5001F024FB9DF8043023709DF80530637002B010BD09
:400540000000624000B597B000238DF804308DF8053081210620FFF76DFF01A90620FFF7A5FF9DF80530412B15D19DF804201B4902A802F073F802A8FFF7F8FE0121062095
:40058000FFF758FF01A90620FFF790FF9DF80530012B16D10AE09DF80420114902A802F05DF802A8FFF7E2FE002014E09DF804200C4902A802F052F802A8FFF7D7FE0120B0
:4005C00009E09DF80420084902A802F047F802A8FFF7CCFE002017B05DF804FBEC2F08101C3008105830081084300810000000002DE9F04F83B007460E4600238DF8043080
:400600008DF8053001A92E20FFF750FF9DF805B001A92D20FFF74AFF9DF805A001A93020FFF744FF9DF8059001A92F20FFF73EFF9DF8055001A93220FFF738FF9DF8058053
:4006400001A93120FFF732FF9DF805404FEA0A2000B24BEA000001F0A9FC0022384B01F00BFDC7E90001280200B249EA000001F09DFC0022324B01F0FFFCC7E90201200256
:4006800000B248EA000001F091FC00222C4B01F0F3FCC7E9040101A93420FFF707FF9DF805A001A93320FFF701FF9DF8058001A93420FFF7FBFE9DF8059001A93320FFF75F
:4006C000F5FE9DF8055001A93820FFF7EFFE9DF8057001A93720FFF7E9FE9DF805404FEA082000B24AEA000001F060FC12A3D3E9002301F0EBFDC6E90001280200B249EAB6
:40070000000001F053FC0CA3D3E9002301F0DEFDC6E90201200200B2384301F047FC06A3D3E9002301F0D2FDC6E9040103B0BDE8F08F00BFAFF30080000000000060504046
:400740000000203F00B58DB0FFF762FE2248FFF70DFE62B601F0A0FAFFF7F4FE012834D11E48FFF703FE06A96846FFF741FF1C48FFF7FCFDDDE90001FFF70AFE1948FFF74F
:40078000F5FDDDE90201FFF703FE1748FFF7EEFDDDE90401FFF7FCFD1448FFF7E7FDDDE90601FFF7F5FD1248FFF7E0FDDDE90801FFF7EEFD0F48FFF7D9FDDDE90A01FFF7DB
:4007C000E7FD0D48FFF7D2FDCDE70C48FFF7CEFD00200DB05DF804FBC0300810D43008101C310810243108102C310810343108103C3108104431081054300810F83008102B
:4008000008B5012000F0B6FC08BD00BF704700BF5C4AD2F8803303F00F0303F1D00152F8212002F00702032A04D0042A05D092B9554914E0554A116811E003F1C002514991
:4008400051F8222002F01F02112A06D0132A04D04FF4FA4103E04E4901E04FF400418BBB484BD3F8902502F00100D3F88825C2F30172D3F8883513F0405F07D0414BD3F817
:400880008835C3F30173012B02D102E0012300E0002303B108B9032A46D13A48D0F88025C2F31103D0F88425C2F30C02D0F88005C0F300600130B1FBF2F202FB03F2B2FBE4
:4008C000F0F131E0012B2FD12E4BD3F8402602F00100D3F80026C2F30172D3F8003613F0405F07D0274BD3F80036C3F30173012B02D102E0012300E0002303B108B9032A63
:4009000012D12048D0F8002602F07F02D0F80036C3F30423D0F80006C0F3044002FB01F2B2FBF3F2B2FBF0F1164BD3F88033C3F3011321FA03F215494A601648D0F89030B4
:40094000C3F3072301330069000E0130B2FBF0F08860B2FBF3F3CB600B6103F5742202F23F220D48A0FB0202C2F387420A7503F2E7330A4AA2FB03239B098B61DB03CB6188
:40098000704700BF0000264000127A008C42020800366E010000214083DE1B43D34D621008B50D4801F068F9FFF730FFFFF730FF00221146042000F0A5F9084800F038FA55
:4009C000074B1B6893F8513013B1064800F0A0FA00F0E2F808BD00BFD034081068490208944B02084C31081008B501F03EF9074AD2F8883043F47003C2F88830BFF34F8F73
:400A0000BFF36F8F01F035F908BD00BF00ED00E01F4B98422DD00CD840282ED003D8E8B1102828D02FE0802829D0B0F5807F28D029E0184B984228D006D8B0F1204F0DD012
:400A4000154B984212D01EE0144B98420AD00133984209D0023B984215D101E0002070470F4870470F4870470F4870474FF4A0007047074870470D4870470D4870470D4876
:400A80007047034870470C4870474FF4A400704706005200010000F0090000A0040000F0010052000200520003005200010050000200500005005200FF00520038B5124B5D
:400AC0001B6893F83130012B04D840F2C3110F4801F05EF80C4B1D682A6AB5F8B03013442C46D5F8B420D358002B0BDB084B1868FFF78EFF6B6801229A6063689B68002BF9
:400B0000FBD138BD034838BD944B0208D0310810E84A0208020050001A4B186128B102230370FF23437000234380174B1B6893F850202AB300B583B0B3F93830ADF800308C
:400B4000002301931149684600F0DCFFBDF90030002B08DB590903F01F03012202FA03F30B4A42F82130084B1B6893F8513023B102220849012000F077FA03B05DF804FBD7
:400B8000704700BFE84A0208944B02088943020800E100E04144020808B50248FFF7BCFF08BD00BFFC4A020838B50B4B1B68D3F8B4301B58002B0DDA0D4604460B0C1B041B
:400BC00023B140F2D521054800F0E2FFA9B26160002038BD024838BD944B02081032081001008A0038B50368002B01DA002300E0094B73B90D460446C2600B0C1B0423B1F3
:400C000040F2BB21054800F0C3FFA9B2A160002038BD014838BD00BF01008A001032081038B504460D4619B99921084800F0B0FF074B1B68D3F8B4301B59002B03DAE36804
:400C40002B60002038BD034838BD00BF50320810944B020801008A00254B1B6893F8313083423AD900293AD00B6813F01F0F38D170B50D4604461E4B1B6893F831309842BC
:400C800004D340F2C3111B4800F082FF184B1B68186AB3F8B03004FB0304174E34602A68D2080021686801F0D1FC00212046FFF77BFF346825B940F293310E4800F068FF62
:400CC0002A4600212046FFF78DFF60B900210A4B1868FFF769FF40B970BD084870470748704706487047064870BD054870BD00BF944B020810320810004B020803018A00FC
:400D000001018A0010B504461346B2B9A9B9124B1B6893F83130984204D340F2C3110F4800F036FF0C4B1B681A6AB3F8B03004FB03240B4B1C60002010BD43B149B1084AE5
:400D400051609360111D2046FFF786FF10BD054810BD044810BD00BF944B020810320810004B020803018A002DE9F0411B4B1B68DC68236883422CD90D464609A0EB46108F
:400D8000012303FA00F819B900F06FFF074600E00027124B18680368002B01DA002300E00F4B83B9626852F8263018EA030F05D023EA080342F82630002400E0094C00213A
:400DC000FFF7F2FE00E0084C25B9384600F051FF00E0064C2046BDE8F08100BF004B020801008A00020188000301880004018A000B4B1B68DB681A6882420CD94109A0EB2E
:400E00004110012202FA00F05B6853F82130184203D004487047044870470448704700BF004B02080101880004018A0000018800024B1B680BB9014B186070470C4B020897
:400E40002DE9F8430446884691461D46089F2C4B1B681BB9B5212B4800F09AFE284B1B682C2000FB04F01C18EEB21E50C5F3072363602D0CA560244B1B6893F831309E4275
:400E800004D340F2C311214800F082FE1E4B1B68196AB3F8B02006FB02162661666893F832309E4204D340F2DF11184800F070FE154B1B681D6A803605EB46156561A66861
:400EC000330C1B0423B14FF4FF71104800F060FE330C1B0423B140F2FF110C4800F058FEB3B243EA0646AE60C4F81C90C4F820800023A36117B1B7F90030A381BDE8F88396
:400F00000C4B020890320810944B020810320810F0B58FB0044618B95221274800F038FEA369072B03D95621234800F031FEE36A1BB95821204800F02BFE236B1BB959211A
:400F40001D4800F025FE07AD04F114060FCE0FC537682F6002AD26460FCE0FC533682B60164B1B68B3F93620079B1344ADF83030089B0D93A26AE16A0CAD00953B460A9876
:400F8000FFF75EFF00210091069B0A460598FFF757FF216B284600F0B5FDBDF93030002B08DB590903F01F03012202FA03F3044A42F821300FB0F0BD90320810944B0208FE
:400FC00000E100E0F8B506460F461D4614461AB9FD211F4800F0DCFD1E4B1B681BB9FE211B4800F0D5FD1B4B1B682C2101FB063001FB07314B68012202FA03F31B044668CF
:4010000002FA06F60269EAB18F69EFB91268002A01DA002200E0104AC2B92288134323600369DC6001238B614D620469330C1B0423B140F2BB21094800F0AAFDB2B2A260D7
:401040000020F8BD0648F8BD0648F8BD0548F8BD903208100C4B020801008A001032081004028A0007028A00F8B505460F4616460E4B1B6823B94FF4AF710D4800F088FDC2
:401080000A4B1B682C2404FB0534236A23B94FF4B171074800F07CFDE369B34204D9236A43F826700020F8BD0248F8BD0C4B0208903208100A028A0070B582B0002301931B
:4010C000044620B940F2D111284800F061FD236923B94FF4E971254800F05AFD636923B940F2D311214800F053FD236A23B94FF4EA711E4800F04CFD6369DD682A0C20D0FE
:4011000012041A601B682069194B1B68D3F8B430C358002B15DA01A9FFF782FD60B9019803681E0CDBB2E269934206D2226A52F8233013B1984700E0002631462069FFF795
:4011400033FDADB275B16369ADB21D601B68636A1BB198470023636202E0A36A03B198470023A36163691B6802B070BD90320810944B020810B50446074B1B6823B940F2A3
:40118000B111064800F004FD034B1B682C2000FB0430FFF791FF10BD0C4B02089032081010B4D0F8003303F00F03072B06D900230DE0D0F84043CC54013300E000239342F8
:4011C000F7D306E0D0F8404321F8134001339342F8D35DF8044B704710B51446D0F80833C3F308039A4200D31C462246FFF7D8FF204610BD10B4D0F8003203F00F03072B08
:4012000006D900230DE0CC5CC0F84042013300E000239342F7D306E031F81340C0F8404201339342F8D35DF8044B704710B51446036813F4006F01D0802200E04022D0F83F
:401240000832C3F30803D31AA34200D81C462246FFF7D0FF204610BD30B4036813F4006F01D0802200E04022002408E0D0F80832C3F308039A42F9D0C0F8405201340D5D30
:40128000002DF3D130BC704702E0C0F84012013A002AFAD1704700BF02E0D0F8403301390029FAD1704700BFF8B506460D46036813F4006F01D0802400E04024D6F8083259
:4012C000C3F30803E41A6B699C4200D91C46AA692244AA611B1B6B612F6977B1224639463046FFF787FFD6F8003203F00F03072B00D9640027442F6105E022464FF6FF71B2
:401300003046FFF7C1FF6B69BBB92B6843F002032B60D6F8883F23F0010423F4EE6323F0030323B140F23641044800F031FCC6F8884FEB690BB101209847F8BDD03208105B
:40134000F8B506460D46D0F80843C4F308048B68A34200D21C46EA682244EA601B1BAB606F6877B1224639463046FFF719FFD6F8003303F00F03072B00D9640027446F60E3
:4013800003E021463046FFF787FFAB6883B9D6F8C83F23F0010423F4366323F00D0323B140F2A631194800F0F3FBC6F8C84FF8BD326A002A07DA326812F4006F01D0802213
:4013C00009E0402207E0326812F4006F01D0802200E0402252089A4216D95C1E336813F4006F01D0802300E040239C4204D34FF42371064800F0CCFBD6F8043323F0FF02E6
:40140000E3B21343C6F80433F8BD00BFD0320810002800F02481F8B50546002900F0218117460C460B78012B03D93F218F4800F0AFFB6378012B07D9052B05D0022B03D0D7
:4014400040218A4800F0A4FBA378032B03D94121864800F09DFB2378012B07D16368023B0E2B03D94321814800F092FBA36933F00F0303D044217D4800F08AFBA368043B6A
:401480000C2B03D94521794800F082FBE368043B0C2B03D94621754800F07AFB6378022B07D0A268E3689A4203D047216F4800F06FFB636A33F06D0303D049216B4800F0C3
:4014C00067FBE36A33F0730303D04A21674800F05FFB236B33F4206303D04B21634800F057FB6378A678052B07D8DFE803F0060305060603022600E00026A368082B04D8E2
:40150000E368082B03D9002302E0002300E0012313B14FF4006200E00022237F13B14FF4807300E000231A436368013B03F00F03134343F080732B60226A2B6813F4006F16
:4015400001D0802300E040239A4203D35821474800F01EFBA26A2B6813F4006F01D0802300E040239A4203D35921404800F010FB237D0BB9012100E000216278052A01D114
:40158000022300E000230B43E17C09B1102100E000210B43617C09B1202100E000210B432178012902D14FF0004100E000210B43B60006F00C063343A169090201F4706183
:4015C0000B43120602F0407213432B62237C13B14FF4807200E00022A37C13B14FF4007300E000231A43A368013B03F00F031343C5F8003394F82030C5F80433237C13B1A6
:401600004FF4807200E00022E368013B03F00F031343C5F8003294F82830C5F80432636A03F06D03C5F8C83FE36A03F07303C5F8883F236B03F40073C5F8003F236B03F424
:401640000063C5F8403F0023C5F8C83E5FB118463B60BB61FB60FB61054B3B62F8BD054870470448F8BD0020F8BD00BF14330810EFCDAB000140AA0038B504460D46D0F8CB
:40168000CC3E13F0010F04D00123C0F8C03ED0F8C03ED4F84C3F13F4006F0BD02B6843F400632B604FF40063C4F8403FD4F8403F012300E00023D4F8CC2F12F0200F09D015
:4016C0002B6843F020032B602023C4F8C03FD4F8C03F0123D4F88C2F12F0400F09D02B6843F040032B604023C4F8803FD4F8803F01231BB1EB690BB104209847D4F8CC3F01
:4017000013F0010F08D029462046FFF719FE0123C4F8C03FD4F8C03FD4F88C3F13F0010F08D029462046FFF7BFFD0123C4F8803FD4F8803F2B6813F0010F0BD0AB684BB967
:401740006B693BB92B6823F001032B60EB690BB10220984738BD00BF002800F0A48170B50546002900F0A18116460C460B78022B03D93F21A24800F00BFA637B023BDBB29E
:40178000062B03D940219E4800F002FAA37B3BB1022B05D0032B03D04121994800F0F8F994F82130012B03D94221954800F0F0F994F82830012B03D94321914800F0E8F9C0
:4017C0002378012B06D86368083B082B94BF0023012307E0A37F2BB16368013B062B94BF002301231BB14521854800F0D1F9A368053B042B03D94621814800F0C9F96369F5
:40180000FF2B03D947217E4800F0C2F9A369FF2B03D948217A4800F0BBF9A37C6BB1237833B9A368092B05D1A37B2BB1012304E0012302E0012300E000231BB14A217048F3
:4018400000F0A6F9636B23F4366323F00D031BB14C216B4800F09CF9E36B23F4EE6323F003031BB14D21664800F092F92378022B01D1A37F13B16268013A00E00022237F6C
:4018800013B14FF4803100E00021A368082B02D84FF4006300E000230B4302F00F02134343F000732B60226B2B6813F4006F01D0802300E040239A4203D36221504800F0CC
:4018C00067F9A26B2B6813F4006F01D0802300E040239A4203D36321494800F059F9626A2B6813F4006F01D0802300E040239A4203D36421424800F04BF923781B0603F082
:4019000040732B64637F0BB1402200E00022A37C13B14FF4806300E000231343227C12B14FF4807200E000221343627C12B14FF4007200E000221A43E36A013B1B0403F4BF
:4019400070231343627B013A02F007021343A27B120102F030021343AB64237B13B14FF4807200E00022E37B23B92378022B03D1012302E0012300E0002313B14FF4007346
:4019800000E000231A43A368013B03F00F031343C5F80033227DA3691B0403F47F031343C5F81033E26AD5F8003303F00F0303339A4201D3102A03D97A21114800F0E8F88B
:4019C000E37F23B12378012B03D0002302E0002300E0012313B14FF4807200E00022637B013B03F007031A43A37B1B0103F0300313436B64237B2BB14FF4807203E000BFA6
:401A0000943308100022A368013B03F00F0313432278012A02D14FF4803200E000221343C5F8003294F83030C5F8043394F8203013B14FF0007200E0002294F82130012BF3
:401A400002D14FF0807300E00023134394F82820012A02D14FF4803200E00022134394F8242013432B6594F83830C5F80432636B23F4926323F002031B051B0DC5F8C83F4E
:401A8000E36B23F08C035B055B0DC5F8883F76B1002070603060B060F0603062F0623063044B736370BD04487047034870BD002070BD00BFEFCDAB000160AA0038B50D4BDC
:401AC0009A680D4B9A420FD10D46044621B940F237110A4800F05CF804F11003064A52F8230042F8235038BD1030054B53F8200038BD00BF00ED00E000400208D4330810FD
:401B00000000081048B338B504460D464368072B03D93221134800F03BF8B4F900306268002B08DB5201D2B203F1604303F5614383F8002305E003F00F035201D2B20A490D
:401B4000CA540A4B9A680A4B9A4208D12946B4F90000FFF7B3FF002038BD06487047002038BD00BFD433081014ED00E000ED00E0004002080100560008B5034B1B7800FB2D
:401B800003F000F069F808BDA042020801BEFEE738B50D46044C18220146204600F082FDA5610020FFF7F2FFB8480208FEE700BF08B50268254BDA6142681A6282685A624D
:401BC000C2689A620269DA6242691A6382695A63C2699A631E4A916AD963D16A1964516A5964516B9964926BDA64F1EE103A13F0900F27D0026A154B1A65426A5A65826AF9
:401C00009A65C26ADA65026B1A66426B5A66826B9A66C26BDA66026C1A67426C5A67826C9A67C26CDA67026DC3F88020426DC3F88420826DC3F88820C26DC3F88C20026E9A
:401C4000C3F89020FFF7B2FF08BD00BFB848020800ED00E0000000000230800803D001300238FCD100BF00BF7047EFF3108072B6704780F310887047014B1860704700BFB0
:401C8000944B020808B502490248FFF7F5FC08BD984B02080000624010B5144B1B7883B9134C144A14492046FFF7B2FB236A23F04063236211491248FFF724FF01220B4B8A
:401CC0001A700F4BB3F90030002B08DB590903F01F03012202FA03F30A4A42F82130044A136843F00043136010BD00BF4C4B020800006240984B020888350810851C0810AF
:401D00008831081000E100E081F0004102E000BF83F0004330B54FEA41044FEA430594EA050F08BF90EA020F1FBF54EA000C55EA020C7FEA645C7FEA655C00F0E2804FEAED
:401D40005454D4EB5555B8BF6D420CDD2C4480EA020281EA030382EA000083EA010180EA020281EA0303362D88BF30BD11F0004F4FEA01314FF4801C4CEA113102D040423D
:401D800061EB410113F0004F4FEA03334CEA133302D0524263EB430394EA050F00F0A780A4F10104D5F1200E0DDB02FA0EFC22FA05F2801841F1000103FA0EF2801843FA89
:401DC00005F359410EE0A5F120050EF1200E012A03FA0EFC28BF4CF0020C43FA05F3C01851EBE37101F0004507D54FF0000EDCF1000C7EEB00006EEB0101B1F5801F1BD34C
:401E0000B1F5001F0CD349085FEA30004FEA3C0C04F101044FEA445212F5800F80F09A80BCF1004F08BF5FEA500C50F1000041EB045141EA050130BD5FEA4C0C404141EB34
:401E4000010111F4801FA4F10104E9D191F0000F04BF01460020B1FA81F308BF2033A3F10B03B3F120020CDA0C3208DD02F1140CC2F10C0201FA0CF021FA02F10CE002F14C
:401E80001402D8BFC2F1200C01FA02F120FA0CFCDCBF41EA0C019040E41AA2BF01EB0451294330BD6FEA04041F3C1CDA0C340EDC04F11404C4F1200220FA04F001FA02F32C
:401EC00040EA030021FA04F345EA030130BDC4F10C04C4F1200220FA02F001FA04F340EA0300294630BD21FA04F0294630BD94F0000F83F4801306BF81F480110134013D1A
:401F00004EE77FEA645C18BF7FEA655C29D094EA050F08BF90EA020F05D054EA000C04BF1946104630BD91EA030F1EBF0021002030BD5FEA545C05D14000494128BF41F098
:401F4000004130BD14F580043CBF01F5801130BD01F0004545F0FE4141F470014FF0000030BD7FEA645C1ABF194610467FEA655C1CBF0B46024650EA013406BF52EA0335BE
:401F800091EA030F41F4002130BD00BF90F0000F04BF0021704730B54FF4806404F132044FF000054FF0000150E700BF90F0000F04BF0021704730B54FF4806404F1320456
:401FC00010F0004548BF40424FF000013EE700BF42004FEAE2014FEA31014FEA02701FBF12F07F4393F07F4F81F06051704792F0000F14BF93F07F4F704730B54FF4607447
:4020000001F0004521F0004120E700BF50EA010208BF704730B54FF000050AE050EA010208BF704730B511F0004502D5404261EB41014FF4806404F132045FEA915C3FF4FC
:40204000DCAE4FF003025FEADC0C18BF03325FEADC0C18BF033202EBDC02C2F1200300FA03FC20FA02F001FA03FE40EA0E0021FA02F11444C1E600BF70B54FF0FF0C4CF4C3
:40208000E06C1CEA11541DBF1CEA135594EA0C0F95EA0C0F00F0DEF82C4481EA030621EA4C5123EA4C5350EA013518BF52EA033541F4801143F4801338D0A0FB02CE4FF0F1
:4020C0000005E1FB02E506F00042E0FB03E54FF00006E1FB03569CF0000F18BF4EF0010EA4F1FF04B6F5007F64F5407404D25FEA4E0E6D4146EB060642EAC62141EA5551CB
:402100004FEAC52040EA5E504FEACE2EB4F1FD0C88BFBCF5E06F1ED8BEF1004F08BF5FEA500E50F1000041EB045170BD06F0004646EA010140EA020081EA0301B4EB5C0426
:40214000C2BFD4EB0C0541EA045170BD41F480114FF0000E013C00F3AB8014F1360FDEBF002001F0004170BDC4F10004203C35DA0C341BDC04F11404C4F1200500FA05F359
:4021800020FA04F001FA05F240EA020001F0004221F0004110EBD37021FA04F642EB06015EEA430E08BF20EAD37070BDC4F10C04C4F1200500FA04F320FA05F001FA04F27D
:4021C00040EA020001F0004110EBD37041F100015EEA430E08BF20EAD37070BDC4F1200500FA05F24EEA020E20FA04F301FA05F243EA020321FA04F001F0004121FA04F29C
:4022000020EA020000EBD3705EEA430E08BF20EAD37070BD94F0000F0FD101F00046400041EB010111F4801F08BF013CF7D041EA060195F0000F18BF704703F00046520024
:4022400043EB030313F4801F08BF013DF7D043EA0603704794EA0C0F0CEA135518BF95EA0C0F0CD050EA410618BF52EA4306D1D181EA030101F000414FF0000070BD50EAC1
:40228000410606BF1046194652EA430619D094EA0C0F02D150EA013613D195EA0C0F05D152EA03361CBF104619460AD181EA030101F0004141F0FE4141F470014FF00000E8
:4022C00070BD41F0FE4141F4780170BD70B54FF0FF0C4CF4E06C1CEA11541DBF1CEA135594EA0C0F95EA0C0F00F0A7F8A4EB050481EA030E52EA03354FEA013100F0888009
:402300004FEA03334FF0805545EA131343EA12634FEA022245EA111545EA10654FEA00260EF000419D4208BF964244F1FD0404F5407402D25B084FEA3202B61A65EB030502
:402340005B084FEA32024FF480104FF4002CB6EB020E75EB030E22BFB61A754640EA0C005B084FEA3202B6EB020E75EB030E22BFB61A754640EA5C005B084FEA3202B6EB32
:40238000020E75EB030E22BFB61A754640EA9C005B084FEA3202B6EB020E75EB030E22BFB61A754640EADC0055EA060E18D04FEA051545EA16754FEA06164FEAC30343EA3D
:4023C00052734FEAC2025FEA1C1CC0D111F4801F0BD141EA00014FF000004FF0004CB6E711F4801F04BF01430020B4F1FD0C88BFBCF5E06F3FF6AFAEB5EB030C04BFB6EB91
:40240000020C5FEA500C50F1000041EB045170BD0EF0004E4EEA113114EB5C04C2BFD4EB0C0541EA045170BD41F480114FF0000E013C90E645EA060E8DE60CEA135594EA7F
:402440000C0F08BF95EA0C0F3FF43BAF94EA0C0F0AD150EA01347FF434AF95EA0C0F7FF425AF104619462CE795EA0C0F06D152EA03353FF4FDAE1046194622E750EA4106DF
:4024800018BF52EA43067FF4C5AE50EA41047FF40DAF52EA43057FF4EBAE12E74FF0FF3C06E000BF4FF0010C02E000BF4FF0010C4DF804CD4FEA410C7FEA6C5C4FEA430CF6
:4024C00018BF7FEA6C5C1BD001B050EA410C0CBF52EA430C91EA030F02BF90EA020F0020704710F1000F91EA030F58BF994208BF90422CBFD8176FEAE37040F00100704715
:402500004FEA410C7FEA6C5C02D150EA013C07D14FEA430C7FEA6C5CD6D152EA033CD3D05DF8040B704700BF8446104662468C461946634600E000BF01B5FFF7B7FF00289F
:4025400048BF10F1000F01BD4DF808EDFFF7F4FF0CBF012000205DF808FB00BF4DF808EDFFF7EAFF34BF012000205DF808FB00BF4DF808EDFFF7E0FF94BF012000205DF8E4
:4025800008FB00BF4DF808EDFFF7CEFF94BF012000205DF808FB00BF4DF808EDFFF7C4FF34BF012000205DF808FB00BF4FEA4102B2F1E04324BFB3F5001CDCF1FE5C0DD97D
:4025C00001F0004C4FEAC0024CEA5070B2F1004F40EB830008BF20F00100704711F0804F21D113F13872BCBF01F00040704741F480114FEA5252C2F11802C2F1200C10FA52
:402600000CF320FA02F018BF40F001004FEAC1234FEAD32303FA0CFC40EA0C0023FA02F34FEA4303CCE77FEA625307D150EA01331EBF4FF0FE4040F44000704701F00040A2
:4026400040F0FE4040F40000704700BF02440346934202D003F8011BFAE770470EB400B59CB04FF402711DABADF81410029006906FF000410A48049107914FF6FF7153F80C
:40268000042BADF816100068019302A900F076F8029B00221A701CB05DF804EB03B070470C43020810B5034642B111F8014B03F8014B013A002CF7D11A4400E010BD934253
:4026C00002D003F8014BFAE710BD2DE9F0478E689E4282460C46914698463ED88A8912F4906F3AD0256809696F1A6569022305EB450595FBF3F57B1C43449D4238BF1D4665
:4027000053050FD5294600F08FFB064698B13A46216900F015FBA38923F4906343F08003A38113E02A4600F0DDFB064670B92169504600F02BFB0C23CAF80030A38943F06F
:402740004003A3814FF0FF30BDE8F087266165613E44ED1B2660A5604646464528BF464632464946206800F0F6FAA3689B1BA36023681E4426600020BDE8F0872DE9F04F45
:402780009DB0804603938B891C060D4616460DD50B695BB9402100F047FB2860286118B90C23C8F80030CDE040236B610023099320238DF82930DFF89CB130238DF82A307B
:4027C00037463C4614F8013B1BB9B7EB060910D003E0252BF9D02746F3E74B46324629464046FFF772FF013000F0A780099B4B4409933B78002B00F0A08000234FF0FF32ED
:4028000004930793059206938DF853301A930126052221784E4800F043FA671C049B38B14B4A801A06FA00F0184304903C46EFE7D90644BF20228DF853201A0744BF2B22DA
:402840008DF8532022782A2A03D0079A00210A200BE0039A111D12680391002A10DA524243F00200079204900BE0274601343B78303B092B03D800FB02320121F5E701B14C
:4028800007923B782E2B1ED17B782A2B0AD1039B1A1D1B680392002BB8BF4FF0FF330237059310E000230593781C19460A24074601303A78303A092A03D804FB01210123D7
:4028C000F5E703B1059103223978224800F0E8F940B14023CBEB000003FA00F0049B18430490013739781C488DF8281006227E1C00F0D6F988B1194B33B9039B073323F01D
:4029000007030833039314E003AB00932A46144B04A94046AFF3008007E003AB00932A460F4B04A9404600F093F8B0F1FF3F824603D0099B5344099342E7AB895B0601D4DF
:40294000099801E04FF0FF301DB0BDE8F08F00BFBE350810C4350810C835081000000000CB2608102DE9F04791461F460A698B68DDF820809342B8BF1346C9F8003091F8FA
:40298000432006460C4612B10133C9F800302368990642BFD9F800300233C9F80030256815F0060510D104F1190A07E00123524639463046C04701301AD00135E368D9F83A
:4029C00000209B1A9D42F1DB94F843302268003318BF012392060FD5E1185A1C302081F84300224494F8451082F84310023303E04FF0FF30BDE8F08704F1430239463046C4
:402A0000C0470130F4D02268D9F80050E36802F00602042A08BF5D1B2269A3680CBF25EAE57500259342C4BF9B1AED184FF000091A344D4509D00123224639463046C047B3
:402A40000130D5D009F10109F3E70020BDE8F0872DE9F04317460A7E85B06E2A984606460C460C9B01F1430E00F0AE8011D8632A22D009D8002A00F0BB80582A40F0CA804D
:402A800081F84520834955E0642A1ED0692A1CD0C0E0732A00F0B08009D86F2A2ED0702A40F0B8800A6842F020020A603EE0752A24D0782A3AD0ADE01A6801F14205111D62
:402AC0001960136884F84230A8E021681A6811F0800F02D0111D196008E011F0400F02F10401196002D0B2F9003000E01368002B3CDA2D225B4284F8432037E021681A6879
:402B000011F0800F02D0111D196007E011F0400F02F10401196001D0138800E01368227E5C496F2A14BF0A2208221BE078225A4984F845202268186812F0800F00F1040568
:402B40001D6003D1550601D5038800E00368D00744BF42F0200222601BB9226822F0200222601022002084F8430001E049490A226568A560002D08DB206820F0040020608B
:402B80002BB9002D7DD175460CE0002B79D07546B3FBF2F002FB1033CB5C05F8013D03460028F5D1082A0BD12368DA0708D5236962689A42DEBF302305F8013C05F1FF359A
:402BC000C5EB0E0323612EE008681A68496910F0800F03D0101D1860136808E010F0400F02F104001860136801D0198000E0196000232361754616E01A68111D196015687A
:402C000062680021284600F04BF808B1401B6060636804E004F1420584F8422001232361002384F84330CDF800803B4603AA21463046FFF797FE013002D14FF0FF3026E05E
:402C400023692A4639463046C0470130F5D023689B0710D5002504F1190907E001234A4639463046C0470130E7D00135E368039A9B1A9D42F2DBE068039B9842B8BF184685
:402C800005E00B7884F8423004F142058AE705B0BDE8F083CF350810E03508100000000001F0FF01102A2BDB10F0070F08D010F8013B013A8B422DD010F0070F42B3F6D1C1
:402CC000F0B441EA012141EA014122F007047FF000070023F0E80256083C85EA010586EA010685FA47F5A3FA87F586FA47F6A5FA87F68EB9EED1F0BC01F0FF0102F0070215
:402D000032B110F8013B013A83EA010313B1F8D10020704701387047002D06BF35460338073815F0010F07D1013015F4807F02BF013015F4C03F0130F0BC0138704700BFD9
:402D400010B5431E0A44914204D011F8014B03F8014FF8E710BD884210B501EB020301D8421E0BE09842FBD28118D21AD34204D013F8014D01F8014DF8E710BD994204D038
:402D800011F8014B02F8014FF8E710BD38B50546002946D051F8043C0C1F002BB8BFE41800F0D6F81F4A1368114613B96360146032E0A3420ED92268A018834204BF1868DB
:402DC0005B68636004BF121822600C6024E0A24203D813465A68002AF9D118681918A1420BD12168014458188242196014D1106852685A60014419600EE002D90C232B60A3
:402E00000AE021686018824204BF10685268626004BF091821605C602846BDE8384000F098B838BD544B020870B5CD1C25F0030508350C2D38BF0C25002D064601DBA94299
:402E400002D90C23336046E000F082F8234B1C681A462146A1B10B685B1B0ED40B2B03D90B60CC18CD501EE08C420DBF63684B686360136018BF0C4615E00C464968E9E794
:402E8000174C23681BB9304600F052F820602946304600F04DF8431C18D0C41C24F00304A0420DD12560304600F053F804F10B00231D20F00700C31A0ED05A42E25070BDC1
:402EC000211A304600F034F80130EBD10C233360304600F03EF8002070BD00BF544B0208504B0208F8B5074615460E4621B91146BDE8F840FFF798BF1AB9FFF747FF2846DF
:402F0000F8BD00F027F885420ED929463846FFF78BFF044650B131462A46FFF711FF31463846FFF733FF01E03046F8BD2046F8BD38B5064C002305460846236000F014F8BC
:402F4000431C02D1236803B12B6038BDBC4B02087047704751F8040C0028BEBF091851F8043CC01804387047044A05491368002B08BF0B461844106018467047584B020886
:402F8000C04B0208F8B500BFF8BC08BC9E467047F8B500BFF8BC08BC9E46704747656E6572617465645F536F757263655C50536F43365C70646C5C647269766572732F7022
:402FC00065726970686572616C2F7363622F63795F7363625F756172742E68002D000000257325642E253034640000005375636365737366756C6C79207265736574206426
:403000006174612C2072783A20307825303258203078253032580A0A0D00000052657365742064617461206661696C65642C20657870656374656420307834312C20676F4C
:40304000742072783A20307825303258203078253032580A0A0D00005375636365737366756C6C792073657420646174612C2072783A203078253032582030782530325840
:403080000A0A0D004661696C656420746F2073657420646174612C20657870656374656420307830312C20676F742072783A20307825303258203078253032580A0A0D0071
:4030C00048656C6C6F20576F726C642C20494D550A0A0D005375636365737366756C6C792073657420494D5520706F776572206D6F64650A0A0D0D004661696C65642074C7
:403100006F2073657420494D5520706F776572206D6F64650A0A0D0D00000000416363583A0000002C416363593A00002C4163635A3A00002C4779726F583A002C47797286
:403140006F593A002C4779726F5A3A000300000001000000010000000000000005036000040000000100000000000000010000000604600008000000C84A020801080810CA
:403180002E000000070000002A00000007000000000000000C0000000800000000020000000000000000000000000000000000000000000000000000000000000B00000088
:4031C0000000000000000000000000000000000047656E6572617465645F536F757263655C50536F43365C70646C5C647269766572732F7065726970686572616C2F69702F
:40320000632F63795F6970635F6472762E68000047656E6572617465645F536F757263655C50536F43365C70646C5C647269766572735C7065726970686572616C5C69704A
:40324000635C63795F6970635F6472762E68000047656E6572617465645F536F757263655C50536F43365C70646C5C647269766572735C7065726970686572616C5C6970DD
:40328000635C63795F6970635F6472762E63000047656E6572617465645F536F757263655C50536F43365C70646C5C647269766572735C7065726970686572616C5C6970A2
:4032C000635C63795F6970635F706970652E630047656E6572617465645F536F757263655C50536F43365C70646C5C647269766572735C7065726970686572616C5C736303
:40330000625C63795F7363625F636F6D6D6F6E2E6800000047656E6572617465645F536F757263655C50536F43365C70646C5C647269766572735C70657269706865726185
:403340006C5C7363625C63795F7363625F7370692E63000047656E6572617465645F536F757263655C50536F43365C70646C5C647269766572735C706572697068657261E9
:403380006C5C7363625C63795F7363625F756172742E680047656E6572617465645F536F757263655C50536F43365C70646C5C647269766572735C70657269706865726134
:4033C0006C5C7363625C63795F7363625F756172742E630047656E6572617465645F536F757263655C50536F43365C70646C5C647269766572735C706572697068657261F9
:403400006C5C737973696E745C63795F737973696E742E63000000000000204000002440000000400000000000002340000030400000314000009F4000002240000010406F
:4034400002020202020202020210101D800017007500FF030602063604102000000000007FC0000000040000000000000019324B647D00804000080B100000000000FF01DA
:403480002002001F00800004FF081018001000140018001C4044484C500000000810000008000000040000000410000000120000042100000021000000160000401140021F
:4034C000C41300138013A013200000001C0000000000214000002540000001400000344000002440000031400000324000001F410000234000001140010101010101010182
:4035000001101010800019005500F0000501053B04101C01010000000FC000000004000001010101011D3A57789600082000101208000000001F00000010000F00200002BE
:403540003F06080E00080009000A000B24282C3034000000100000009000000088000000080000008000000004F0000000F00000400200002005A000D00100018001A0015F
:403580002000000010000000010003001000000008000000080000000100000000000000000000000000000000000000000000000000000000000000000000004300232D23
:4035C000302B2000686C4C006566674546470030313233343536373839414243444546003031323334353637383961626364656600000000000000000000081000400208C6
:403600008C020000183608108C4202082C0600004C490208740200000048E80100127A0000093D0000127A0000127A0008000000401F00000000A00F000000000000000046
:40364000000000000000000000000000000000000000000000000000BC35081000000000000000000000000000000000000000000000000000000000000000000000000041
:40368000000000000000000000000000000000000000000000000000AC420208B10208108D0208100000000080B2C10050B3164B1B681A6AB3F8B030C3EBC303D358002BED
:4036C000F5DA3E22114B1A6041F61E7204331A60A3F584730622C3F8182521F07F41C3F81C15D3F81C35084B1A68116AB2F8B030C3EBC3030B4400225A60054BD3F81C35E0
:40370000002BFADA704700BF944B02080401264000002640F8B5274B1B6893F83130052B04D840F2C311244800F074FA214F3A68166AB2F8B03003EB83031E4452684FF203
:403740006003D458A4B200F06DFA05463B681968D3F890208A58013C032C27D8032A0CD1164A127812F0FF0F07D10822B2601968D3F890208A58032AF9D01968D3F88420FA
:403780008B588858C0F307221B0E581C02FB00000B4B03FB00F00B4B1B680B4AA2FB03239B09B0FBF3F08230FFF77EFF284600F019FAF8BD944B0208D03108100B000016FB
:4037C00040420F0090420208D34D62104378FF2B23D110B500F026FA0446104B1B6893F83130042B04D840F2C3110D4800F012FA0A4B1A68136AB2F8B02003EB8203DB6822
:403800005A68136843F001031360136813F0010FFBD1204600F0E6F910BD7047944B0208D03108102DE9F04707468846554B1B6893F83130012B04D840F2C311524800F07D
:40384000E9F9504B1B681C6AB3F8B0201444D3F8B420161993F85030002B79D04B4B1B7813F0FF0F02D04FF0000901E04FF00109B9F1000F38D0434B1B6893F83130052B36
:4038800004D840F2C311404800F0C4F93D4B1A68116AB2F8B03003EB83030B44D2F8B420D358002B22DB002000F0C4F9384B98421ED00023374A12690121184600F082F90C
:4038C00018B1354D17E0013500E00025002000F0B1F92F4B984202D0304B9D42F3D92F4B9D4207D92C4D06E0002504E02A4D02E0294D00E00025002D41D100F093F982464D
:40390000274BD3F81C35002B10DA224A0121204600F078F960B94046FFF7C6FE57B13368002BFCDB00F056F9054604E01A4D02E0194D00E01B4DB9F1000F05D0012100205C
:4039400000F058F90028F9D1504600F04BF916E000F068F980460F4A0121204600F052F938B947B13368002BFCDB00F033F9054602E0094D00E00B4D404600F033F92846B4
:40398000BDE8F087944B0208D03108100B00001601018800E84A020805005200EF4902000000264001005000F0B47F4B1A6855684FF0B0535B7813F0FF0F04D04FF0B053D1
:4039C0005B78DBB200E02123212B55D1116AB2F8B030C3EBC303CC18CB58002BF6DAE36843F00103E360146AB2F8B030C3EBC3031C44E36813F0020F2DD0E3689EB2136843
:403A0000D2F884105958090A090401F47F01D2F88870DB591B0A41EA03633343E3601168D2F884208B5823F47F4343F410638B505D4A13681C68D3F88810635823F47F43B8
:403A400043F41063635013681A68D3F884105158D3F88830D358544B1A68116AB2F8B030C3EBC3030B4400215960116AB2F8B030C3EBC3030B445B684B4B19680C68D1F894
:403A800094301C44494A136943F004031361012801D030BF07E020BF454B1B7803B120BF0122434B1A70236803F00303022BE9D00A6AB1F8B030C3EBC303D018D358002B6C
:403AC000F6DA4FF0B0535B7813F0FF0F04D04FF0B0535B78DBB200E02123212B30D1C36813F0020F1FD00C68D1F88410635823F47F42C3681B0C1B0203F47F431343635026
:403B0000294B19680C68D1F88800235823F47F420D6AB1F8B030C3EBC3032B44DB681B0E42EA03232350204B1A68136AB2F8B020C2EBC2021344DA6822F00102DA6026E021
:403B4000D5F80C311BBB1B490E681B4BD3F818451A4A106841F61E770F600621C3F818153E2111604422C3F81C25134BD3F81C35002BFADA4FF0AA33C5F80C310D4B1E6040
:403B8000A3F58473C3F8184503F582731860064B1A68116AB2F8B030C3EBC3030B4400225A60F0BC704700BF944B020800ED00E0104B020808012640000026400401264005
:403BC0000000000001B40248844601BC604700BFC50F081001B40248844601BC604700BFBD0A081001B40248844601BC604700BF731C081001B40248844601BC604700BFA3
:403C0000690D081001B40248844601BC604700BFE50B081001B40248844601BC604700BF911B081001B40248844601BC604700BF6B1C081001B40248844601BC604700BFDB
:403C4000F10D08100000000000000000000000000000000000000000000000000000000000000000000000000000000000000000000000000000000000000000000000002E
:403C80000000000000000000000000000000000000000000000000000000000000000000000000000000000000000000000000000000000000000000000000000000000004
:403CC00000000000000000000000000000000000000000000000000000000000000000000000000000000000000000000000000000000000000000000000000000000000C4
:403D00000000000000000000000000000000000000000000000000000000000000000000000000000000000000000000000000000000000000000000000000000000000083
:403D40000000000000000000000000000000000000000000000000000000000000000000000000000000000000000000000000000000000000000000000000000000000043
:403D80000000000000000000000000000000000000000000000000000000000000000000000000000000000000000000000000000000000000000000000000000000000003
:403DC00000000000000000000000000000000000000000000000000000000000000000000000000000000000000000000000000000000000000000000000000000000000C3
:0200000490303A
:0200000002E814
:0200000490501A
:0C0000000005E20721002101E22923E8AD
:00000001FF