:020000041008E2
:4000000000780408EB0208100D00000051030810510308105103081051030810000000000000000000000000000000004D0308104D030810000000004D0308104D030810DA
:400040004D0308104D0308104D0308104D0308104D0308104D0308104D0308104D0308104D0308104D0308104D0308104D0308104D0308104D0308104D0308104D03081000
:400080004D0308104D0308104D0308104D0308104D0308104D0308104D0308104D0308104D0308104D0308104D0308104D0308104D0308104D0308104D0308104D030810C0
:4000C0004D0308104D0308104D0308104D0308104D0308104D0308104D0308104D0308104D0308104D0308104D0308104D0308104D0308104D0308104D0308104D03081080
:400100004D0308104D0308104D0308104D0308104D0308104D0308104D0308104D0308104D0308104D0308104D0308104D0308104D0308104D0308104D0308104D0308103F
:400140004D0308104D0308104D0308104D0308104D0308104D0308104D0308104D0308104D0308104D0308104D0308104D0308104D0308104D0308104D0308104D030810FF
:400180004D0308104D0308104D0308104D0308104D0308104D0308104D0308104D0308104D0308104D0308104D0308104D0308104D0308104D0308104D0308104D030810BF
:4001C0004D0308104D0308104D0308104D0308104D0308104D0308104D0308104D0308104D0308104D0308104D0308104D0308104D0308104D0308104D0308104D0308107F
:400200004D0308104D0308104D0308104D0308104D0308104D0308104D0308104D0308104D0308104D0308104D0308104D0308104D0308104D0308104D0308104D0308103E
:400240004D0308104D0308104D0308104D0308104D0308104D0308104D0308104D0308104D0308104D0308104D0308104D0308104D0308104D0308104D0308104D030810FE
:400280004D0308104D0308104D03081010B5054C237833B9044B13B10448AFF300800123237010BD7C75020800000000803D0810084B10B51BB108490848AFF3008008489D
:4002C000036803B910BD074B002BFBD0BDE81040184700BF0000000080750208803D081038460208000000007047FFF7FDFF72B6104C114DAC4209DA21686268A368043B5A
:40030000A2BFC858D050FAE70C34F3E70B490C4A00209142BCBF41F8040BFAE709480A490860BFF34F8F00F011FA00F0EBF900F013F9FEE7A81E0910C01E09107C750208C3
:40034000AC7F02080040020808ED00E0FEE7FEE700B504207146084202D0EFF3098001E0EFF30880043001F09FF8FEE710B5054C054A0649204600F05DFE236843F00043F6
:40038000236010BD00006640407F0208BC31081010B5044620B940F2A551044801F074F82146034800F02EFE10BD00BFB82E08100000664008B544F20803984218D045F2CB
:4003C000010398420AD0B0F5805F1DD10F48FFF7DFFF0021084601F02FFB08BD0C48FFF7D7FF01220B4B1A7040220B4B5A6008BD0A48FFF7CDFF0020064B18704022064B3F
:400400009A60014601F018FB08BD00BFF82E0810082F08103C7F020880053240202F081030B587B040B90A46194901A802F0AAF801A8FFF7ADFF29E0012803D11548FFF79B
:40044000A7FF23E0032807D101AC134D0FCD0FC495E80F0007C419E0072803D10F48FFF797FF13E0112803D10D48FFF791FF0DE00E2803D10B48FFF78BFF07E001AC0A4D4E
:400480000FCD0FC40FCD0FC46B88A37007B030BD3C2F0810582F0810882F0810A82F081004300810203008104C30081000B587B00022224B1A702248FFF76AFF214800F0E5
:4004C00059F901E003F092FD1F4B1B78022BF9D180221E4B5A601E48FFF75AFF01E003F085FD164B1B78002BF9D01A48FFF750FF00238DF814301222ADF808200122ADF83F
:400500000420ADF80C308DF8103006A805AB40F8183D0CF0A9FB9DF81410FFF781FF9DF8143001338DF8143003F060FD01E003F05DFD024B1B78002BF9D0E6E73C7F02087D
:4005400040310810B5030810807F020880053240543108106C31081008B562B6FFF706FFFFF7A4FF08B5012000F0E8FC08BD00BF704700BF5C4AD2F8803303F00F0303F19F
:40058000D00152F8212002F00702032A04D0042A05D092B9554914E0554A116811E003F1C002514951F8222002F01F02112A06D0132A04D04FF4FA4103E04E4901E04FF4CE
:4005C00000418BBB484BD3F8902502F00100D3F88825C2F30172D3F8883513F0405F07D0414BD3F88835C3F30173012B02D102E0012300E0002303B108B9032A46D13A484C
:40060000D0F88025C2F31103D0F88425C2F30C02D0F88005C0F300600130B1FBF2F202FB03F2B2FBF0F131E0012B2FD12E4BD3F8402602F00100D3F80026C2F30172D3F8F1
:40064000003613F0405F07D0274BD3F80036C3F30173012B02D102E0012300E0002303B108B9032A12D12048D0F8002602F07F02D0F80036C3F30423D0F80006C0F3044038
:4006800002FB01F2B2FBF3F2B2FBF0F1164BD3F88033C3F3011321FA03F215494A601648D0F89030C3F3072301330069000E0130B2FBF0F08860B2FBF3F3CB600B6103F530
:4006C000742202F23F220D48A0FB0202C2F387420A7503F2E7330A4AA2FB03239B098B61DB03CB61704700BF0000264000127A008C42020800366E010000214083DE1B4359
:40070000D34D621008B50D4800F094FFFFF730FFFFF730FF00221146042000F0C1F9084800F054FA074B1B6893F8513013B1064800F0BCFA00F0FEF808BD00BF5C360810C6
:4007400098750208787F02088831081008B500F008FF074AD2F8883043F47003C2F88830BFF34F8FBFF36F8F00F0FFFE08BD00BF00ED00E008B518B1094AD062002000E064
:40078000084858B9084B1B782BB9054800F0DAFF0122054B1A7008B900F0FEFF08BD00BFAC42020801001600187702081F4B98422DD00CD840282ED003D8E8B1102828D0F2
:4007C0002FE0802829D0B0F5807F28D029E0184B984228D006D8B0F1204F0DD0154B984212D01EE0144B98420AD00133984209D0023B984215D101E0002070470F487047CD
:400800000F4870470F4870474FF4A0007047074870470D4870470D4870470D487047034870470C4870474FF4A400704706005200010000F0090000A0040000F001005200F4
:400840000200520003005200010050000200500005005200FF00520038B5124B1B6893F83130012B04D840F2C3110F4800F00CFE0C4B1D682A6AB5F8B03013442C46D5F8D9
:40088000B420D358002B0BDB084B1868FFF78EFF6B6801229A6063689B68002BFBD138BD034838BD787F02089C33081020770208020050001A4B186128B102230370FF239C
:4008C000437000234380174B1B6893F850202AB300B583B0B3F93830ADF80030002301931149684600F07CFDBDF90030002B08DB590903F01F03012202FA03F30B4A42F89A
:400900002130084B1B6893F8513023B102220849012000F077FA03B05DF804FB704700BF20770208787F0208A946020800E100E06147020808B50248FFF7BCFF08BD00BFF2
:400940003477020838B50B4B1B68D3F8B4301B58002B0DDA0D4604460B0C1B0423B140F2D521054800F090FDA9B26160002038BD024838BD787F0208DC33081001008A000C
:4009800038B50368002B01DA002300E0094B73B90D460446C2600B0C1B0423B140F2BB21054800F071FDA9B2A160002038BD014838BD00BF01008A00DC33081038B504467D
:4009C0000D4619B99921084800F05EFD074B1B68D3F8B4301B59002B03DAE3682B60002038BD034838BD00BF1C340810787F020801008A00254B1B6893F8313083423AD9E8
:400A000000293AD00B6813F01F0F38D170B50D4604461E4B1B6893F83130984204D340F2C3111B4800F030FD184B1B68186AB3F8B03004FB0304174E34602A68D208002186
:400A4000686801F097FD00212046FFF77BFF346825B940F293310E4800F016FD2A4600212046FFF78DFF60B900210A4B1868FFF769FF40B970BD08487047074870470648FA
:400A80007047064870BD054870BD00BF787F0208DC3308103877020803018A0001018A0010B504461346B2B9A9B9124B1B6893F83130984204D340F2C3110F4800F0E4FCF1
:400AC0000C4B1B681A6AB3F8B03004FB03240B4B1C60002010BD43B149B1084A51609360111D2046FFF786FF10BD054810BD044810BD00BF787F0208DC3308103877020895
:400B000003018A002DE9F0411B4B1B68DC68236883422CD90D464609A0EB4610012303FA00F819B900F01DFD074600E00027124B18680368002B01DA002300E00F4B83B9AB
:400B4000626852F8263018EA030F05D023EA080342F82630002400E0094C0021FFF7F2FE00E0084C25B9384600F0FFFC00E0064C2046BDE8F08100BF3877020801008A00EE
:400B8000020188000301880004018A000B4B1B68DB681A6882420CD94109A0EB4110012202FA00F05B6853F82130184203D004487047044870470448704700BF3877020806
:400BC0000101880004018A0000018800024B1B680BB9014B18607047447702082DE9F8430446884691461D46089F2C4B1B681BB9B5212B4800F048FC284B1B682C2000FBAD
:400C000004F01C18EEB21E50C5F3072363602D0CA560244B1B6893F831309E4204D340F2C311214800F030FC1E4B1B68196AB3F8B02006FB02162661666893F832309E4256
:400C400004D340F2DF11184800F01EFC154B1B681D6A803605EB46156561A668330C1B0423B14FF4FF71104800F00EFC330C1B0423B140F2FF110C4800F006FCB3B243EA4F
:400C80000646AE60C4F81C90C4F820800023A36117B1B7F90030A381BDE8F883447702085C340810787F0208DC330810F0B58FB0044618B95221274800F0E6FBA369072B7E
:400CC00003D95621234800F0DFFBE36A1BB95821204800F0D9FB236B1BB959211D4800F0D3FB07AD04F114060FCE0FC537682F6002AD26460FCE0FC533682B60164B1B682F
:400D0000B3F93620079B1344ADF83030089B0D93A26AE16A0CAD00953B460A98FFF75EFF00210091069B0A460598FFF757FF216B284600F055FBBDF93030002B08DB590909
:400D400003F01F03012202FA03F3044A42F821300FB0F0BD5C340810787F020800E100E0F8B506460F461D4614461AB9FD211F4800F08AFB1E4B1B681BB9FE211B4800F090
:400D800083FB1B4B1B682C2101FB063001FB07314B68012202FA03F31B04466802FA06F60269EAB18F69EFB91268002A01DA002200E0104AC2B92288134323600369DC6065
:400DC00001238B614D620469330C1B0423B140F2BB21094800F058FBB2B2A2600020F8BD0648F8BD0648F8BD0548F8BD5C3408104477020801008A00DC33081004028A0001
:400E000007028A00F8B505460F4616460E4B1B6823B94FF4AF710D4800F036FB0A4B1B682C2404FB0534236A23B94FF4B171074800F02AFBE369B34204D9236A43F82670D7
:400E40000020F8BD0248F8BD447702085C3408100A028A0038B504460D46074B1B6823B94FF4C871054800F00FFB034B1B682C2202FB0434A56238BD447702085C340810E0
:400E800070B582B000230193044620B940F2D111284800F0F9FA236923B94FF4E971254800F0F2FA636923B940F2D311214800F0EBFA236A23B94FF4EA711E4800F0E4FA15
:400EC0006369DD682A0C20D012041A601B682069194B1B68D3F8B430C358002B15DA01A9FFF76CFD60B9019803681E0CDBB2E269934206D2226A52F8233013B1984700E0D3
:400F0000002631462069FFF71DFDADB275B16369ADB21D601B68636A1BB198470023636202E0A36A03B198470023A36163691B6802B070BD5C340810787F020810B50446DC
:400F4000074B1B6823B940F2B111064800F09CFA034B1B682C2000FB0430FFF791FF10BD447702085C34081010B50446104B1B6823B940F22B210F4800F086FA0C4B1B6804
:400F80002C2202FB0434B4F90C30002B0DDB5A0903F01F03012101FA03F32032064941F82230BFF34F8FBFF36F8F002010BD00BF447702085C34081000E100E010B50446D2
:400FC0000D4B1B6823B940F24B210C4800F05CFA094B1B682C2202FB0434B4F90C30002B08DB590903F01F03012202FA03F3044A42F82130002010BD447702085C340810F2
:4010000000E100E030B4036813F4006F01D0802200E04022002408E0D0F80832C3F308039A42F9D0C0F8405201340D5D002DF3D130BC7047002800F0A48170B505460029AE
:4010400000F0A18116460C460B78022B03D93F21A24800F019FA637B023BDBB2062B03D940219E4800F010FAA37B3BB1022B05D0032B03D04121994800F006FA94F82130C4
:40108000012B03D94221954800F0FEF994F82830012B03D94321914800F0F6F92378012B06D86368083B082B94BF0023012307E0A37F2BB16368013B062B94BF00230123C2
:4010C0001BB14521854800F0DFF9A368053B042B03D94621814800F0D7F96369FF2B03D947217E4800F0D0F9A369FF2B03D948217A4800F0C9F9A37C6BB1237833B9A3686E
:40110000092B05D1A37B2BB1012304E0012302E0012300E000231BB14A21704800F0B4F9636B23F4366323F00D031BB14C216B4800F0AAF9E36B23F4EE6323F003031BB12F
:401140004D21664800F0A0F92378022B01D1A37F13B16268013A00E00022237F13B14FF4803100E00021A368082B02D84FF4006300E000230B4302F00F02134343F00073DA
:401180002B60226B2B6813F4006F01D0802300E040239A4203D36221504800F075F9A26B2B6813F4006F01D0802300E040239A4203D36321494800F067F9626A2B6813F4E2
:4011C000006F01D0802300E040239A4203D36421424800F059F923781B0603F040732B64637F0BB1402200E00022A37C13B14FF4806300E000231343227C12B14FF48072DB
:4012000000E000221343627C12B14FF4007200E000221A43E36A013B1B0403F470231343627B013A02F007021343A27B120102F030021343AB64237B13B14FF4807200E080
:401240000022E37B23B92378022B03D1012302E0012300E0002313B14FF4007300E000231A43A368013B03F00F031343C5F80033227DA3691B0403F47F031343C5F8103344
:40128000E26AD5F8003303F00F0303339A4201D3102A03D97A21114800F0F6F8E37F23B12378012B03D0002302E0002300E0012313B14FF4807200E00022637B013B03F00B
:4012C00007031A43A37B1B0103F0300313436B64237B2BB14FF4807203E000BF203508100022A368013B03F00F0313432278012A02D14FF4803200E000221343C5F80032AC
:4013000094F83030C5F8043394F8203013B14FF0007200E0002294F82130012B02D14FF0807300E00023134394F82820012A02D14FF4803200E00022134394F824201343CE
:401340002B6594F83830C5F80432636B23F4926323F002031B051B0DC5F8C83FE36B23F08C035B055B0DC5F8883F76B1002070603060B060F0603062F0623063044B736319
:4013800070BD04487047034870BD002070BD00BFEFCDAB000160AA0038B50D4B9A680D4B9A420FD10D46044621B940F237110A4800F06AF804F11003064A52F8230042F818
:4013C000235038BD1030054B53F8200038BD00BF00ED00E000400208603508100000081048B338B504460D464368072B03D93221134800F049F8B4F900306268002B08DB28
:401400005201D2B203F1604303F5614383F8002305E003F00F035201D2B20A49CA540A4B9A680A4B9A4208D12946B4F90000FFF7B3FF002038BD06487047002038BD00BFBF
:401440006035081014ED00E000ED00E0004002080100560010B5044605E0084B186800F077F8A4F50044B4F5004FF6D8044B186800FB04F000F06CF810BD00BFA842020815
:40148000A442020801BEFEE738B50D46044C18220146204601F09AF8A5610020FFF7F2FFD84B0208FEE700BF08B50268254BDA6142681A6282685A62C2689A620269DA6255
:4014C00042691A6382695A63C2699A631E4A916AD963D16A1964516A5964516B9964926BDA64F1EE103A13F0900F27D0026A154B1A65426A5A65826A9A65C26ADA65026BF6
:401500001A66426B5A66826B9A66C26BDA66026C1A67426C5A67826C9A67C26CDA67026DC3F88020426DC3F88420826DC3F88820C26DC3F88C20026EC3F89020FFF7B2FF66
:4015400008BD00BFD84B020800ED00E0000000000230800803D001300238FCD100BF00BF7047EFF3108072B6704780F31088704710B30246C3680BB303680BB330B4057961
:40158000114B03EB85035C682346002103E0934205D019465B69002BF9D1012000E0002080B124B9084B03EB85056A6000E04A6111610023536105E000207047002070473B
:4015C0000020704730BC70474877020850B310B402460479164B03EB840359680B4602E0934204D05B69002BFAD1002000E00120D0B18A420ED14B6933B10D4A02EB84043E
:40160000636000221A610FE0094B03EB84040023636009E01A69596951615A6922B11B69136101E0002070475DF8044B704700BF48770208014B1860704700BF787F020867
:4016400010B5012902D0082929D02EE01A4B1B78012B2CD00320FFF799FA184B984228D0FFF77FFF164B1860022002F0C1FC044602F0C9FC022C05D1032805D0052805D14A
:40168000002404E00F4C02E0002400E00D4C0D4B9C420FD10A4B1868FFF767FF0AE0084B1868FFF762FF002404E0064C02E0054C00E0044C204610BD807F020801018800AA
:4016C00084770208FF00420008B502291CD0082914D001291ED1124B1B78012B1CD0FFF740FF104B5860022002F082FC022815D00C4B5868FFF739FF0B4808BD094B586840
:40170000FFF733FF002008BD064B5868FFF72DFF054808BD044808BD034808BD002008BD807F020884770208FF00420010B5044C2046FFF74BFF04F11800FFF747FF10BD31
:40174000D0430208B0B110B50B4A9060C36A03B1D3600024094B1C70094B1C70094B1C60094B1C7000F060F9084B1C70084B1C70204610BD0748704784770208947F0208D7
:40178000987F02089C7F0208997F02087F7F0208847F02080100160070B59AB0424D15AC28686968AA68EB680FC4286920604C22002102A800F0DEFE3C4B029315AB0493B4
:4017C00042F61013ADF8143005238DF81630384B9B681B69069341F2960307931B23ADF82030ADF8223003238DF8243004238DF8253006238DF8263010238DF827308DF8E7
:4018000028308DF829307223ADF84C3001238DF85030284C2046FFF7ABFE04F11800FFF7A7FE02F0E1FB08A802F038FC0346002836D1214B03931E4B9B68996B89B10B4659
:401840000DF12A0220311E685D689C68D868166055609460D060103310328B42F3D11B88138002A802F0E2FB0346B0B90122134B1A700023124A1370124A13700C4B9B6852
:401880001A6A00929B6ADB88ADF804300823ADF8063068460BF0CEF9034600210A4A116018461AB070BD00BF14370810F51D081084770208D04302086C4C0208807F02089E
:4018C000887F0208897F02089C7F020808B5044B1B689847034B1B6803B1984708BD00BFA87702089477020808B510B1034A52689047034B1B6803B1984708BDA87702085E
:401900009477020870B5C0B006460C4615464FF480720849684600F022FE05E016F8012B6A401DF80250013C002CF7D1284640B070BD00BF2837081008B50022FFF7E2FFE8
:4019400008BD00BF08B5FFF70CFE08BD08B5FFF70CFE08BD08B50120FFF730FB08BD00BF08B50120FFF700FB08BD00BF08B5094B58601960012208491046FFF743FA034681
:4019800028B9002205490120FFF73CFA0346184608BD00BFA8770208E9180810CD18081038B515460B46024601210020FFF7D8F9044618B129460120FFF74CFA204638BDFB
:4019C000704700BF704700BF002070470048704711001600004870471100160000487047110016000048704711001600004870471100160000487047110016000048704741
:401A0000110016000048704711001600004870471100160000487047110016000048704711001600704700BF08B5024800F078FD08BD00BFCC430208F8B5022872D800291E
:401A400072D10022134606E03B4CE45C012C01D90132D2B20133002BF6D0012A0CD1374B1B681C6801EB8102930023445B681B79023BDBB2012B59D8314B1B78002B57D13E
:401A8000304B1970E0B92D4F3C68236801EB8105AA009D186668C1EBC1014B001E44B18829822168114449686468E45A0C8039680C682244526849680B445B8853801EE032
:401AC00001281CD11D4F3C68236801EB8105AA009D186668C1EBC1014B001E44B1892982216811444D68616819440989298039680C682244526849680B445B895380124B59
:401B000018700E4B1B6818680E4B1B7803EB83039A00104406F034FE034650B90121084A117006E0094B04E0084B02E0084B00E0084B1846F8BD00BF887F02088C7702083B
:401B4000897F02087E7F0208997F02080100160002001600FF00160070B439B9144B1B681B689968CE7F00231D460EE0104B1B681B68D968CE7FF6E7CA5C52B10133CC5C58
:401B80001B2C01D0134400E00125B34201D2002DF2D05DB101338279CA54002204E0D4180134855C0D550132052AF8D970BC70478C77020870B504460BF056F8054620BB33
:401BC000134B1968086A228902EB82029300143B03445A6812F0007F17D0E67B1B695A68CB69D21A06EB8606B318A28821680948184400F0B4FCE37B074AD35C012B04D137
:401C0000064A137843F002031370284670BD00BF8C7702088C7F0208847F02087F7F020830B587B002891A4B1B685B699B889A4229D1044601AB07C883E807000022ADF833
:401C40001020A289ADF8122040228DF814201846FFF7B0FF054680B923681B7803F002039BB22BB10B4B1B6821460B48984704E0084B1B68214609489847094A137803F0BD
:401C8000FE03137000E00025284607B030BD00BF8C770208907702080500010006000100947F02084288531E9BB2122B1AD84178D1B910B40F4B1868046A02EB8202930078
:401CC000143B23445A6812F0007F0FD01B695A68C369D31A01EB81011944074B5B5A1380002004E0012070470120704700205DF8044B70478C7702088C7F020800B583B00F
:401D00000023ADF804308389ADF800300389ADF8023012238DF80430084B1B7813F0010F09D129B18DF8051068460AF0C7F802E0C0680AF0E3F803B05DF804FB947F0208C4
:401D400010B4044688B10023194606E0104A52F82320944200D1012101330D4A1279934206D20029F2D0002003E00021094800E0002050B949B9064B1B792BB9044A42F885
:401D800023400133137100E003485DF8044B7047A07F0208010016000300160070B506460D460020044606E0084B53F824302946304698470134054B1B799C4204D2044B43
:401DC0001B7813F0010FEFD170BD00BFA07F0208947F020883792BB100207047C25C32B9013300E00023052BF8D9002070470120704700BF70B58CB004460D46BF4A13785B
:401E000043F00103137044F20803984200F04C823CD842F20403984200F0F08019D841F20203984200F0178108D8B0F5805F76D041F20103984200F00B8157E341F2030351
:401E4000984200F0418141F20403984200F049834CE343F2190398425BD00AD843F20103984200F0B98043F21203984200F0B4803CE344F20603984200F01A8200F2CD8117
:401E800044F20403984200F032812FE345F20C03984200F0DD821BD845F20103984200F046820AD844F20A03984200F0B38144F21003984200F0B18118E345F202039842AE
:401EC00000F0808245F20303984200F0B7820DE345F21003984200F0F6820AD845F20E03984200F0EA8245F20F03984200F0E882FCE245F21703984200F0EB8246F20103B5
:401F0000984200F0118245F21403984240F0EE82DCE27A4A137803F0FE031370E6E2784B1E683046FFF756FF60B1304607F01EFC734E00213068FFF70FFE01213068FFF761
:401F40000BFE37E06F4B1A68936A1B791BB34FF0B05191F8043603F03F0391F8050600F03F0043EA801391F8030600F01F0043EA003391F8001601F07F0143EA4143126BAC
:401F80001370604A1168096BC3F3072048701268126B1B0C93705B4E3368186B07F0E6FB33680021186BFFF7D7FD33680121186BFFF7D2FD534B1B68986A023007F0ECFF6D
:401FC000514A05AB1068516803C305A807F0F2FB02224E4B1A7089E200234C4A13704C4A13704C4A13700A20FFF734FA43F212039C4240F07B82FFF799FB77E2464B1B6854
:4020000013F0010F40F072820023ADF814308DF816303C4E33689B6A93F900308DF8143005A807F0E1FB33689B6A93F901308DF8143001238DF81530FF238DF8163005A8B5
:4020400007F0D2FB344A136843F0010313604DE2FFF7A4FE4AE24978304B1B88ADF81430002319E02E4A32F81320ADF808209DF8092012B92B48825C00E00022012A0AD996
:40208000274A12F81320914205D1254A32F81330ADF8143002E00133002BE3D09DF81530FF2B05D104D140F2CA311F48FFF7ECF9BDF81430ADF82030ADF81C30C3F3072333
:4020C00029781A4AD15411E20B78002B40F00E820B7A33B9164B0022DA809A80154A1A604B60064A137803F0FE031370FEE149790A4B1B88ADF81430002337E0947F02083E
:40210000004402088C77020828380810807F0208897F0208C07702089C7F0208303808107C7F0208887F020834380810987F0208C87702087C750208AF4A32F81320ADF8D1
:402140000C209DF80D2012B9AC48825C00E00022012A0AD9A84A12F81320914205D1A64A32F81330ADF8143002E00133002BE3D09DF81530FF2B05D104D140F2CA31A048EE
:40218000FFF782F9BDF81430ADF82430ADF81430C3F3072369789B4AD154EB78002B40F0A5816979984B1B88ADF81430002319E0914A32F81320ADF810209DF8112012B919
:4021C0008E48825C00E00022012A0AD98A4A12F81320914205D1884A32F81330ADF8143002E00133002BE3D09DF81530FF2B05D104D140F2CA318248FFF746F9BDF8143071
:40220000ADF82830ADF81430C3F3072301217F4AD1546BE1FFF7C2FD68E1AB7E002B3FD12B7E012B02D10022794B1A70E97E764B1B88ADF81030002319E06F4A32F8132020
:40224000ADF814209DF8152012B96C48825C00E00022012A0AD9684A12F81320914205D1654A32F81330ADF8103002E00133002BE3D09DF81130FF2B05D104D140F2CA31E9
:402280005F48FFF701F9BDF81030ADF82C30ADF81030C3F30723FF2B02D0297E5D4AD15402225D4B1A7021E102225B4B1A701DE1FFF774FD594B1B7813F0010F00F016817B
:4022C000534B1B78012B03D10222514B1A700DE1032B03D100224E4B1A7007E1022B40F0058100224A4B1A704D4B1B685B684D4A1178C1EBC10203EB42039A79002A00F055
:40230000F5809B88002B00F0F180474B1B78002B40F0EC800120FFF78FFB002840F0E68001223B4B1A70E1E0FFF738FDDEE00B88ADF800309DF801301BB902212F4AD1548E
:4023400005E023B940F286312D48FFF79DF86A782988294B23F812106B780021334AD15403EB8302324E91192D4B1B6818692B7803EB830303F584531033034453F8060FE0
:4023800090511B790B71687800EB800004213044FFF7D2FA6B7803EB830333441B7998420BD0244B1B680021234898476B7803EB8303981900229A51027129462046FFF7BF
:4023C000EDFC93E00B88ADF804309DF805301BB900210A4AD15405E023B940F286310848FFF752F86B780021084AD15429462046FFF7D4FC7AE000BF7C7F0208887F02085E
:4024000034380810847F020830380810C0770208897F0208C4770208807F0208947F02088C7702087E7F0208997F0208987F02088C7F020890770208040001000B88ADF813
:4024400014301723ADF8163005A809F043FD4DE00846FFF7E5FB014620B929462046FFF79DFC01462846FFF749FC294B1B7813F0110F04D0274B1B682946204698472A89EE
:40248000234B1B7813F0010F11D0531E9BB2122B0DD912238DF81830ADF81620AB89ADF8143001238DF8193005A809F007FD184A137803F0FE03137018E0FFF76FFC15E0FE
:4024C000FFF76CFC12E0FFF769FC0FE0FFF766FC0CE00846FFF7E6FB29462046FFF75EFC04E00D4A137843F001031370084B1B7813F0110F09D0064A137803F0FE03137000
:40250000044B1B682946204698470CB070BD00BF947F0208907702087F7F02080020704730B108B5034A10600348FFF709FC08BD02487047D47702081D2508100100160033
:4025400010B501390244904207D010F8013B11F8014FA342F7D0181B10BD002010BD10B5431E0A44914204D011F8014B03F8014FF8E710BD02440346934202D003F8011B83
:40258000FAE770470EB400B59CB04FF402711DABADF81410029006906FF000410A48049107914FF6FF7153F8042BADF816100068019302A900F076F8029B00221A701CB01E
:4025C0005DF804EB03B070472C46020810B5034642B111F8014B03F8014B013A002CF7D11A4400E010BD934202D003F8014BFAE710BD2DE9F0478E689E4282460C4691462A
:4026000098463ED88A8912F4906F3AD0256809696F1A6569022305EB450595FBF3F57B1C43449D4238BF1D4653050FD5294600F089FB064698B13A462169FFF790FFA38991
:4026400023F4906343F08003A38113E02A4600F0D7FB064670B92169504600F025FB0C23CAF80030A38943F04003A3814FF0FF30BDE8F087266165613E44ED1B2660A560D9
:402680004646464528BF464632464946206800F0EFFAA3689B1BA36023681E4426600020BDE8F0872DE9F04F9DB0804603938B891C060D4616460DD50B695BB9402100F017
:4026C00041FB2860286118B90C23C8F80030CDE040236B610023099320238DF82930DFF89CB130238DF82A3037463C4614F8013B1BB9B7EB060910D003E0252BF9D0274676
:40270000F3E74B46324629464046FFF772FF013000F0A780099B4B4409933B78002B00F0A08000234FF0FF3204930793059206938DF853301A930126052221784E4800F03F
:4027400047FA671C049B38B14B4A801A06FA00F0184304903C46EFE7D90644BF20228DF853201A0744BF2B228DF8532022782A2A03D0079A00210A200BE0039A111D126845
:402780000391002A10DA524243F00200079204900BE0274601343B78303B092B03D800FB02320121F5E701B107923B782E2B1ED17B782A2B0AD1039B1A1D1B680392002B13
:4027C000B8BF4FF0FF330237059310E000230593781C19460A24074601303A78303A092A03D804FB01210123F5E703B1059103223978224800F0ECF940B14023CBEB000022
:4028000003FA00F0049B18430490013739781C488DF8281006227E1C00F0DAF988B1194B33B9039B073323F007030833039314E003AB00932A46144B04A94046AFF30080E6
:4028400007E003AB00932A460F4B04A9404600F093F8B0F1FF3F824603D0099B5344099342E7AB895B0601D4099801E04FF0FF301DB0BDE8F08F00BF4A3D0810503D0810F0
:40288000543D081000000000F32508102DE9F04791461F460A698B68DDF820809342B8BF1346C9F8003091F8432006460C4612B10133C9F800302368990642BFD9F80030A7
:4028C0000233C9F80030256815F0060510D104F1190A07E00123524639463046C04701301AD00135E368D9F800209B1A9D42F1DB94F843302268003318BF012392060FD55D
:40290000E1185A1C302081F84300224494F8451082F84310023303E04FF0FF30BDE8F08704F1430239463046C0470130F4D02268D9F80050E36802F00602042A08BF5D1BDE
:402940002269A3680CBF25EAE57500259342C4BF9B1AED184FF000091A344D4509D00123224639463046C0470130D5D009F10109F3E70020BDE8F0872DE9F04317460A7EAF
:4029800085B06E2A984606460C460C9B01F1430E00F0AE8011D8632A22D009D8002A00F0BB80582A40F0CA8081F84520834955E0642A1ED0692A1CD0C0E0732A00F0B080F5
:4029C00009D86F2A2ED0702A40F0B8800A6842F020020A603EE0752A24D0782A3AD0ADE01A6801F14205111D1960136884F84230A8E021681A6811F0800F02D0111D1960DC
:402A000008E011F0400F02F10401196002D0B2F9003000E01368002B3CDA2D225B4284F8432037E021681A6811F0800F02D0111D196007E011F0400F02F10401196001D035
:402A4000138800E01368227E5C496F2A14BF0A2208221BE078225A4984F845202268186812F0800F00F104051D6003D1550601D5038800E00368D00744BF42F020022260A3
:402A80001BB9226822F0200222601022002084F8430001E049490A226568A560002D08DB206820F0040020602BB9002D7DD175460CE0002B79D07546B3FBF2F002FB10334F
:402AC000CB5C05F8013D03460028F5D1082A0BD12368DA0708D5236962689A42DEBF302305F8013C05F1FF35C5EB0E0323612EE008681A68496910F0800F03D0101D186062
:402B0000136808E010F0400F02F104001860136801D0198000E0196000232361754616E01A68111D1960156862680021284600F04FF808B1401B6060636804E004F14205E9
:402B400084F8422001232361002384F84330CDF800803B4603AA21463046FFF797FE013002D14FF0FF3026E023692A4639463046C0470130F5D023689B0710D5002504F150
:402B8000190907E001234A4639463046C0470130E7D00135E368039A9B1A9D42F2DBE068039B9842B8BF184605E00B7884F8423004F142058AE705B0BDE8F0835B3D0810E0
:402BC0006C3D081000000000000000000000000001F0FF01102A2BDB10F0070F08D010F8013B013A8B422DD010F0070F42B3F6D1F0B441EA012141EA014122F007047FF0F0
:402C000000070023F0E80256083C85EA010586EA010685FA47F5A3FA87F586FA47F6A5FA87F68EB9EED1F0BC01F0FF0102F0070232B110F8013B013A83EA010313B1F8D15F
:402C40000020704701387047002D06BF35460338073815F0010F07D1013015F4807F02BF013015F4C03F0130F0BC0138704700BF884210B501EB020301D8421E0BE098427C
:402C8000FBD28118D21AD34204D013F8014D01F8014DF8E710BD994204D011F8014B02F8014FF8E710BD000038B50546002946D051F8043C0C1F002BB8BFE41800F0D6F80C
:402CC0001F4A1368114613B96360146032E0A3420ED92268A018834204BF18685B68636004BF121822600C6024E0A24203D813465A68002AF9D118681918A1420BD1216842
:402D0000014458188242196014D1106852685A60014419600EE002D90C232B600AE021686018824204BF10685268626004BF091821605C602846BDE8384000F098B838BD48
:402D4000347F020870B5CD1C25F0030508350C2D38BF0C25002D064601DBA94202D90C23336046E000F082F8234B1C681A462146A1B10B685B1B0ED40B2B03D90B60CC1829
:402D8000CD501EE08C420DBF63684B686360136018BF0C4615E00C464968E9E7174C23681BB9304600F052F820602946304600F04DF8431C18D0C41C24F00304A0420DD1AB
:402DC0002560304600F053F804F10B00231D20F00700C31A0ED05A42E25070BD211A304600F034F80130EBD10C233360304600F03EF8002070BD00BF347F0208307F0208F6
:402E0000F8B5074615460E4621B91146BDE8F840FFF798BF1AB9FFF747FF2846F8BD00F027F885420ED929463846FFF78BFF044650B131462A46FFF792FB31463846FFF792
:402E400033FF01E03046F8BD2046F8BD38B5064C002305460846236000F014F8431C02D1236803B12B6038BDA87F02087047704751F8040C0028BEBF091851F8043CC0186F
:402E800004387047044A05491368002B08BF0B461844106018467047387F0208B07F0208F8B500BFF8BC08BC9E467047F8B500BFF8BC08BC9E46704747656E6572617465C1
:402EC000645F536F757263655C50536F43365C70646C5C647269766572732F7065726970686572616C2F7363622F63795F7363625F756172742E6800537461636B207374AE
:402F000061727465640A0D00436F6E6E656374656420746F206465766963650A0D000000446973636F6E6E65637465642066726F6D206465766963650A0D00004E6F20659D
:402F400072726F722C2073656E742076616C3A2025750A0D00000000496E76616C69642063795F7374635F626C655F67617474735F64625F617474725F76616C5F696E661B
:402F80006F5F740A0D0000005772697465206F7065726174696F6E206E6F7420616C6C6F7765640A0D0000006F66667365742073706563696669656420696E207468652061
:402FC00063795F7374635F626C655F67617474735F64625F617474725F76616C5F696E666F5F74206461746120737472756374757265206973206E6F742076616C69640A07
:403000000D000000496E73756666696369656E74207265736F75726365730A0D00000000536F6D6520756E6C696B656C79206572726F72206F636375726564206475726946
:403040006E672077726974650A0D00004E6F2076616C6964206572726F7220636F6465207761732072656C65617365640A0D00004E6F206572726F7220666F72206E6F7461
:40308000696669636174696F6E0A0D004E6F20636F6E6E656374696F6E20666F7220636F6E6E48616E646C650A0D000056616C69646174696F6E206F6620696E707574202E
:4030C000706172616D206661696C65640A0D00004F7065726174696F6E206E6F74207065726D69747465640A0D0000004368617261637465726973746963206E6F74696613
:4031000069636169746F6E732064697361626C65640A0D00556E6B6E6F776E206572726F7220666F722073656E64696E67206E6F74696669636169746F6E0A0D00000000DF
:40314000424C45205461736B20537461727465640D0A0000496E6974696174656420636F6E6E656374696F6E0A0D000045737461626C697368656420636F6E6E65637469DE
:403180006F6E0A0D000000000300000001000000010000000000000005036000040000000100000000000000010000000604600008000000F876020865050810000000003C
:4031C0000C0000000800000000020000000000000000000000000000000000000000000000000000000000000B0000000000000000000000000000000000000000000000AE
:403200000100130001000028010000000B0000000018000000000000020003280100020003000000002A0000000000000300002A010002010300000004000000F842020854
:40324000040003280100020005000000012A0000000000000500012A01000201050000000200000000430208060003280100020007000000042A0000000000000700042AC6
:4032800001000201070000000800000008430208080003280100020009000000A62A0000000000000900A62A010002010900000001000000104302080A000328010002001B
:4032C0000B000000C92A0000000000000B00C92A010002010B00000001000000184302080C000028010000000F00000001180000000000000D000328010020000F00000098
:40330000052A0000000000000E00052A000020010F00000004000000204302080F00022901010A030F00000002000000284302081000002801000000130000001D33000015
:4033400000000000110003280100160013000000D2F10000000000001200D2F1010116011300000001000000304302081300022901010A03130000000200000038430208BE
:40338000010003000500070009000B000C000E000F000000100012001300000047656E6572617465645F536F757263655C50536F43365C70646C5C647269766572732F70AF
:4033C00065726970686572616C2F6970632F63795F6970635F6472762E68000047656E6572617465645F536F757263655C50536F43365C70646C5C647269766572735C70B6
:4034000065726970686572616C5C6970635C63795F6970635F6472762E68000047656E6572617465645F536F757263655C50536F43365C70646C5C647269766572735C701B
:4034400065726970686572616C5C6970635C63795F6970635F6472762E63000047656E6572617465645F536F757263655C50536F43365C70646C5C647269766572735C70E0
:4034800065726970686572616C5C6970635C63795F6970635F706970652E630047656E6572617465645F536F757263655C50536F43365C70646C5C647269766572735C703E
:4034C00065726970686572616C5C7363625C63795F7363625F756172742E680047656E6572617465645F536F757263655C50536F43365C70646C5C647269766572735C70F3
:4035000065726970686572616C5C7363625C63795F7363625F636F6D6D6F6E2E6800000047656E6572617465645F536F757263655C50536F43365C70646C5C647269766596
:4035400072735C7065726970686572616C5C7363625C63795F7363625F756172742E630047656E6572617465645F536F757263655C50536F43365C70646C5C647269766577
:4035800072735C7065726970686572616C5C737973696E745C63795F737973696E742E6300000000000020400000244000000040000000000000234000003040000031407E
:4035C00000009F40000022400000104002020202020202020210101D800017007500FF030602063604102000000000007FC0000000040000000000000019324B647D00802B
:403600004000080B100000000000FF012002001F00800004FF081018001000140018001C4044484C5000000008100000080000000400000004100000001200000421000004
:40364000002100000016000040114002C41300138013A013200000001C0000000000214000002540000001400000344000002440000031400000324000001F41000023408F
:4036800000001140010101010101010101101010800019005500F0000501053B04101C01010000000FC000000004000001010101011D3A5778960008200010120800000044
:4036C000001F00000010000F002000023F06080E00080009000A000B24282C3034000000100000009000000088000000080000008000000004F0000000F000004002000037
:403700002005A000D00100018001A0012000000010000000240003003000010028000200240002000C00010000316253C4F5A697B988DBEA7D4C1F2E4372211087B6E5D417
:40374000FACB98A93E0F5C6D86B7E4D5427320113F0E5D6CFBCA99A8C5F4A796013063527C4D1E2FB889DAEB3D0C5F6EF9C89BAA84B5E6D7407122137E4F1C2DBA8BD8E929
:40378000C7F6A59403326150BB8AD9E87F4E1D2C02336051C6F7A495F8C99AAB3C0D5E6F4170231285B4E7D67A4B1829BE8FDCEDC3F2A1900736655439085B6AFDCC9FAE29
:4037C00080B1E2D344752617FCCD9EAF38095A6B4574271681B0E3D2BF8EDDEC7B4A192806376455C2F3A0914776251483B2E1D0FECF9CAD3A0B586904356657C0F1A29329
:40380000BD8CDFEE79481B2AC1F0A3920534675678491A2BBC8DDEEF82B3E0D1467724153B0A5968FFCE9DAC3F06000000000000FFFF000047656E6572617465645F536F89
:40384000757263655C50536F43365C70646C5C6D6964646C65776172655C626C655C63795F626C655F6761702E680000000404000104080002041400030C200004042C0084
:40388000050648008D81081021860810218608102186081021860810996B08106D6C081021860810218608102186081021860810218608102186081021860810218608108E
:4038C0002186081021860810B583081001840810397A08103D7C081019800810215A081000000000F03C0810903C081008000000D5F4081000000000603B0810AC3A0810BB
:403900000F000000000000000000000000000000000000000000000001200000B591081006200000F992081007200000C991081008200000B992081009200000B99308107F
:403940000A200000B59008100B2000007D9308100C200000459308101020000011910810112000009190081012200000959208101420000031930810152000002991081075
:4039800017200000E59008100E20000015910810ACFD00008B950810ADFD00007F940810A0FD0000F5950810A1FD0000DF940810A2FD00001B950810A5FD0000EB96081097
:4039C000A6FD00004F960810A8FD000051940810A9FD000027940810AAFD000043950810ABFD0000B1960810AFFD000041950810C3FD00009D960810B0FD00001596081059
:403A0000B2FD000063960810051400006F9108102D0C0000499208107B0C0000F79108107C0C0000ED93081027200F2028201020292010202B200A202C200B202D200D2055
:403A40002E200C204E20172000000100010000010001020203000200000000000202010002000001000100050100050202030002000000000002050100050000E1EC08100B
:403A800049EE081051ED081001010B0102028102820503040403840906090709080909090A09050A0C0B0D0D0E0E00000100000001000000000000000200000004000000F1
:403AC00002000000030000000700000005000000040000000A00000008000000050000000C0000000B000000060000000E0000000D00000007000000100000000F0000003C
:403B00000800000013000000110000000900000016000000140000000A0000001700000017000000FF00000018000000180000000B0000001B000000190000000C00000074
:403B40001D0000001C0000000D0000001F0000001E0000000E000000210000002000000001000000ED110910FEFFFFFFB910091001000000ED11091006000000B113091083
:403B8000F8FFFFFFB910091018001200D5100910A000000C2D0E091047FFEDFBB9100910E8000C002510091000012000350F09101FFED3FFB9100910A000000C4D1809103B
:403BC0005FFFFFFBB910091000020000A5160910FFFDFFFFB9100910000C0000350D0910FFF3FFFFB9100910000A0000D90F091001000000F90F0910FEF7FFFFB91009109E
:403C000000200000790E09100040000055170910FF9FFFFFB9100910FFFFFFFFBF100910FFFFFFFF2F0D091000800000110D091000000100F30C0910FF7FFEFFB91009101F
:403C400000800100B70C0910FF7FFEFFB910091000008003990C0910FFFF7FFCB910091000801F0AD50C0910FF7FE0F5B91009100000000000000000000000000000000016
:403C8000870000000000000000000000000000008100000000000000000000008200000001000000010000000100000002000000020000000200000004000000030000006A
:403CC000030000000600000005000000F10000000700000007000000F20000000900000008000000FF0000000A0000000A00000002000000DD1C091001000000DD1C09107A
:403D00000E000000D11B091002000000151C09100C000000B91B091002000000551C09100C000000B91B09100E000000DD1C09100C000000191D091002000000B91B09103C
:403D40000E0000005D1D09104300232D302B2000686C4C0065666745464700303132333435363738394142434445460030313233343536373839616263646566000000006C
:403D8000000000002DE9F05F00250746041D00F1180840682E4E4FF6FF7A88B1616879B180070DD1207A80070AD198F8300038B12849084600F0A4FB10EA0A0002D044E09A
:403DC000354642E02289A37ADFF88C90206858B1C9F800000025A9F80420A9F80650A9F808302946FEF7C6FBA07A801D00F0FF0B5946606800F072F8050021D1404601F05A
:403E000089F905001CD1E06820B1384600F0CCFA050015D1B9F80400B9F80610884206D3401A80B2594600F0ABFE20B100E05046354628B109E0A07A801DC0B200F0C6F997
:403E400000F0DAF90549012008702846BDE8F09F01001600F1400810D87702080444020803480078012801D100F01ABD704700000444020810B500F075FB04490020086063
:403E80008880C88008810249087010BDD87702080444020870B5044600208A0703D001F00302891A091D084B89B2DA889E885518B54206D81D682A442260DA881144D9805F
:403EC00070BD024870BD0000D8770208030016000148008970470000D87702082DE9F84705460C460020890000908A466846FFF7D1FF07004BD12748009B0022036017E0B2
:403F000003F82220062A08D2234803EB820100EB820046784E70408807E005EB8200183803EB820186784E700088521C4880D2B2A242E5D300251EE005F1010909F0FF00DE
:403F400015E003EB850203EB8001B2F802C04E88B4450AD991F80180A1F802C092F801C081F801C0568082F80180401CC0B2A042E7D309F0FF05A542DED347B9514668464B
:403F8000FFF788FF070002D10449009808603846BDE8F887084402086C3808100C440208F0B5002319E05A1C00EB830612E030F8235030F82240A5420BD2778820F823404F
:403FC00000EB8204B4F802C0A6F802C020F822506780521C8A42EAD35B1C8B42E3D3F0BD00487047E477020805F03CBDFFF738BF10B5022401F032F810B100F03FFF00B986
:404000000124204610BD05207047000010B5002428B132220349FEF7A2FA204610BD024810BD0000E477020801001600F8B506004FF000008DF8000006F1040407D020899D
:404040002081304601F0E2F8050002D012E01248F8BDA17A6A46606801F0B2F8050009D1E06838B1B6F84400000903D0304600F0FBF905462089208165B93046FFF782FE81
:40408000050007D1304600F0B5FF0546A17A6068FFF786FF2846F8BD0100160038B504004FF00000ADF8000008D0A18D090A05D1617A102902D8E179102901D90A4838BDC0
:4040C000E0856946204600F0D5FF0500E08DBDF800100844E08504D1322221460348FEF73EFA284638BD000001001600E477020870470000002809D005494A68002A05D0FC
:40410000011F087852F8200000F0E4BC704700000844020810B50446FFF7DAFEC0B2801DA0420BD30648406840B150F8240000F03DFC002801D000F8044B10BD002010BDB6
:4041400008440208F8B516460D460446FFF7C0FEC0B2801DA04203D24FF0FF300090F8BDB2B2E9B2684600F04BFC0099481C03D00248406840F824100098F8BD0844020861
:404180002DE9F0410746FFF7A3FE801D0B49C6B2002005460C680CE0617839B16188B94202D32078FFF7B6FF002804D1241D6D1CEDB2B542F0D3BDE8F08100000844020855
:4041C000002801D0FFF796BF7047000070B506460848002504680AE0617829B162882078121D0023FFF7AEFF241D6D1CEDB2B542F2D370BD084402081CB5002414200190FC
:404200008DF800402346064A694606480BF0F4FE04480068401C01D14FF6FF7420461CBD61420810104402080EB50C4A0146002312684FF6FF7004290DD009290AD1092033
:404240000093ADF80800ADF80A30694610460BF0D0FE80B20EBD04200093F2E71044020870B5D0E90054468900890C282DD2DFE800F02C2C0606112C2C152C191C27E0B2F6
:404280003246294609F090F8E0B23246294600F037FD1AE000200BF0B7FB16E02878FDF7C1FB12E000F00AFE0FE0E8B2022C02D008F0B6FD09E0FF2807D002F03FFF04E0D3
:4042C0002846022C03D008F083FE002070BD03F047FAFAE70148006800F0CABA104402082DE9F0411F4F0026386D60B1796D51B14218891E12F8024C0022FDF703FB844245
:4043000001D0194E2BE0002505EB850307EB8304606800B357F82310E9B16289D7F854C0624518D294F80CC01CF0090F02D0FEF716F90AE009780170606831B1628957F81C
:404340002310083A08310830F1E723691BB10122207B114698476D1CADB2042DD4D33046BDE8F08118780208FFFF1600F0B5C10701D040F008000B4CFF2184F85D10002142
:4043800001250E4601EB810204EB820205FA01F3177B03409F4200D11681491CC9B20429F0D3F0BD1878020870B5134908B3B0F84410124CC1F30711002584F85C100169A0
:4043C00021654069C4E91505FF2684F85D6028464FF6FF7300EB800204EB8201401C4B8144F822500D610E73C0B20D810428F1D30021084670BD0000010016001878020863
:4044000010B5174B48B3417839B3002202E04908521CD2B20029FAD102EB8201114A02EB810111F8084CFF2C17D103787BB1438821F80A3C946D136D234441F8143C4488C2
:40444000936D2344936582680AB141F8042C103942780A72406800230860184610BD00000100160018780208F0B5B0F84420234C46690021C2F30712D2B3D3070BD090F8C1
:40448000203003EBC30505EB431501EB850101EB031101F14001530715D5C37F2C2513FB05F55FEA857C4FF00C0723D003EB430505EBC30307EB830505F00305C5EB830500
:4044C00005F11005294492070ED590F821004FF00803C20095070FD003EBC00202F00302C2EBC0020C321144891C8E4200D300242046F0BD0C35E5E70832F4E70100160037
:404500000F4A10B5002313600E4A13600E4B18600E4801600E49012008600E49086000020E4990600C4808600D4914300860A0F58A70506000F0D0F800F008FA002010BDF8
:404540002C44020814440208404402084444020830440208204402087879020824440208384402080020704710B501004FF0000010D0094B1A689C681144A14209D25868F7
:40458000196010448A0704D001F00302891A091D196010BD002010BD144402082DE9F04102461A4F002010253B1F4FF0FF38444639681B6807E000EB800605EB86068E59EF
:4045C000761C1ED0401C9842F5D3601C16D004EB84060C2000EB86000A5002EB42008000FFF7C2FF396841F8260060B1396805EB8602002088507868401C78602046BDE8C4
:40460000F0810446E1E74046F9E70000244402082DE9F0410F464FF0FF36002821DB2249096888421DD8E7B1DFF87C8000EB800508F104081020D8F8001000EB850408598B
:40464000401C0ED0FDF78CF9D8F800000C2202EB8502015950F802C04346614504DBFDF779F93046BDE8F081082101EB8506815950F8250001EB410500EB85003D6805601E
:404680007D684560BD6885601868491C82588A4200D10021815118680159491C0151FDF759F90020DEE7000020440208002803DB08490968884202D94FF0FF30704705490D
:4046C00000EB8000091D1022096802EB8000085870470000204402082DE9F0430020134A0427441E03464FF0080C1025A2F10409506014E000EB8001166807EB8108401C6B
:4047000046F8083016680CEB810846F80830166805EB810846F80840166846F82130D9F800108842E6D30020BDE8F083244402082DE9F0410E464FF0FF3700284CDB294926
:404740000968884248D8EEB3DFF8988000EB800408F104081020D8F8001000EB84054859401C39D0FDF7FCF8D8F800004346415949B3042101EB8407C25950F8240002EB69
:40478000420100EB8100521CD0F800C0C6F800C0D0F804C0C6F804C08068B060186850F8240000EB810000210160416081600C21186801EB84014158914200D10022C251E4
:4047C000186801E008E009E04159491E4151FDF7C1F80020BDE8F0813846FBE7FDF7BAF8FAE70000204402082DE9F0470D4601001E4C4FF00000089E80464FF0FF37206011
:4048000010D0606885420DD262B15EB1642E09D804F10C09C5EBC501D9F8000000EB8104207A10B13846BDE8F0870120226020721846FFF7B3FE6060401C13D06681A68198
:404840002761676199F80410A94201D289F8045041460B4661F30F030A46284600F052F82846E0E784F80880DCE700002C44020810B5002810DB0949496888420CD807492B
:40488000C0EBC0000C31096801EB80004068FFF70DFF08B1002010BD012010BD2C440208FEB5174E4FF0FF373D4600240DE03068C4EBC40100EB8100017A29B14068FFF72F
:4048C000F5FE08B1254603E0641C3079A042EEDA681C13D03068C5EBC50100EB8104FDF73FF869466068FFF723FF0546FDF732F8002DD9D1216868468847D5E7FEBD00008F
:404900003844020838B50024009400F001F838BD1FB500220C49541E00280A6012DB496888420FD80849C0EBC0000C31096801EB800001A94068FFF76BFE401C02D00020FB
:4049400004B010BD2046FBE72C440208F0B50021154A4E1EA2F10C0711710B46BE601EE0C1EBC1000425146805EB800566511468082505EB800544F8203014686355146836
:404980000C2505EB8005635314680A2505EB800563531825146805EB8000491C265078688142DDD30020F0BD3844020838B5041E4FF00000009012DB1048007884420EDAD2
:4049C0000E4D0C35286800EB0411096839B1042101EB04110844694600F047F908B1002038BDFCF7BDFF0F21286801EB0411425C521E4254FCF7AEFF009838BD484402083A
:404A00002DE9F74F8A46002500996C1ED21C0C604FF6FC71DFF8B88002EA0107A8F10C0128460A78D8F8001005E001EB00131B687BB1401CC0B29042F7D3601C2CD00420E4
:404A400000EB041B01EB0B00514600F0FDF818BB01E00446F1E7D8F800000C2101EB041147520E22D8F8001002EB041207FB0AF001F802A00F22D8F8001002EB041201F895
:404A800002A000F0ABF8D8F8001001EB0411086010B1814600260EE0012516E0D8F8001001EB0B00494600F0FAF808B1012500E0B944761CF6B25645F0D335B9009804603A
:404AC00098F80410491C88F804102846BDE8FE8F54440208F8B54FF000070D46041EADF800703ADB25480078844236DADFF88CC00CF10C0CDCF8001001EB0410006860B3F3
:404B00000C2202EB04128E5A0E2202EB041285428B5C06FB030220D395421ED2002205E002FB060EAE4504D0521CD2B29A42F7D39FB1042000EB0417C81966466A4629461E
:404B400000F0C7F848B9BDF80000012807D030682946384400F0A3F818B10120F8BD0020F8BDFCF7FDFE0F21306801EB0411425C521C4254FCF7EEFEF1E7000048440208A8
:404B80002DE9F0410D46002400F03CF8002821D11149002201F10C034A600C210E264FF00F0E14E01F6801EB041C07EB04173A601F6827F80C201F6806EB041C07F80C2052
:404BC0000EEB041C1F68641CE4B207F80C20AC42E8D31A71BDE8F0814844020800280BD0074AC01C20F00301506853880144994203D893685160184470470020704700008C
:404C000048440208F8B5064600200E4D00900C01297021466846FFF73DF958B905F10C0100980860301B001F84B221466846FFF731F910B14FF6FF70F8BD6C800098A86054
:404C40000020F8BD4844020830B50D4604000AD0A800FFF7C3FF606028B125704FF0FF306080002030BD012030BD70B50D46040004D01DB1B4F90200002801DA012070BD9E
:404C8000FCF76EFEB4F90210606850F8210028606088401E6080FCF75DFE002070BD70B50D46040006D02DB12078B4F90210401E814201DB012070BDFCF752FE6088401C03
:404CC00000B26080616841F82050FCF743FE002070BD70B500231D4610B1B0F902400AE0012070BD466856F823608E4201D1012503E05B1CDBB29C42F4DA1570002070BDF4
:404D000070B586B015460E460446182200216846FDF730FC00238DF800308DF80140ADF804506846029600F023F906B070BD00000EB501890091407801900A20ADF808002C
:404D40000020ADF80A000348694600680BF051F90EBD0000104402080EB541680091417801910221ADF808100089ADF80A000348694600680BF03DF90EBD00001044020878
:404D800000F0DEB802490020488000F071B800005C4402082DE9F041074621480125002405704FF6FF75012F02D0022F2FD10DE0477082801B4A128842F48072828181601E
:404DC000174800F0D5F810BB2C4620E0164E012B20D0B6F800C0022B624492B2328010D081607188091D8A4211D1104947708280098841F400718181094800F0B9F818B10F
:404E000003E009684161ECE72C46002030802046BDE8F0814A887280096801610420F5E7A8790208484502085C440208C444020870B504460D4600EB4400C2000021284694
:404E4000FDF798FB074A0020074914711560907150710648FCF78AFD08B1002070BD012070BD000060440208314D0810594D081001491420FFF7DCBFC079020810B5FCF706
:404E800061FD06494A7989798A4201D1012400E00024FCF75BFD204610BD00006044020805494879401CC0B248710A79904201D100204871704700006044020810B5FCF7DA
:404EC0004FFD0B4948798A7990420DD0096800EB400001EBC000AFF21B020649FCF760FD10B10920FFF7A0F9BDE81040FCF732BD60440208A14E081070B5104C0146A27912
:404F00006379501CC0B2834216D02579854200D193B1206802EB420200EBC2001822FDF71EFBA079401CC0B2A0712179884201D10020A071012070BD002070BD604402083D
:404F400070B5FCF7FFFC094C0546217901EB4100C20000212068FDF70DFB0021A17161712846BDE87040FCF7F1BC00006044020810B5FFF7C1FF0446FFF7A0FF204610BDAD
:404F800010B5124802F006FC68B9114801F0EAFF48B911490F480860084600F039FA10B90E4809F0E9F804000ED1FFF799F90404240C04D0002141F2050000F089F90021A3
:404FC0004FF4805000F084F9204610BD1D670810CB6A081021A1081070440208F99C081010B504F0A9FB03F0D9FCBDE8104004F02DBD000070B50546041D00F1180600F048
:40500000ADF9144829680160616809888180A17A03290FD361688979017261684989C1F34701417261688989C180B179817296F83010C1726168098A818100F091F8002837
:4050400006D100F0A5F8002802D1034A0121117070BD0000A07B02086844020810B502F063F9012803D1FFF735F9012800D0002010BD00002DE9F0411C4D0C46060005D0E2
:40508000DFF86C8098F8000018B16D1C2846BDE8F081B08D08F002FB308808F005FB0500F4D1304609F038FF0746304603F040FB0744304600F0BEFF384400F634102080C0
:4050C000304605F080FC21880844208096F83010C1EBC10100EBC1002080304601F0D8FB218808442080A8F80400CFE7010016006844020810B505F001FC03F027FB00F0FA
:4051000069FF09F036FF01F07FFBBDE8104008F097BA000010B5040010481DD0204608F097FA002818D1204601F07CFB002813D1204609F029FF00280ED1204600F052FF13
:40514000002809D1204603F007FB002804D12046BDE8104005F0DEBB10BD000001001600094810B50949C07A887000F017FF064801F098FB002806D103F000FBBDE81040B4
:40518000014805F001BC10BDA07B02086844020810B500220849094800F0C8FE10F0FF0008D000220449054800F0C0FEBDE8104004F018BF10BD0000814F0810558E08105C
:4051C000F0B5002635461670334616E030F82340082C0AD900EB83077F8837B1083C20F823401478641C147005E053B100EB830420F8235065805B1CDBB28B42E6D3304654
:40520000F0BD014EFBE7000001001600F0B52E4C031D0020A188247802460CB12B48F0BD2A4D1C68083D4CB11F898F4206D3596821B100244FF0020C9E7A39E02846F0BD51
:405240000CEB8203CB5A03B331F822E0BEF1000F2AD00EFB03439CB2052A32D2DFE802F0030C11161E00B1F800E08B78BEF1230FE4D3032BE2D317E08B8833B1302BDDD317
:4052800012E00B890BB1282BD8D30DE08B895BB1233B4FF6BA7E7345D0D205E00B8A002BCCD04B8A012BC9D10028C8D1521CD2B29642C5D8C6EBC60104EB81018F42BDD31E
:4052C000F0BD0020F2E700006844020809001600034A1268002A02D0002800D010477047A07B020870B5044605F06BFB01F0E6FB00F0FCFD174D012C16D0022C29D11648C3
:40530000046800F02BF8FEF7B5FDFFF7F3FEFFF767FE00202870002C1BD0A446BDE87040002143F212006047FEF75AFE848DFFF717FF38B9FFF72CFF20B901202870204674
:4053400008F0ACF9BDE87040002143F20100FFF7BFBF70BD68440208A07B020803480021016041608160C16070470000A07B020830B50C46054600F00DF8002806D1044A58
:405380006978126802EB0111C988218030BD0000744402080B4B024642F6137051781B7899420DD2084B1B6803EB01110B7A6FEA03039B0704D4127809788A4200D1002087
:4053C000704700006A4402087444020810B50A490A4B027809781B68491EC9B203EB01142478A24202D14170002010BD0029F3D14FF6FF7010BD00006A44020874440208D3
:405400000249096801EB0010807B70477444020842F6117138B1006828B105490A6822B142F61470704708467047086000207047784402082DE9F74F84B0154604980E4671
:4054400060B1152E05D01E2E0BD9D22E09D0522E07D042F6127007B0BDE8F08F42F61170F9E700200390049890F80180FF208DF808000498FFF78EFF07002ED1DFF810A5C0
:4054800042F6147B1B2E0CD01D2E0AD0F0070BD0012E06D0DAF8001001EB0810007BB0421AD1F00703D00FE01E2EF3D0F9E71E2E14D0DAF8001001EB0810407B20B1522EFC
:4054C0000CD0D22E08D109E01D2E07D1DAF8001001EB0810407B08B15F46D8E0012E20D0DAF8001001EB0810C088001DFEF748FE040018D002214FF0010942F616700F2E3C
:4055000077D013DC4FF005024FF0030729D2DFE806F0282BFD4AFC56FB73FA82F991F887F7000920E2E742F60577B0E0182E71D009DCA6F11002082A13D2DFE802F0E9B75D
:40554000FFEA1212EDED1E2E7ED006DC192E7BD01B2E01D01D2E04D1F0E0522E75D0D22E74D042F612778FE0E87804280BD0DAF80070AB7807EB0811097B491E8B4208D08C
:4055800006280ED105E0DAF8001001EB0810007B38B1A87860712888A071000AE071E878F7E05F4670E02988172901D207466BE0ADF8067028886071000AA07148E028799A
:4055C000012817D01027ADF8061028796071EA88BDF80630BF1C201D7A4318442968FCF7BEFFBDF80600E98807FB0100ADF806002EE050E00227E6E7ADF80690A88829685E
:405600008200601DFCF7ABFFBDF80600A98800EB8100EBE7ADE1ADF80610A888801C5CE0286808B1A88828B9012003900020ADF806900090434601222146284600F0CEFB20
:40564000070026D0039802E063E077E055E1D8B1267100208DF80A008DF80960304600F07BFA04998DF808006A460988ADF80410BDF806100094091DADF80610014600207D
:4056800002F0E8FF070002D02046FEF799FD3846E1E6E8887AE1ADF80690AA88601D2968FCF75DFFBDF80600A988AFE0EA88002A3FF47CAFAA88002AFAD0DAF8007007EB9E
:4056C0000813DB885B1E9A42BFF670AF2A68002AEED0ADF80610A888001DA8806071AA88E888BDF806304243201D18442968FCF736FFBDF80600A988EA8801FB020075E76C
:40570000C9E0ADE0A3E083E047E033E021E003E0CCE0ADF806909BE729890029C8D0ADF80690221D288909F80200BDF80670631D010AF954BDF80600801C4EE043460122F1
:405740002146284600F026FB07009DD1E888C01C4CE729881729FFF429AFADF8067028886071000AA071DAF80020298802EB081041806DE7298800299AD06B88002B97D056
:4057800099423FF613AF6171080AA0716888E071000A2072ADF806205AE72989002987D06A89002A84D09142EBD8ADF80690221D288909F80200BDF80670631D010AF954CF
:4057C000BDF80670A11D68897854010ABDF80670E01D3954BDF80600001D81B2ADF80610A8898854BDF80610000AC854BDF806004346801C82B2ADF806202146284600F0DB
:40580000EDFA0700A1D1BDF80600E9880844EDE62A88002AB0D069880029ADD08A42B0D84CE0A9881154080ABDF80610C85404E010441022291DFCF792FE287DBDF8061018
:40584000012801D0102000E002200844CEE62988002991D06171080AA071ADF80670F7E62988002988D0ADF8069028886071000AA071BDF80600221D801C81B2ADF8061047
:4058800068888854010ABDF80620601D1154BDF80600801CAAE642462146284600F054FA0700AFD1E98809EB41009FE629880029B0D06A88002AADD09142B0D8ADF8069097
:4058C000201D298809F80010BDF80670631D0A0AFA54BDF80670A21D6988B9540A0ABDF80670E11D7A54BDF80610091D8AB2ADF80620297D01299BD193E7288900283FF4EF
:4059000032AEADF806902889271D010A09F80700BDF80620601D1154BDF80600801CADF80600DAF8001001EB0810C0880F3880B2E880A988884200D9E980BDF80600EA880C
:4059400038442968FCF70BFE2868FEF739FCBDF80600E988084480B2ADF806003844E96801602969416069698160BDF806000C303CE6297811B101297FF418AEADF80690E1
:40598000221D287809F80200BDF80600401C2DE67444020830B50C460546FFF7FBFC002805D1034A6978126802EB01118C7330BD74440208F0B40E480023122603600D484A
:4059C000012401780A48001F17220568491E05EB011046708460C28042808280037343738473F3D1F0BC1721034A042001F012BF784402086A440208795B081070470001CA
:405A00007047000001490020086070477444020801010148FEF73EBA7444020870470000044A4079126802EB001080680860002070470000744402082DE9F843324E07462E
:405A4000457930684FF0000800EB05104FF01209846811F1090F2DD011F1050F05D00C22042914D0082949D136E04078122806D008F09AF9316801EB051181F80190316810
:405A800024F0040401EB051181F80D8036E04178122906D10092401C3B461C4A1E2108F01FF93168787A01EB0511401C487344F0040423E04078122806D008F075F9316813
:405AC00001EB051181F80190316824F0080401EB051181F80C8011E04178122906D10092401C3B46094A1E2108F0FAF83168787A01EB0511401C087344F00804306800EB0C
:405B000005108460BDE8F88374440208215E081070B5104D04460129286800EB0410816016D140781226122805D008F03DF9286800EB041046702868012200EB041017214A
:405B40008260C18041808180002101734173827370BD000074440208032809D9C10704D01B2804D01D2802D003E01E2801D0F1207047F220704700002DE9F04F85B00646DB
:405B8000032956D803D1002A53D0002B51D04E484FF0FF0A42F6137904784FF001008DF80A008DF804A049488DF805A096F800C0006825460DF10C0BA4F1010400EB041777
:405BC00097F80080C44508D1BF68012F05D08DF8054030788DF8040007E0002CECD1B9F1000F02D0012924D126E0012921D002294CD01078142801D9162805D31E2858D980
:405C0000D22856D0522854D08DF808A08DF809A00092ADF806309DF808106A46002002F019FDA0F53C51123903D1012106200AF0C7F905B0BDE8F08F6D1E00EB05118968C0
:405C4000012906D0002DF7D19DF80500FF28F0D0E1E7EAB28DF8052031788DF8041000EB05103178017002211046FFF751FF81208DF808008DF8090003A9304600F02CFC8F
:405C80000720CDF800B0ADF80600DDE7E0B20121FFF73EFF82208DF808008DF8090003A9304600F019FC0720CDF800B0ADF80600B1E78DF80900FFF74FFF521C8DF8080062
:405CC0005B1E0092A5E700006A44020874440208F8B50546447A807A0E46012822D1287A81281FD082281DD076B91E2C0CD0E10702D01D2C0DD005E0522C03D0D22C01D068
:405D00001B2C06D1FF2804D0E00704D01B2C04D108E0082103E01E2C04D16FF004012846FFF78AFE07480768002F0AD0A6F53C50183806D0E888009032462146281D2B6845
:405D4000B847F8BD78440208F0B58788012405683B0019D0DFF838E004F1020CDEF8006006EB0216F68866450AD30C4435F8026B26714FEA162666715B1E1FFA8CF4EBD16D
:405D8000F91AC1800020F0BD42F61670F0BD0000744402082DE9F0410489CCB1DFF838C08788961CDCF800C037440CEB031C42F62075BCF806C0674507D80A441471240ABC
:405DC0005471B2B200F00AF805462846BDE8F08142F61670FAE70000744402082DE9F0410D468488016804B151B10C4EA718366806EB0313DB889F4206D99B1AC38004E0D5
:405E000042F61170BDE8F081C480C388A818001D1A46FCF7A4FB0020F4E70000744402082DE9F041184E0446407931684FF0000501EB001042F6177780686FEA00004107A0
:405E400001D4691F03E000070DD46FF008012046FFF7F2FD607A3946401C60722560E5802046FFF735FF6079316801EB00104078122807D007F098FF61793268122002EBEE
:405E800001114870BDE8F0817444020870B50446C38804C8042101F087FC05000FD1617AC8070ED01D2912D0522908D0D22906D01B2904D06FF008012046FFF7BDFD284664
:405EC00070BD5229FBD0D229F9D01E29F2D00421F2E7000020B10449097801700020704741F21300704700007C44020810B50E4C2078032804D0022802D041F2120010BDF2
:405F00000AF091F800F0FEFF07F02CFC0AF08AF8FEF736FF07F0DEFF00F042F909F0E0FC0020207010BD00007C44020870B5134D04462878012802D041F2110070BD022014
:405F4000287069600AF04EF809F0BCFC00F00AF907F08EFF0AF06EF8204606F0CDFE040003D107F0B1FB040002D00120287003E000F05AFF0AF05FF8204670BD7C440208ED
:405F8000054810B50178022904D103210170406800B18047002010BD7C44020810B50C4C2078002812D160600AF022F809F006FD00F006FBFEF7E6FE0AF044F807F068FCFF
:405FC00000F0BAFF0AF03FF80120207010BD00007C4402080248002181604160704700008444020838B5044600200090204600F021F801466846FDF74DFF002813D10C4B1B
:40600000009A5A6094F83010CC070DD001EB810404EBC101032404EA4104C4EB4101091D11440091996038BD1A246143F8E700008444020890F83010007A4FF003030844C3
:40604000C207C0EBC00013D003EA4002C2EB4000001D82B2C8070DD001EB810000EBC10003EA4001C1EB4001091D881880B270474000EEE71A204143F7E700002DE9FE4305
:4060800006460D0041F2114066D0002E64D0304600F0C0FA040023D041F2134741F21448BC4220D0A879022801D003281BD128680090A888ADF80400A8796946801E8DF82B
:4060C0000600304600F0A6FA040009D0BC420AD002A9684608F092F838B99DF80800307041F2124437E0444530D130781B49C0EBC003AA798868002400EB43039A71327815
:406100002B68C2EBC20200EB42021360AB88938001F10C0293793278C2EBC20200EB420253733278C2EBC20200EB4200CA6840F8072F0A8A82800878401CC0B208700849C2
:406140000988814207D109F087FF04E0BC4202D1284609F07FFF2046BDE8FE83844402088045020830B40C480C4C00220088A368401EC0EBC00103EB410100280A608A80D2
:406180008A71C1F80720A1F80B204A73F0DC227030BC09F062BF0000804502088444020809F05CBF18B5002401468DF800406A46204600F029F8002822D19DF8000000EBAB
:4061C000800101EBC0020F48416801EB4200427E012A15D144769DF8000000EB800202EBC00001EB4000C0F8064044819DF8000000EB800202EBC00001EB400004608480D6
:4062000018BD000084440208F0B5144C144D06464FF6FF70002364682D7811E003EB830707EBC307012E04EB470705D03F7E8F4204D113700020F0BD7F7E27B15B1CDBB2CB
:40624000AB42EBD3F0BD03EB830000EBC30004EB4000012545760176EBE70000844402086A4402081A2100FB01F2024800214068FCF780B98444020838B50D4600218DF8A4
:406280000010144601466A460020FFF7BDFF00281AD19DF8001001EB810202EBC1030B494A6802EB43012B68CB60AB880B829DF8001001EB810303EBC10102EB41012268A0
:4062C000C1F81220A288CA8238BD00008444020838B50D4600218DF80010144601466A460120FFF791FF002825D19DF8001001EB810202EBC10310494A6802EB43012B68D6
:40630000C1F80630AB884B815CB19DF8001001EB810303EBC10102EB410123680B60A3888B809DF80010012301EB810404EBC10102EB41014B7638BD8444020810B538B1F2
:40634000174A01781288914205D341F2154010BD41F2114010BD134CC1EBC102A16801EB420300221A609A800378C3EBC30301EB43039A710378C3EBC30301EB430343F812
:40638000072F9A800378C3EBC30301EB43014A732178491E217009F05EFE002010BD0000804502088444020841F2114241B138B10E4B02781B889A4204D341F21540704774
:4063C00010467047C2EBC203094A926802EB43035B7B8B710078C0EBC00002EB400050F8072F0A60808888800020704780450208844402082DE9FE434FF0000807460C0055
:406400008DF80080CDF8048041F21140CDF8088008D0002F06D02E4839780088814203D341F21540BDE8FE836A460020FFF7ECFE284D06004FF001091CD19DF8000006224C
:4064400000EB800101EBC000696801EB4001891D01A8FCF775F868B19DF8000000EB800101EBC000696801EB4000D0F806102160408927E021463846FFF796FF0646A07990
:40648000022822D30FD19DF8000000EB800101EBC000696801EB4000C1682160008AA08084F8068011E003280FD19DF8000000EB800101EBC000696801EB4000D0F812104D
:4064C0002160C08AA08084F806903046AAE70000804502088444020810B5024641F2114000291DD0002A1BD010481378048841F21540A34214D2C3EBC3040D4B9B6803EBBB
:406500004404A4798C711278C2EBC20203EB420213680B6092888A8000228B5C0BB1002010BD521CD2B2062AF7D310BD8045020884440208FEB506464FF000008DF80000F3
:40654000019002900C0041F2114008D0002E06D0194831780088814202D341F21540FEBD6A460020FFF750FE05001ED19DF80020124F02EB820000EBC2007968062201EBF0
:40658000400101A8FBF7DCFF78B19DF8000000EB800101EBC000796801EB4000016821608088A0800120A07104E021463046FFF793FF05462846FEBD80450208844402089F
:4065C00000B591B06846FDF721FDBDF82C00C00617D508208DF8350001208DF834009DF830009DF808100844C0EBC0004000ADF8360000200F90064880680E900DA8FDF716
:40660000FFFE9DF83000FFF72DFE11B000BD0000844402082DE9FC475FEA0109054641F2114134D095B3DFF880A08E1C0020BAF800402C70ADF80400DFF8708000908DF88B
:406640000600641ED8F80800C4EBC40700EB470199F806208879824204D106224846FBF76FFFB8B12978BAF80000814218D1D8F808009DF8062000EB4701887982420FD1D3
:4066800006226846FBF75CFF38B109E0FFE70846BDE8FC8700262C7004E02C7041F21446002CCEDC3046F3E7804502088444020848B1064A0368D3608088108202F10C0073
:4066C00081710020704741F2114070478444020810B541F2114241B138B10E4B02781B889A4204D341F2154010BD104610BDC2EBC204094A8B79926802EB4404A371007878
:40670000C0EBC00002EB40000A68026089888180002010BD804502088444020838B54FF6FF73012915D0022939D0032910D100788DF80100507803EA0020ADF80000117858
:406740000843ADF80000694646F20200FEF7C0FD38BD01781A480172D17803EA01210180947821430180517903EA01214180147921434180D17903EA01218180947921436A
:406780008180517A03EA0121C180127A1143C180BDE8384001464FF4C040FEF799BD00788DF80200D07803EA0020ADF8000091780843ADF80000694646F20100C6E7000023
:4067C000B07B02080C4810B5006808B1FDF7F8FC0A48006808B1FDF7F3FC0948006808B1FDF7EEFC07480068002803D0BDE81040FDF7E6BC10BD0000C0440208A84402088E
:40680000A4440208AC44020803490020086003490860034908607047B8440208B0440208AC44020838B504460020009094F83000A17910FB01F000EB80008004010C684618
:40684000FDF728FB00281CD10E490098086094F8300000EBC000C1006846FDF71BFB00280FD109490098086094F8300000EB001081006846FDF70EFB002802D1034A009997
:40688000116038BDAC440208B0440208B844020890F8300000EBC001C90000EB001001EB800070472DE9F843644F1E21624C7971017A01B901217970427A02B901223A70CA
:4068C000817A19B10B46C57A15B102E00123FAE701256B43BB7001B90121F970491E3971C0880025042802D9001FF88000E0FD80C2EBC2008000FDF743FCDFF844810028F3
:40690000C8F800007ED0387800EB80008000FDF737FC4C490028086074D0787800EBC0008000FDF72DFC484E002830607DD0002400F08CF82846009537E000EBC001306855
:4069400040F82150009901EBC10100EB81014D60009901EBC10100EB81018D60009901EBC10100EB8101CD60009901EBC10100EB81010D61009901EBC10100EB81014D6107
:40698000009901EBC10100EB81018D61009901EBC10100EB81018D83009901EBC10100EB8100C5830098401C009079788842C4D341462846009528E0C0EBC002086800EB46
:4069C00082029560009AC2EBC20200EB82029581009AC2EBC20200EB8202D581009AC2EBC20200EB82021561009AC2EBC20200EB82029582009AC2EBC20200EB8200C5827E
:406A0000009800E011E0401C00903A789042D3D32846009505E0684600F05CFF0098401C009039788842F6D31CB100F00FF8FFF7C9FE2046BDE8F883030016009844020828
:406A4000C0440208A8440208A444020810B51648164C006830B12178C1EBC1018A000021FBF788FD1248006830B1217801EB81018A000021FBF77EFD0E48006830B16178EF
:406A800001EBC1018A000021FBF774FD0A480068002808D0A178BDE8104001EB81018A000021FBF767BD10BDC044020898440208A8440208A4440208AC44020810B5FFF7C5
:406AC000C5FFBDE81040FFF77DBE08B569468DF800008DF8012041F20200FEF7F9FB002008BD00002DE9F347284A9DF800000E46126800EB800100F1400912F8218002EBAF
:406B00008101002488784D89022806D0032806D0052804D0062805D103E0012402E0082400E00424684600F0D5FE194FE00711D0184908EBC8003A68096801EBC00005EB49
:406B4000C50102EB81012E30D1F804C0002332464946E04760070DD5A6F50C50383800D100263A6805EBC50002EB80003146C26848469047200707D5396805EBC50001EBEE
:406B80008000816848468847BDE8FC87A8440208A4440208B04402082DE9FE430E468046082B05D00021304601F0C0FCBDE8FE8350794FF6FF71147901EA00200443D07978
:406BC000957901EA002005432548264F402C00780ED300F140018C420AD23A6804EB840102EB8101A1F2FE41097809B1A4F140008DF8080008F0FF02214602A800F0F4FED1
:406C000048B99DF80800396800EB800001EB80008088A84208D00023022231464046CDE9004501F0CBFCC1E7082307222146304601F0FEFC0C4906EB0610096801EB80017F
:406C4000200A8C75C8750D76280A4876304601F069FB42F238319DF80800FFF743FFA5E798440208A8440208B844020870B50D46082B42D150794FF6FF71167901EA0020B8
:406C80000643D07901EA0021907908431B4940280A781B490B682ED302F1400188422AD200EB800103EB8101A1F2FE41097811B3A0F14004E4B2A2421FD004EB840103EB2F
:406CC00081018A88B24218D18978062915D10D4A05EB0511126802EB8101498981420CD10121284601F022FC2046BDE8704042F23831FFF7F7BE1446DCE770BD9844020883
:406D0000A8440208B8440208F8B50746694600F0E9FA00287BD101220721009800F074F901220821009800F06FF9394E002456F8345025B104236A4602213846A847641CB1
:406D4000032CF4D30024334D42F23737324E0CE0296804EB840011F820000099884203D1E0B23946FFF7BEFE641C30788442EFD300242A4D2A4E0FE0296804EB041001EB12
:406D80008000817B39B140680099884203D10121204601F0CBFB641C30788442ECD3214C0098216800EBC00001EBC000018D19B1818DC28C1144818506F03CFC009901EBFB
:406DC000C102216801EBC2025085009800EBC00001EBC000343009F033FE00984FF6FF7100EBC002206800EBC20291840099FF2201EBC10100EBC10181F82E200099172251
:406E000001EBC10100EBC100A0F844200020F8BDBC7B0208A844020898440208B84402086A440208B0440208F0B50021FF270C462E4E2F4D28E001EBC10233694FF6FF7C05
:406E400003EBC200491CA0F824C080F82E704FF0170CA0F844C04FF0030CC0F804C0DFF894C09CF800C0C0F808C0DFF88CC09CF800C043F832C04FF0FF32C260C0E904249D
:406E8000C477048380F8464028788142D3D300201A4AF16805E000EB800301EB8303401C1F7413789842F6D37461747014493470002041F83040401C0328FAD3002012271A
:406EC000B3690DE000EB001203EB8201401C8C7395F800C0C1F804C00C8103F822704C7429788842EED3F461F0BD0000A04402086A4402089C4402089B4402089A4402088D
:406F0000BC7B020870B50024094D0A4E0BE0E96804EB840001EB8000007CFF2802D0204600F00CF9641C30788442F0D370BD0000A04402089A44020808480949002200783E
:406F40000B69401E10F0FF0000EBC00103EBC1010A854A858A85F4D1704700006A440208A044020818B1034948610020704742F216307047A04402082DE9F04102461E48AC
:406F80004FF0FF360078814202D93046BDE8F0811A481B4C0378246801FB03F505EB850004EB8000002407E004EB840700EB87073F7CFF2F07D0641C9C42F5D301210846BF
:406FC00008F0FEFFE1E704EB8403002740F8237000EB83008781C78146600274094A01EBC100126852F830305B1E42F83030084600F0B8F92819C9E76A4402089B440208DA
:40700000AC440208B04402082DE9F04791460D46072908D0082D06D02E4900EB0010096801EB800080882C4980B200EBC0080A6802EBC800C468621C4AD00069274F8A4683
:40704000844225D0396804EB840001EB800017E03A6800EB800602EB86010B7CAB420BD104EB840302EB830249685160B9F1000F03D000F063F800E00446386800EB8600AB
:407080004068411CE4D1DAF8001001EBC8000461DAF800003B6800EBC801C86800EB800203EB82031B7CAB4212D10023CB770B833B6803EB82025268CA600B69834200D185
:4070C0000A61B9F1000F03D0BDE8F04700F036B8BDE8F087B8440208B0440208AC440208F0B4144C024601EBC1032068124D00EBC300C668761C1AD000692E6800EB800020
:4071000006EB80004260206800EBC300026120684FF0FF3200EBC3002B68006900EB800003EB80004260F0BC084600F019BB0261C260ECE7B0440208AC4402082DE9F05F13
:40714000494A01460025106800287DD0474B1F68002F79D0DFF818C1DCF80030002B73D0444B1C68002C7CD0434C2468002C78D0424C2468002C74D001EB810400EB8401EB
:4071800092460A7C0026012A04D0072A0AD0082A4DD113E0886800EB001007EB8000808885B244E050F82400554608B1FDF708F8286800EB84008068050C38E050F82420EE
:4071C0000AB140F824608F68DCF8002007EB8709C7EBC70812F829501A68898902EB8800E346028B114489B20183828A91421ED10069FCF7E5FF1F4940371FFA87FC0968DA
:40720000002301EB88001A4606618682C6820683DBF8001001EB8900408900EBC0011648006800EB81001946076A6046B847DAF80000FF2140F8246000EB84008681C68138
